:0200000407FCF7
:1000000088C6FC072505FC072D05FC074505FC07F0
:1000100000000000000000000000000000000000E0
:100020000000000000000000000000005D05FC076B
:1000300000000000000000005F05FC07CD23FC0766
:10004000691DFC072D6CFC071D27F007D123FC0759
:100050006522FC076305FC075D1DFC076305FC07C3
:100060006305FC076305FC078D21FC079721FC074E
:10007000A121FC07AB21FC07B521FC076305FC07A8
:100080006524FC076305FC076305FC076305FC07A3
:100090006305FC076305FC076305FC076305FC07B4
:0200000407FCF7
:100510000348854601F0FEFB00480047D55BFC0719
:1005200088C6FC070F4880470F48004704207146E3
:10053000084203D0EFF309800C490847EFF3088025
:100540000A49084704207146084203D0EFF30980A6
:1005500007490847EFF3088005490847FEE7FEE72B
:10056000FEE7FEE74186FC071105FC077522FC0744
:100570004D22FC0770B50E4604460022032151F7B8
:10058000EAF9054652F7B6FB6880284651F7F4F9B8
:1005900052F7B0FB7188884200D3084601462046D6
:1005A00051F7D1FA002070BD0246FF4B92009A58D5
:1005B0000120126900290ED0517F5E239B5C002B25
:1005C0000BD0052906D1517E090702D5917C090778
:1005D00000D400207047917DEFE70229F9D004296B
:1005E000F7D00529F6D10020EDE7024630B593009B
:1005F000ED4A0120D2581269137DD47E157F234025
:10060000547D2C40012901D0022909D1957C527ECC
:1006100015402A0704D41A462243D20700D10020ED
:10062000032901D0042904D1590702D4610700D459
:10063000002030BDF8B514460D4610465BF76DFC42
:10064000240A002830D0D949A2008B5801271E8BDC
:10065000BF023E431E83132826D0142824D0152819
:1006600011D088582D210A5C0123D10600290CDA0B
:100670000146A0318E7D002E07D08B753D2120468E
:1006800045F7B8FE10E00220F8BD110703D50021A0
:10069000A0308175F7E7A0308375204643F7A4FBAF
:1006A0002946204643F7E3FB0020F8BDFFB581B0A3
:1006B0001546170A10465BF730FC002838D013287F
:1006C00036D0142834D0290A8C00B84E152815D0FD
:1006D000FF20294603305BF707FD30592D21095CC7
:1006E000C90603D5A030C07D00280ED03D026D1C88
:1006F000A8B25BF712FC19280CD00FE03059012189
:10070000A030C175022005B0F0BD3D21384645F747
:1007100071FE0DE0A8B201215BF7CDFB305901223B
:10072000018B5202914301833846029943F79FFBA4
:100730000020E8E7F0B59D498700C95900268031BF
:100740004A8C8B8C1B2A00D21B228C8B944200D2A9
:1007500022468A849A4200D001260B8CCD8C1B2B1A
:1007600000D21B23CC8B9C4200D22346CB84AB42CD
:1007700000D001260B8ECD8D9C46FF2349339D4230
:1007800001D21C4600E02C460D8DA54200D3254623
:100790000D86654500D001264C8EA4468C8D9C426A
:1007A00000D21C464B8DA34200D21C464C866445A9
:1007B00000D00126EB080B3B9BB29A4200D21346B5
:1007C0008B86522379495843794BCA591C68803229
:1007D0000419D28C8034E285C9591A688031801896
:1007E000498E803001863046F0BD10B50446714810
:1007F000008D8007800F012800D000206071002844
:1008000007D057F7F3FE01460622A01D5DF74EFC08
:1008100010BD06226849A01DF8E770B50546002402
:1008200042F7A9F82855641C082CF9DB70BDF8B50F
:10083000022707700126044646700D4688795F49F5
:10084000C96988472A210855287900210007000F27
:10085000A07003005DF77EFC07050709100D100B63
:100860001000A1700AE0A67026E0032002E0A77045
:1008700004E00420A07001E001281DD0A888000A2F
:10088000801FC0B2A0721F2800D9A172284642F76B
:1008900027F9811D2046A27A0B305DF707FC284618
:1008A00042F71EF901460622201D5DF7FFFB28795D
:1008B0004006C00FE070F8BDA172F0E7F7B54468DC
:1008C0008CB02546243503950546074624354CF75C
:1008D0001BFA06464420405B5221484334490968CC
:1008E0004018C0304089694608840121384647F7DE
:1008F0004AF94CF77EF809900E9800698088000A42
:10090000C1002F480818298940182D495B315DF72F
:1009100053FB01466868039D4718403528890690B7
:100920000090A0680099381A400140095DF744FB27
:100930000A910098C019401A400140096946A06018
:10094000098C4900C919891C49014909884204D206
:100950000699401840014009A06001460998081A0C
:10096000400118494009884215D900202B89A26806
:10097000401CD21852015209A260EA89521CEA8135
:10098000A368099A9A1A520152098A42EED801B212
:100990000D9847F799F9A1680998081A4201607DF6
:1009A0005209824221D80FE02C7EFD071879FD07FD
:1009B0004C76FD074C7EFD07CF79FD07B47FFD0720
:1009C00016020000FFFFFF032A898918490149091F
:1009D000A1602A890A99511A814206D901210D98EC
:1009E00047F772F9E889401CE8812989A0685DF71A
:1009F000E3FAF1802889B080208A3081A88870814C
:100A00000020B081C807C00FB073A88852214843A6
:100A10008E30308230464CF782F903984663204688
:100A20000FB0F0BDFFB5002093B006460124FE498B
:100A300049680A7821460C2A0CD06A4611730022B4
:100A40001192002E09D015990291169D1F2D54D98F
:100A5000402052E000242246119413990291149DE3
:100A6000F4E7029989184978012905D0172903D09C
:100A7000182901D0192912D1631E04E003AFFF5CCD
:100A80008F4204D05B1E5BB2002BF7DA03E0002B31
:100A900001DB4A2003E003AB1955641CE4B20B00F0
:100AA0005DF758FB1D2610101010101010101026A6
:100AB000262626262626262626262626101010102E
:100AC00010102600119B03E00BAFFF5C8F4204D097
:100AD0005B1E5BB2002BF7DA03E0002B01DB4A2040
:100AE00006E0119F0BABD9551199491CC9B2119160
:100AF0000299895C521C89188AB2AA4201D2002844
:100B0000AFD0AA4200D04A20761CF6B2022E01D203
:100B1000002894D017B0F0BD10B50022134607E0AE
:100B200084186478012C07D0845C521CA21892B2FD
:100B30008A42F5D3184610BD80188378FAE7F0B5DD
:100B40000646A9B01546002084006318DA789F781D
:100B500012025B783A4352BA1B041A430B5D072416
:100B60001B061A43231A9F0020AB401CDA510828A9
:100B7000EAD300218A0090190746C37880781B02C7
:100B8000034378785BBA00040343B05C10AA000604
:100B90000343601A800013503846223043780078AF
:100BA0001B0203433846203047785BBA3F04007885
:100BB0003B43000603430F27781A8000491C13505B
:100BC0000829D7D35CF706F9014630465CF77FFD6C
:100BD00000282DD05CF7FEF8034620AA10A968462D
:100BE0005DF780F900226846A11A8B009600C75C69
:100BF0007119CF70C75A3F0A8F70C7583F0C4F709A
:100C0000C35820311B0EAB550F239B1A9B00C65CAB
:100C1000CE70C65A521C360A8E70C658360C4E70AC
:100C2000C3581B0E0B70082ADED3002029B0F0BD7C
:100C30000120FBE7F7B500251746064641232A4663
:100C400029460A205AF7B4FF0446002E10D0012E80
:100C500002D0022E0CD105E02022611C002041F7B9
:100C6000A3FE04E0621C3946019841F74DFE207056
:100C700020465AF7B6FF2846FEBDF8B56B480090EF
:100C800007680C46002F7BD005461C35287E0028BF
:100C900076D0012802D0022872D102E02078002804
:100CA00019D038896249002688423AD107204BF78B
:100CB00023FC002835D042233E2200215D485AF70C
:100CC00077FF082101702178002913D0032141709A
:100CD0002178817043E055480226611C14302E763D
:100CE000202204465DF7E2F922465349304641F797
:100CF00015FE45E0002146701F22531A1B194718A4
:100D00005B78491CBB702029F7DB00213F22531A76
:100D100047181B1920375B78491CBB702029F6DB6C
:100D20001DE043493889491C88421AD108204BF7F5
:100D3000E3FB002815D022233E2200213D485AF72C
:100D400037FF09210170217800291BD01221417041
:100D50000021FF224318491C9A702029FADB4DF725
:100D6000D7FE2E7640205BF7A6FB009841F7DAFE0F
:100D70005AF761FF00980068002801D041F7C9FDCB
:100D80000020F8BD002146701F22531A1B19471876
:100D90005B78491CBB702029F7DBE0E770B5087869
:100DA00000250C46012809D01D2810D02B2812D070
:100DB0004022194655F7BCFE284670BD5BF765FA20
:100DC0001948012504601D4857F745FAF4E71C4807
:100DD00041F708FDF0E71B4801680029ECD101212B
:100DE0000160194841F704FEE6E770B5104D174C55
:100DF000223DAB422ED10F4809232A460021C01EB6
:100E00005AF7D6FE044608221149401C5DF74EF9F8
:100E100020790821084320710025257020464DF7D0
:100E200077FE284670BD00004C7EFD07287AFD073E
:100E3000252000000408000089E7F107030C0000EA
:100E4000C3C3C3C35077FD07CC7DFD070DC3F007B7
:100E50005CE5F107A047E5E7F1B584B00498FF49E8
:100E600080000C5804980502A81D0290002C15D093
:100E70006068818804290CD34188861D0C38009154
:100E800001903146049857F7BCFFF549884206D1D6
:100E900060680C385AF7CFFE0020606033E4F178C8
:100EA000B2780F02019928431743C880384640386A
:100EB0003F2819D803223946049854F729F8060028
:100EC000E6D0B07B0128E3D13420B07329460A3143
:100ED0000423E448029A5AF76BFEB189418010213D
:100EE00001705AF77EFED3E7616834200870022152
:100EF00000985AF74FFD05463146009A5DF7D6F83F
:100F000068782978000208436168C880E878A97881
:100F1000000208436168062F08810BD0042F09D016
:100F20006068052F10D00C385AF785FE28465AF70E
:100F3000ACFDB1E760688188052913D329798172F6
:100F40006168287988720DE0818805290AD329799A
:100F5000817261682879887260688188062901D366
:100F60006979C17260685AF73CFEDFE7FFB587B068
:100F70000E4609985AF7D1FF0999090A03910028EA
:100F800076D08800B54905900D58B749B079096BFE
:100F90000A225043B478081841F7A2FD019068680E
:100FA000002808D0012C2DD00398FFF755FF686862
:100FB000002802D026E0022C5AD1B088012702284E
:100FC00005D30198417800780C02044302E051F700
:100FD00091FE044651F78EFEA04201D20224002762
:100FE00020464C3083B29E49A048099A5AF7E0FD4A
:100FF000241D68604480002F01D0002000E03420D0
:101000006968087068680028BAD0811D0091B288AC
:101010000199841C071D01928088238882189A42B6
:1010200009D8009A8018019A5DF740F8398801982C
:101030000818388009E01A1A009BC0185DF736F8C6
:1010400020883880696834200870388804280FD3D5
:10105000009841780278080210432188001D8842D8
:1010600007D280B220803988814207D9388002E0D7
:1010700068E0884202D9696834200870388821887D
:1010800088425FD1686800990C380190039857F73F
:10109000B8FE69680978002951D1714988424ED05B
:1010A00003990F0201993843C880208802210190DA
:1010B0005AF770FC0490228800995CF7F7FF0498B7
:1010C00000283FD0696800208880019802226B4682
:1010D000039907C36868049B821C011D801D41F7AA
:1010E000D9FB6968087004985AF7CFFC6868418892
:1010F000002902D00178002954D0018940393F29C4
:1011000044D8017830291ED00146544A05980C393C
:101110001058083041F722FD69680398891D41F78E
:10112000CAFB4628686801891FD00322039853F739
:10113000EFFE00282CD0808A00282CD028E00398CD
:10114000FFF78AFE42E04A49098D0906C90F07D018
:1011500048490C380968099A898D89B25AF75EFDA9
:1011600068680C385AF767FD12E00322039853F7BA
:10117000CFFE04000CD039460A3104233948099ABD
:101180005AF716FDA1894180102101705AF729FDF7
:10119000002068601AE0686800220189039841F71E
:1011A00085FBF5E70189084640383F280ED8032221
:1011B000039853F7ADFE002808D0808A002805D197
:1011C000686800220189039841F770FBB07941F704
:1011D0007AFC00200BB0F0BDFFB58BB00646169828
:1011E0000027022821D00D980188149881427DD3D0
:1011F0007188084640383F2802D8159853F7C9FE31
:101200000C98361D0088149A80190E995CF74EFFD1
:101210000C980188149808180C9908800D9801887A
:101220001498081A0D99088069E100200E9D079016
:1012300069782C78090221433180E978AC78090279
:10124000214371808C46403904242D1D02460346FB
:101250008E46402900D3287861460DE0AC7DFD071D
:10126000FFFF0000260E0000E078FD07010A0000E5
:101270004C7EFD075876FD0704291FD0052914D0A0
:10128000062918D070463F283ED8159853F781FE9E
:101290000006000E04D0FC48008D0006C00F31D0BF
:1012A00002230120F94A002712E0697800290FD0B3
:1012B000F74A17230CE0F74A0F2309E0522802D01F
:1012C000D22802D002E0142000E01520F24A1F23A9
:1012D000002A7DD098427BD28000105804900028CC
:1012E000F7D0002008900590708800E006E14038B3
:1012F000402803D32878052430716D1C701D0090A0
:101300000498AFE03027EDE03327EBE0522864D0BB
:101310000CDC4B283FD004DC41286AD042285AD14B
:1013200011E04C2820D0502855D140E0632830D01F
:1013300004DC572818D061284DD19BE06C2864D07C
:10134000772848D109E00098297801700098641C3A
:10135000401CA4B26D1C009081E00498401C0490D5
:101360000178089881427AD10098A41C401C410859
:101370004900881C009068782A7800021043088091
:101380000599AD1CA4B2002969D0089000200590F1
:1013900065E00120FBE71022294600985CF786FEF5
:1013A000009810341030A4B21035009057E0204659
:1013B00040301499039088420DD840222946009865
:1013C0005CF774FE009840300090039884B200E00F
:1013D00079E0403543E0342741E00822294600986F
:1013E0005CF764FE009808340830A4B20835009019
:1013F00035E00622294600985CF758FE0098A41DA7
:10140000801DA4B2AD1D009029E01498001B80B28D
:1014100003903088001B001D81B2012007900498C2
:10142000401C04900098401C400840000090049824
:10143000007857281CD04228CDD100980170090AA5
:10144000417000982946801C0090039A5CF72EFE9C
:1014500003980399201884B20098401800900498CB
:10146000401C04900078002820D0002F19D01DE0E7
:101470004908E2E71498001B80B203900098039A91
:10148000401C41084900012000910790294600981E
:101490005CF70CFE03980099201884B20398081892
:1014A000DCE70D990988A14200D32FE70D98008849
:1014B000A04208D304990978002904D1079900298A
:1014C00003D1A04201D034270CE00D99001B088005
:1014D0000C9801880098801B001F08180C99002F99
:1014E00008800CD07088042809D0062807D040381E
:1014F000402804D30E984079707100E034273846B4
:101500000FB0F0BDFFB581B01F4616460C46104621
:101510005AF703FD00253F2802D02189062908D06B
:101520003B4632462146019854F7BFF80546284607
:10153000B4E4000701D50225F9E720780028F6D1A8
:10154000300AA11D41F7C1F8F1E7F3B581B0019868
:10155000524C850060590F464068CE8801462431C0
:10156000009146F7E3FE00994D4A40310091C98948
:10157000701A80B2904214D2B14212D060593146F2
:10158000406845F78CFF60590522791C1F305CF7D5
:101590008DFD019805210002401C80B25AF78BFC9A
:1015A000FEBD60590522791C1F305CF77FFD009855
:1015B000808841F767FFFEBDF8B53A4C06468500C6
:1015C0000F4660594821095C24290ED10069102278
:1015D000791D2E305CF76AFD615925204031087273
:1015E00000221146304652F739FE60594821095C05
:1015F0000C291FD100691022791D2E305CF756FD91
:1016000060595F210069095C09072DD401462E311C
:1016100010221E305CF76EFD00280CD060590921A5
:1016200040300172304653F737FB01460022304606
:1016300052F79FF9F8BD0421684601706A460521FA
:10164000304652F741FB6846017860200143684606
:101650000170304653F720FB0146684602780123AB
:10166000304652F79BFAF8BD304653F715FB012878
:101670001AD06059072140300172002211463046CD
:1016800052F7ECFDF8BD00004C7EFD0714F3F107A6
:101690001CF3F10778F3F107B4F3F1071879FD07AC
:1016A000FF7F00002C7EFD07615900200969C031D1
:1016B000887160590421026930461E3252F704FBDA
:1016C000605901694031897F002907D01A214030D3
:1016D00001720021304652F74BFED3E71B21403008
:1016E0000172304652F799FECCE7F8B5E64C054654
:1016F0008600A0594822125C192AC3D140224930E1
:10170000491D5CF7D3FCA0594022E04949305CF701
:10171000F1FC002805D0DD492846203959F749FF5A
:10172000B0E70B21684601706A460521284652F74A
:10173000CBFA68460178602001436846017028466C
:1017400053F7AAFA0146684602780123284652F761
:1017500025FA97E7FFB581B003980C46060A0025E5
:101760005AF7DBFB002818D0132816D0142814D001
:10177000C748B700C0592030407BC00628D5039821
:101780005AF7CBFB15280CD0A07941F79CF93046CD
:1017900045F7B3FD032806D015E0A07941F793F98A
:1017A0001FE002251DE0BA48C0592030407B4007A9
:1017B00004D53D21304641F7BEFD04E03D22002125
:1017C000304641F7C6FD3D21304644F713FE08E0A0
:1017D00020460C38AF498180C68020464DF798F9E5
:1017E00001252846A4E6F1B58EB00E9841F778F9A8
:1017F00004460E98694600794006C00F0A9006908C
:101800000A208883628BA449101A88427ED2E08A1B
:1018100006287BD31921C901884277D8238BFF2161
:10182000F5318B4272D85B1C990059184143491C11
:101830000A2349105A43914268DC217F00290CD1C8
:10184000617F002909D1A17F002906D1E17F00290C
:1018500003D12021095DC90658D027462037797861
:10186000C906C90E491F0C2950D2A18A81424DD800
:10187000E17C00294AD0421E082A01D9082000E054
:10188000401E814242D805A844F79CFD00283DD166
:10189000824D0622E861214608A85CF707FCA8787B
:1018A0002E46803E00287ED06079800901280AD02B
:1018B00020460A994AF7C4FE00285ED03821095C08
:1018C000002954D059E020464AF727FFE861002854
:1018D00004D10BA920464AF736FFE861F16A887AFD
:1018E000012801D0042810D1E86900280ED0062272
:1018F000253010315CF7FEFB002807D1E869F16A5A
:101900002030C07AC97B884200D100E0A2E0E969BA
:10191000002932D0062208A825315CF7C7FBE86908
:101920002B21095C07AA253006914AF76BFD002898
:101930000FD0E8692030C07A002811D16846584994
:10194000808B49F711FD07AA012155484AF75AFD36
:1019500006E007AA01210BA84AF754FD00280CD085
:10196000E9696846808B323149F714FD05E0421879
:10197000527D002A08D010296CDBF06A407A0228D8
:1019800006D0032804D00EE0491C1029EFDBF4E751
:101990006846808B0A2806D307AA20460A994AF788
:1019A00031FD002856D0002205A920464AF7D4FD73
:1019B00000284FD1F06A407A02280BD0032809D0C2
:1019C00000236846828A08A806994AF7E6FD00289F
:1019D00002D02EE00123F4E7E18A68460180218BE2
:1019E0004180618B81807878062241096846817345
:1019F0007878C106C90E684641732146801D5CF7A0
:101A000055FB0E9800794006C10F68460173838A22
:101A10002146B26D45F783FC0146B065684641F743
:101A200029FB0020B065214668461C31808A44F7B6
:101A30001CFD47F7BAFC194C20342079002805D04A
:101A4000002109205AF750FB002020710021084690
:101A50005AF731FA54E510B57022124912485CF772
:101A600025FB10493822383910485CF71FFB0E4817
:101A70000F49A03001600B49703941600A490D4897
:101A80002039086010BD70472C7EFD07EC7DFD07F6
:101A90001879FD0706080000770C0000E479FD07BF
:101AA00004E5F107F086FC0720000840C000FC07B1
:101AB0008CBFF107FF3F1000F8B53E4C6088C607A9
:101AC0006088F60FC005C50F608840084000608040
:101AD0006088FF270137B843608040F771FF40F707
:101AE00075FF00220821022040F764FF002800D083
:101AF00001206188A18861884908490031436180DB
:101B000061882A02B94311436180F8BD70B501258F
:101B100029492A020A60BFF34F8FBFF36F8F27490D
:101B20000A6027490B681C0A240240231C430C60EE
:101B3000214980390A601F494C880626B443241D78
:101B40004C804C882C434C804C8838252C434C804E
:101B50004C889C434C8001280FD14888330218439D
:101B6000488048881043488048882A0210434880AB
:101B70004888012292039043488070BD10B5114CF3
:101B8000E18A114ACBB21189248BC904890E6404FD
:101B9000640E001B093141430120C002401A80B28B
:101BA000584340031189000E090A090201431181BB
:101BB00010BD00002020005080E100E080E200E045
:101BC00008E400E000230050002C0050F8B50202A9
:101BD00005464123092134480A3259F7E9FF2721F4
:101BE0000170044600201F233049AA008F581E1A96
:101BF0004936BE5D2718401C7E702028F6DB002089
:101C00003F238E581F1A4937F65D27182037401C8E
:101C10007E702028F5DB5BF7DDF80146601C5BF782
:101C200056FD002812D10A2000906A460521284658
:101C300052F74AF8284653F72FF8009960221143CB
:101C4000CAB201460123284651F7A8FF204659F79A
:101C5000C8FFF8BD70B505460446008914490C3428
:101C600088B088421AD100201F216E460A1AA25C51
:101C70003254401C2028F9DB2022314620465CF7F4
:101C800015FA00203F210A1AA25C3254401C202879
:101C9000F9DB20226946A0185CF708FA284649F7C4
:101CA00024FB08B070BD0000270D00002C7EFD074E
:101CB00026200000F0B51FB40646002082B005467D
:101CC0004024019100901BE0019922460F463046C6
:101CD00000F032F8049A059B801A994110D31046FF
:101CE000194622465CF726FA361A8F41019722469A
:101CF00001200021009F5CF71DFA38184D4100902B
:101D00002046641E0028DFDC019B009829463246ED
:101D100007B0F0BD064C0125064E05E0E36807CC90
:101D20002B430C3C98471034B442F7D3FEF7F4FB36
:101D3000CCBEFC07FCBEFC0710B5202A04DB08461D
:101D4000203AD040002110BD0B46D340D040202483
:101D5000A21A91400843194610BD00000148012114
:101D60000180704708150050F8B505273C076089C9
:101D70008007574E22D0A08A400701D504F008FD05
:101D8000218C802001432184FF2171800421318036
:101D9000218830220A432280218803220A4322809C
:101DA0004C49F288B3881204D2188A42F9D337809A
:101DB0004949898F6180218C81432184474801886A
:101DC0004907FCD420883025A8432080228803209E
:101DD00082432280002201231A4041490A703A06B8
:101DE00054D07F1E00973288022717439F433780C5
:101DF0000422728037881743378022882A43228042
:101E00002288024322803288520701D500BFFAE7B8
:101E100022882946AA4322802288054682432280BE
:101E2000F288B7881204D2192E481218042A14D93D
:101E30004222002728488752077B002F02D0192210
:101E400017012548826D921CBA4200D33A4682653A
:101E50001A4628460D46009FBDE742231E48C25A37
:101E6000521CC25292B2142A28460FD300221A489A
:101E7000C2520246007C002800D01320926D521EF0
:101E8000824200D802461448826528466189890743
:101E900006D0618981436181608C0121884360841F
:101EA0002089802101432181208A042188432082C6
:101EB000A08A8007FCD540F762FA0748006E0A49FD
:101EC00008600A48016801684907FCD5F8BDC046AA
:101ED00000160050E90300004425FD0708330050B8
:101EE0001CC0FC0761F8FFFF080200401000004022
:101EF00080B504F037FF80BD02480188C907FCD1D6
:101F00007047C04640300050B0B5054C20212180BC
:101F1000044902250D80FFF7EBFFE587B0BDC04601
:101F20000430005044300050B0B5B64920220A8039
:101F3000954C02256580FFF7DBFF2580B0BDC046CC
:101F4000F0B58DB014460E4608900593181D00900C
:101F5000101D0190002502923078002800D1F9E090
:101F600001061ED4002C2CD02178401A617807225B
:101F70000B460B9213400C91C9080793002B00D01D
:101F8000491C002869D40395A57869434843019BFF
:101F90001F187818E2784A43991888422ED9029C73
:101FA0005AE00599002900D1D2E000221146052A05
:101FB00000D1C9E0034693401B060DD5521C491CB5
:101FC000F5E70599002900D1C2E0202800D0BFE044
:101FD000059840784008B9E05F4A114004293ED096
:101FE000032950D0022900D0AEE07178002900D139
:101FF000AAE00395761CC006420D51E004960398B2
:102000000A300A900021069588B2A84220D208988A
:1020100009910E180024A5B20C98854210D20B9895
:1020200005403878A840000605D50A98001980B206
:10203000B1B200F049F9072D00D17F1C641CEAE71A
:102040000798002800D07F1C069D0999491CDBE7F2
:10205000029C60780C90049E039D0C9876E0727848
:10206000002A71D0B378002B6ED0F17800296BD0A4
:102070000395F61C4007C00A9206920B10189A06A8
:10208000120D82180CE07278002A5DD0B178002918
:102090005AD00395B61C0007000C9206120D1218B8
:1020A0003F20084010434ED0059B5C780721224614
:1020B0000B910A40511E06928A410C94E10889183E
:1020C0009A7807925143CA1CDB785B1C009C0496EB
:1020D0005B1E34D0A5182678360467783F02BE19F7
:1020E000A4783419049E84422C46F1D16F1A0398C7
:1020F0000A300A90002290B20799884221D20898AB
:10210000099216180025ACB20C98844210D20B9894
:1021100004403878A040000605D50A98401980B2DE
:10212000B1B200F0D1F8072C00D17F1C6D1CEAE79A
:102130000698002800D07F1C099A521CDBE7029CFD
:1021400001E0029C049E039D059840782818451CD8
:10215000761C01E70DB0F0BDFF7F00000A480821A2
:1021600001800321090241810122428000228280F4
:1021700002220280C18023488022028041822022E4
:102180004280C1817047C0464230005080B50A206D
:1021900000F03AF880BD80B50B2000F035F880BD26
:1021A00080B50C2000F030F880BD80B50D2000F027
:1021B0002BF880BD80B50E2000F026F880BD000011
:1021C00070B5032800D1042040010E4C049D002D61
:1021D00003D001258D40055303E0251801268E40CC
:1021E0006E801343490061180818838070BDC04693
:1021F00001228A40032800D10420400101494252B3
:102200007047C0460230005070B5C0B203460A3B6A
:1022100001210A469A4093B20A4C1C195C40660898
:10222000094B1C880025360402D06D1C760CFAE799
:102230009443AAB20D46954025431D8081401A481B
:10224000016070BDFFFF01000E1400500348C8215B
:102250000180034808210180FEE7C046003100509C
:1022600002330050024800880F4810210160704777
:102270002C1300500B48018904220A430281018972
:1022800002220A430281018840220A430280064951
:1022900001220A604189054A11408918091D4181BE
:1022A0007047C0460800005080E200E0FC7F00005C
:1022B0002C48012101770174017301760022027517
:1022C0000170017201717047F0B5264A536A4324C8
:1022D000A400E41A01DB202400E0203416794B2509
:1022E000AD00002E01D02E466436864239D3167AD0
:1022F000002E2F4600D137468F4232D3CE43177C73
:10230000002F00D07619177D002F00D10E46117BCB
:10231000002901D029466431814222D3117C002951
:1023200000D10D46B1B2A9421BD88B4219DCE4188A
:102330008C4216DD147F002C13D0C91A127E002A9D
:1023400000D032224A43C10851188A09182A08D8F5
:10235000054A535C072420408024E44304411C4088
:102360005454F0BD20C0FC07011FFD077047FEB5A7
:1023700002920A46019009320C2110465BF71CFEBE
:102380000E460A27084639465BF716FE0446992092
:1023900045006E43701D39465BF70EFE0299081822
:1023A0000199091B8CB2A20880183B354D43451991
:1023B000642120465BF700FE2D1A192001012046FA
:1023C0005BF7FAFD2818401E80B2FEBD7047000082
:1023D000F8B5224CD64E224FA1880F200840022883
:1023E00006D004281ED00C281FD00128F4D133E0D9
:1023F000A44880694C22B15A4823F55AA9421BD2FD
:10240000A388C0251D40C02D03D13B889B0703D462
:10241000E2E7238A9B06DFD54B1CB352415C221FA7
:102420001180E7E705F036FCD6E705F033FC20889D
:10243000012188432080CFE7208802218843208023
:1024400020888021884320808E48C0690028C3D01E
:10245000F05A05F0D1FBBFE7F8BDC04604110050AB
:102460007C11005005200007018830229143018033
:1024700001880322914301800421415E002906D591
:102480000E490A88520702D50A88D2070DD18088E2
:10249000C00609D50A480188090605D501218180B1
:1024A00001888022914301807047088802220243FC
:1024B0000A8008880122904308807047000200507B
:1024C0000001005010B50468091BFF31994208D380
:1024D000194606E01378237003685C1C0460491EEB
:1024E000521C0029F6D10020207010BD3748018809
:1024F00002220A4302800549491C02D2028892073F
:10250000FAD40021018140897047C0465F79FEFFFF
:10251000FEB505461448029002AC204600F028F8AB
:10252000142000F05FF807208601002D00D08036CF
:10253000264F38880D49084080193880FFF7D6FFAC
:102540000190012000F04EF80025A570204600F013
:102550000FF838880549084080193880FFF7C6FF12
:102560003D8001994018FEBD010001013FFC0000C3
:102570001649174A0A8000224A80164A40231360EF
:10258000BFF34F8FBFF36F8F00281ED00A88124B06
:1025900013400278D2021A430A80104A40320B8854
:1025A0001340427892011A430A800A880C4B134068
:1025B000827892021A430A8009224A804A880223BA
:1025C0009A43C0784000104348807047001500507F
:1025D0000140000080E100E0FFF70000FFFBFFFF8B
:1025E000FFFB000000280CD000BF00BF00BF00BFF1
:1025F00000BF00BF00BF00BF00BF00BF00BF401E44
:10260000F0E77047F8B52324CA4800571D4E3546F9
:1026100060351D4900282F4600DA0F4603F0F6FF0B
:10262000C449085D0C467F210140781826360622F1
:1026300031465BF73BFD22202146205C009021269D
:102640008C5D124809210422412359F7B1FA07464B
:10265000447010203870B81C294622465BF726FDCE
:10266000009ABA553846223007495BF71FFD3846B5
:1026700059F7B7FA0648074900F0EEF92021AD4AAC
:102680005054F8BDC025FD074026FD070E0D000083
:10269000B80B00000526FC07B0B5A648817D0129CE
:1026A00020D1C37D591E8B41017E002900D0072116
:1026B0009B01C57E804C002D07D001258D40A11CBB
:1026C0000B431D800A23002406E0234301242546F2
:1026D0008D401D807D218B00C476764811461A46B8
:1026E00000F00AFD0020B0BD70B59249087F0128B6
:1026F0000BD101235C024E7F0F480E4D012E0DD1F0
:102700006C8000234B770A230CE00120400209492A
:1027100008800948042159F7E7FC07E02C804B7733
:102720004B218B0011461A4659F794FC002070BDCE
:102730004425FD07423000501504000070B59A484A
:10274000092104241C23224659F732FA05461B208E
:1027500028702426304603F0B9F90121A9742C828F
:102760000021E981064AAA81FF2202322A816C6097
:102770006E806870A972284659F733FA70BDC0465A
:10278000AD270000B0B50446242040F758F80146B4
:10279000092080020422134659F70AFA00254570E1
:1027A0000470644C617D8170C57059F71AFA01207C
:1027B0002076FF210231E182617D002900D165751B
:1027C000A076144804210A2259F744FCB0BDC04643
:1027D0001FB5144606220292044A0192069A0092FC
:1027E0001A46234600F01CFB04B010BDB88DFC0750
:1027F00010B5144600F010F84E48827E002A00D032
:10280000034A0448214600F077FC002010BDC04672
:102810007017000013040000B0B501F013F804466F
:10282000444D687D84420FD2242040F708F80146C9
:102830001F480422022359F7BBF94470002101709C
:1028400059F7CFF96C752046A97D01292ED1194C75
:10285000062814D8E97D1848002900D040302A7E87
:102860000121002A01D10A4600E080220280E97697
:102870007D2082000421204659F7ECFB687D0D285D
:1028800014D3A87D01280BD1E97D0B48002900D085
:102890004030297E002901D1012100E08021018002
:1028A0000421204659F720FC0020E876B0BDC04640
:1028B00002240000140400000230005070B53A48B1
:1028C000092104241823224659F772F905461B20D2
:1028D0002870FD26304603F0F9F80021A982E9604E
:1028E00029616C606E806870284659F77AF970BD6E
:1028F0000120704780B50F48C17C032907D1017DB5
:1029000001290CD10021C1740175012080BD4A1C30
:10291000C2740C20484308490818406806E04A1C65
:1029200002751C20484305A10818C0688047002094
:1029300080BDC0464425FD07C08CFC07FD0000009B
:10294000388EFC070E000000BD28FC0700000000C8
:102950000000000000000000FF0000000000000078
:102960000000000000000000000000000000000067
:102970000000000070B50C48092104240A232246F7
:1029800059F716F905461B2028701426304603F027
:102990009DF8FF21743129816C606E806870284633
:1029A00059F71FF970BDC0461B0D00001FB5144636
:1029B00001220292044A0192069A00921A46234684
:1029C00000F02EFA04B010BDE88DFC0710B50446E7
:1029D00001020A3109480422022359F7E9F80C21BF
:1029E0006143074A5118372200238B541321417049
:1029F0000121017059F7F5F810BDC046040E000022
:102A0000C025FD07F8B500920D468100104A5658C2
:102A10005418002E0AD101020A310E4804271E2341
:102A20003A4659F7C5F8064607702060B71C1021D2
:102A300038465BF754FB38462946009A5BF736FB6D
:102A400001207070304659F7CCF800202060F8BDA6
:102A5000D41EFD07140E0000B0B500280FD00246AA
:102A60001248824212D823484430002423460A2BBD
:102A700019D00568002D10D0001D5B1CF7E78448B5
:102A8000C8210180834808210180FEE78048C821D1
:102A90000180804808210180FEE701605C1CE0B2F3
:102AA000114600F05FFFE0B2B0BDC046FCFF3F0042
:102AB000F8B50446401E09281AD8A0000D49471849
:102AC000386C002814D00C4DA84211D040370B4868
:102AD0002018401C0426314659F706FB3D600823A8
:102AE00006483146324659F763F8047059F779F8C9
:102AF000F8BDC0464026FD07A97AFC070204000085
:102B0000F0B585B0039302920E4607460020041DDF
:102B1000242C0ED004A900910A490D58384631469C
:102B2000029A039BA84700282046F0D104A8007809
:102B300006E038463146029A039B05F093F90020DF
:102B400005B0F0BD108EFC07FEB5064608050D0B5E
:102B5000002800D06D1C002D00D1012585480640BD
:102B6000FF2000241A4F0195AC422CD004F06AF9E2
:102B7000002828D104F0E6F9002824D1022004F02E
:102B8000FBF9012040070296304304F009FA0026C1
:102B9000104D04F09FF9C0070CD038880006F8D516
:102BA00028680004F5D40C4886420BD0761C59F7EF
:102BB00014FCEEE7029805490818461C641C002026
:102BC000019DD1E7FF2040B2FEBDC046FF0F0000CF
:102BD000080000503000004080841E00F0B585B031
:102BE0008A4206D2A848C8210180A848082101804D
:102BF000FEE70446101F02900492D01E019000913F
:102C0000C81E039000252846C7B20398874215DAEC
:102C1000F843049946183FF7AEFE010EA155A119DD
:102C2000491E020C0A700199C91B020A62540299DA
:102C3000C91B6054381D291DCDB2E5E70098401B23
:102C400001060023DE43002914D0754304990919B5
:102C500049194D1EC0B2C70003933FF78CFE039B7A
:102C600018217A18182A05D00246CA402A70AD19D0
:102C70000839F6E704980099411AC8B20919491EA3
:102C8000002803D00B708919401EF9E705B0F0BD8C
:102C90000031005002330050F0B587B015460E46A3
:102CA000049034480840884202D13046294608E062
:102CB000A9190A467240120B05D00122120380188E
:102CC000091AFFF741FF0024204604F055F92A486D
:102CD0008068871BAF4200D32F460120039000027B
:102CE00006903018FF218843411E019425463C463A
:102CF0000297BD423AD2A0198842059101D9881B9A
:102D0000441C04F09FF8002831D104F01BF900287E
:102D10002DD1022004F030F904F048F80398400661
:102D20000643304604F01EF8002004F025F9A0B256
:102D300006998842264600D3069E04984719300417
:102D400005D0387804F00EF8761E7F1CF7E704F003
:102D500025F804F0E3F8002809D106980599081829
:102D60006519029F7C1B4E1C0146C2E7019807B003
:102D7000F0BDC04600F0FFFF10C0FC071FB51446B1
:102D80000E220292044A0192069A00921A462346A3
:102D900000F046F804B010BD108DFC0710B50146D8
:102DA00001200A4A914210D3121D91420DD8029C73
:102DB000F231C8B28100064A5058002803D0511899
:102DC00000220A6080470020207010BD0E04000021
:102DD000C01EFD071CB52823744CE35C132B03D1E4
:102DE00001AB04F047F81CBD0020C0431CBDC04629
:102DF0001FB5144607220292044A0192069A0092D5
:102E00001A46234600F00CF804B010BD808DFC0774
:102E1000E0B504F069F801A803F0D8FF8CBD00000C
:102E2000F0B585B001250C9C002C20D001950291B5
:102E3000039304920B9B0A99E500ED18083D661C6C
:102E4000104B761E012E11DB2C462F88874203D0B3
:102E50002546083D9F42F4D16468002C0AD00D46F7
:102E600002AB0ECBA0472870002500E0019D28464C
:102E700005B0F0BD9A48C82101809A480821018018
:102E8000FEE7C046FFFF0000003100500233005053
:102E900070B50B480424092122460B4658F788FEDA
:102EA00005461B202870FC26304602F00FFE00214C
:102EB00029726C606E806870284658F792FE70BD6B
:102EC0001B0D00001FB5144604220292044A019211
:102ED000069A00921A462346FFF7A2FF04B010BDDF
:102EE000F08DFC07F8B504461C4840680F210140EE
:102EF000E171010F2171C1B20909A1710101090F2D
:102F000061710103090FE1700102090FA170010550
:102F1000090F61700004000F20700122009203224B
:102F2000150208230E4F2A46B847E179A0790026FA
:102F3000009607232A46B847E178A0780096062332
:102F40002A46B84761792079009605233246B8476A
:102F500020786178EC4A51721072F8BDC025FD07E7
:102F6000C121FC07F8B52824E74D285D032817D1B7
:102F7000EFF31087012686F310880D480188B143CE
:102F800001800C4801880C4A0A40028003F006FFC9
:102F9000002F02D086F3108802E0002080F3108812
:102FA00014202855002003F0B3FBF8BD4425FD078D
:102FB0000012005004000050FFF7000070B50C46EE
:102FC0000146049D4248814220D0424A91422AD083
:102FD000414881423BD12078401E092854D88000C6
:102FE000414909184A6C434B9A4269D03F48824292
:102FF0006BD13848042108230A4658F7D9FD2178B7
:1030000001706168416058F7ECFD5EE06268002A7B
:1030100048D0324882424CD220782E4940180421B0
:1030200059F718F851E02078411ECAB2092A32D85F
:1030300089002D4A5218536C2C4EB34245D144326C
:103040002B4B59581160616800F08CFC3DE0531C1B
:10305000012099423BD30A32914238D8C81EC0B2EF
:10306000411E8A0020498B18596C00292DD01F4C15
:10307000A1422AD01F4CA14227D044331C4C002629
:10308000A6501E60884720E0EE48C8210180EE4827
:1030900008210180FEE7EB48C8210180EA480821A9
:1030A0000180FEE7E748C8210180E7480821018048
:1030B000FEE7E448C8210180E34808210180FEE7DB
:1030C00044310B4A002313500B600020287070BD60
:1030D000010400000304000002040000FDFF3F00A3
:1030E00000310050023300504026FD07AB7AFC0748
:1030F000D81EFD07A97AFC0780B5002A00D101225D
:1031000058F7A8FF80BDFEB51C460D4606460027B1
:10311000002801D4384600E0012029460A394B42F4
:103120004B410340019300D07642002A01D0372062
:1031300000E05720029008980090304629465AF740
:103140003BFF29464143711A0A2901DB029A00E03C
:1031500030228918E1557F1C00280646EDDC0099D5
:103160008F4203D23020E0557F1CF9E701980028F8
:1031700004D02D20E055E019421C00E0E2190020A7
:103180001070101B4108521E002907D023781578B3
:1031900025701370491E521E641CF5E7FEBD000029
:1031A00083B0F0B5CAB006464F91509251934FACE0
:1031B000029403A8499001210D1A31782A18FF2A98
:1031C00073D825290ED17778B21C302F11D1117800
:1031D00000296AD03039CAB20A2A00D30021F77810
:1031E000321D07E0761C017000214170401C49909F
:1031F00057E0002104233B436C2B02D11778561C67
:1032000000E01646582F21D0632F3ED0642F25D0E2
:10321000692F23D0732F3AD0752F17D0782F15D060
:10322000002F42D049A803A925232CA2FFF74AF971
:1032300049982918FF2904D8077000214170401CC3
:10324000499049A803A902232EA228E001CCC9B2C3
:10325000752F0DD100910A2100220EE001CCC9B2D8
:1032600000910A21002243AF3B46FFF74CFF12E0DA
:103270000091583F7A427A41102143ABFFF743FF58
:10328000034649A803A943AA09E002CCABE780CCD6
:10329000384600F06DF8034649A803A93A46FFF7FF
:1032A00011F931784998002988D103A9441A012CD1
:1032B0000FDB2D4D2E78A019FF2802DD00F026F837
:1032C0002E782A48801903A922465AF7EFFE3019B2
:1032D00028704AB0F0BC01BC03B0004746415441DD
:1032E0004C3A20756E737570706F727465642070DF
:1032F00072696E7466206368617261637465723AA4
:10330000200000002E0A00004425FD07F8B51648ED
:103310000078401D032158F73DFB04460027054671
:1033200080C5114806781149284632465AF7BEFE34
:10333000AF550D4DEFF31081012080F310882A6DF9
:10334000002A06D013461268002AFBD11C602760B1
:1033500001E02C656870002902D080F3108801E03C
:1033600087F310882F70F8BD4425FD0700BFFC07C8
:103370000021425C491C002AFBD1481E7047B0B5B1
:103380000C460025202D04D03FF7F5FA60556D1C42
:10339000F8E70020B0BD002070470000F8B51E46D9
:1033A00015460C46104658F7B8FD002801D00226F5
:1033B00025E0242003F0FCFA07462620395C20781B
:1033C000884211D2617864290ED838188176012696
:1033D0002846314658F76FFD2720002139540C3C10
:1033E0007C6100F081F80AE00648012331462A4654
:1033F00058F7DEFB8121017058F7F3FB00263046B9
:10340000F8BDC0460324000000207047082904D2FC
:10341000006940180021417770477848C821018031
:10342000774808210180FEE7082904D20069401886
:103430000021417770477148C821018070480821F8
:103440000180FEE70031005002330050B0B5054660
:1034500004696069002801D058F717FB0020286133
:10346000204658F712FBB0BDF8B51E4615460C466F
:10347000104658F752FD002801D002262EE02420E5
:1034800003F096FA07462078082815D851F7F8FB7C
:103490001349884210D001262846314658F70BFDC3
:1034A00020783818617841772720002139540C3C66
:1034B0007C6100F019F811E04F48022331462A469A
:1034C00058F776FB21780170082902D87621C94384
:1034D00000E04021417058F784FB00263046F8BDDB
:1034E000FFFF000000207047FEB5242003F060FAC3
:1034F0004369002B22D006469F883E48874224D04D
:1035000009208002874230D100972720325C187B47
:10351000019037181D3734461A3418460E3002967B
:103520002736012A28D83D78D540ED0703D0A55C81
:10353000815CA9423DD1521C3270F2E72F48C8216C
:1035400001802F4808210180FEE72720305C3446A7
:103550001D3435462735072812D8215C1A7BD14007
:10356000C9071ED1401C2870F5E72448C8210180F6
:10357000234808210180FEE7029E009F019C00E095
:10358000FF241C4887421DD009208002874226D193
:10359000DA8819891848022358F70AFB0470411C7D
:1035A00018E0C1B2304600F017F92878401C2870A6
:1035B000FEBDD2B20298019900F00EF93078401C9D
:1035C0003070FEBDDA8819890B48801C012358F73A
:1035D000EFFA014600220A7058F703FB7369184698
:1035E00058F753FA0021716172889548104058F7D6
:1035F00062FCFEBD022400000124000000310050E6
:1036000002330050FEB5019202910546242003F0DA
:10361000CFF902462532078B2630002302990B7022
:10362000BEB28021AE421ED80478A3421BD2B11C88
:10363000A94210D21678DE40F60703D0491C8EB29C
:10364000AE420AD0022C03D3491C8CB2AC4206D045
:103650005B1C4F1CE2E7E81B02E0032000E00420B3
:103660000199087000210846FEBD0000F0B591B038
:103670000C910B90169F3878401E01287CD81D466F
:103680000792282401212046059158F783F9064620
:1036900021465AF724FD3878262170541E210695BC
:1036A00029407F22D24389180A9625360D96002498
:1036B00004253A4610AFC9B2089123460992002B5F
:1036C0005CD1C0B2844259D20E970FA80721017075
:1036D00016197078A0400D9B197801431970505B42
:1036E00051194A88120410188A88C9880A9B5851AF
:1036F00008048018591948607078012804D10FA86F
:103700000F2101701F2000E017200D994978022930
:1037100001D30FA908700C9800880E9F38800B9871
:10372000808A002100910190284802900898039017
:103730000FAA0523384626494CF75DFF03460028AB
:1037400014D171783888012901D1014600E0411E69
:10375000491D0C9A1180717801290E9F06D1801C99
:1037600080B21C491E464CF704FE3346BF1C083588
:10377000099A1078641CA2E7812421E0002B04D070
:103780000A981C4658F781F91AE010980C9908809D
:103790000B9A0A9B13610C49516018832420D08234
:1037A0000598D08118461C3090600698C003079990
:1037B00008431880908A58800024214658F77BFBE4
:1037C000E0B211B0F0BDC046B88CFC073C8CFC07E1
:1037D0000F1800000102000070B51446054640882D
:1037E000D34A0240C120000109020831092358F7D9
:1037F000DFF9064612203070242003F0D9F8262184
:10380000415CA1420FD901462531008B0022944230
:103810000BD00B78D340DB0701D0052300E0042355
:103820001818521CF3E7002000E0801C0121F180F1
:10383000B0802819807E3072304658F7D2F970BDBA
:10384000FF7F0000FEB50125E802334C21880143CB
:103850002180A803218801432180208828432080DB
:103860001420FEF7BFFE6802A080E08028032188B4
:10387000014321802088294908402080AE02FEF7BC
:1038800035FE218831432180EF43784355210D01D6
:103890000195B035401902902148461CFEF726FEDE
:1038A000A1883140029A1143A18078434019E188F0
:1038B00031400143E1802088184908402080208859
:1038C00018490140218000242046FEF721FE80B2E5
:1038D00001096E2901D964241BE0019A1146E031E7
:1038E00088420AD9000411494018BF215AF77AFBCF
:1038F000482141430C0C1C340BE0904209D90004D0
:1039000009494018E0215AF76DFB18214143080C82
:10391000041DE0B2FEBDC04600150050FFFB0000D4
:10392000FFFBFFFFFFEF00000000B0FA0000D0F93E
:1039300010B50446FD203EF782FF014608480422E8
:10394000082358F735F90221818041800121417017
:103950002178627812025118C18058F742F910BDDF
:1039600006FD000070B50C4605461949088800069A
:1039700018480ED5184A126812040AD4174A128839
:10398000D20706D14019801C0421224658F762FB59
:1039900070BDEFF31083012282F3108809880906B5
:1039A00003D40F490E8816430E80002B02D082F3F9
:1039B000108802E0002181F31088042108230A46C0
:1039C00058F7F6F84460057058F70BF970BDC0461B
:1039D0000800005001040000300000405877FD0747
:1039E000083300507047000070B514460D46064677
:1039F000FD2002F0DDFF002C0CD0002D11D0103086
:103A00000068002814D00179B142F9D141792980A8
:103A1000801D0FE0A348C8210180A3480821018030
:103A2000FEE7A048C82101809F4808210180FEE7E9
:103A300000202880206070BD70B515460C461046E9
:103A400058F76BFA002813D1FD2002F0B1FF0646AB
:103A50000848082106232A4658F7AAF8A188418079
:103A6000A1790171B18862885118018058F7B9F8BD
:103A7000002070BD180C0000FEB502920F460546EE
:103A8000FD2002F095FF0646103601973446246863
:103A9000002C0DD02079A842F9D16079B84214D019
:103AA0000022304621463FF7ADF8204657F7EDFF9C
:103AB00008370121384657F76DFF044639465AF753
:103AC0000EFB304621463FF749F8019A6271257195
:103AD000A01D02995AF7EAFAFEBD0000FEB5029158
:103AE000264D1435006901900127254E254C0E2FD7
:103AF0000FD03046F840C00708D028680088A042A0
:103B000004D1F9B20022029800F042FA14357F1C69
:103B1000EDE702200199085E65490140C20B029859
:103B2000000210400843002158F7C5F9FEBDC04609
:103B3000FF7F0000F8B50091072916D80F4D143506
:103B400001260F4F0F4C0E2E16D03846F040C007FE
:103B500008D028680088A04204D1F1B20022009861
:103B600000F016FA1435761CEDE74E48C8210180A6
:103B70004D4808210180FEE7F8BDC046388EFC079D
:103B80005A3500000229000070B505460469264632
:103B900010363068002805D030463EF7C3FF57F78F
:103BA00074FFF6E700202861204657F76EFF70BDCE
:103BB0007CB5FD2002F0FCFE8668002E2CD0044669
:103BC000407B6D4601AA2946FFF70EFF288808288A
:103BD00029D10C36227B0198072A2BD81146521C7A
:103BE0002273435C7578002D02D0DB07F4D001E02E
:103BF0009B07F1D5A068C288B388C12000010902E3
:103C0000083189B208339BB257F7D2FF0546707866
:103C100000281DD012201CE0F948C8210180F94875
:103C200008210180FEE7F648C8210180F5480821F7
:103C30000180FEE7A068C288018973781B48002BC9
:103C400018D0042357F7B4FF71880180811C19E054
:103C500013202870A08871880818A880B088E88090
:103C600028460830B288B11D5AF720FA284657F77F
:103C7000B8FF7CBD801C80B2062357F799FF71887E
:103C80004180011D00250D7057F7ABFFA06857F765
:103C9000FCFEA560618806480840294658F70BF9E4
:103CA0007CBDC046003100500233005007FD0000CB
:103CB000FF7F000010B50446FD2002F079FE8179F7
:103CC000A14202D98088001900E0002080B210BD16
:103CD000B0B50C460546FD2002F06AFE014682881A
:103CE0008020AA4206D889798918A94202D9A81A3F
:103CF00020700020B0BD0000F0B597B01E460292C3
:103D00000B9105462824012120460E9157F742FECB
:103D1000074621465AF7E3F9079504972F611E20BD
:103D2000019630403F21C943411803915F21C943A7
:103D3000411805917F21C9434018069000228F4FFA
:103D4000904E032A00D1DFE00798848A13A88A499D
:103D50000180511C8A480991415C0A92855C681C6B
:103D6000C2B20F929142129100D80146E84308185E
:103D7000C1B2182048431830032157F70BFE014603
:103D80000B980088088011914C80142420460895D7
:103D9000684330180279022A069903D0042A05994B
:103DA00000D00399119A11710169901D10225AF7E0
:103DB0007DF90F9D6C433619002710963C46281953
:103DC000129988424DD23079102816D0042826D076
:103DD000022842D11198C519B0890D90B0680C9095
:103DE0003068017840786876297628461A300E21A6
:103DF0005AF775F90C99080C2AE01198C51928464C
:103E00001830316810225AF751F9B0682885B18905
:103E1000A9850E99C9040143080C68851CE0119816
:103E2000C519B0890D90B0680C903068017842785F
:103E30008378C078E876AB766A76297628461C3097
:103E40000C215AF74CF90E9880040C990843000C89
:103E5000688529850D98A8850F9D14361837641C30
:103E6000ADE7119844714CF70EF804460028434F13
:103E700015D0119857F709FE0A98002803D10B981E
:103E800000880499888012980899401A0B9A118822
:103E900040181080002C099A3A4E6AD151E71198C7
:103EA00000880B99088000242646002CE1D1129846
:103EB0008542DED2761C0024022D20D0072D1ED094
:103EC0003148E840C0071AD11098C1893846E84007
:103ED000C00709D010980068027840780002801866
:103EE00013AA128890420AD0F0B2119A12881018C0
:103EF00080B2109A136900224CF79FF8044610987C
:103F0000143010906D1CD0E70E20049A9071FD20A3
:103F10000799C8820E9DCD811C484860888A5080D0
:103F20001046243088600198C0030299084310802D
:103F3000103210463EF7EEFD00241594149414360A
:103F40000E2D11D03846E840C0070AD00A48FF308D
:103F500031680988814204D1E8B2082114AAFFF728
:103F60008BFD14366D1CEBE70798808A214657F7C6
:103F7000A2FFE0B217B0F0BD032800005A350000E0
:103F80003CBEFC07388EFC07CE1C0000FC8BFC07F7
:103F9000F0B585B008281DD215460C46064604AF7C
:103FA00003AA08463946FFF71FFD3F88002F18D0A7
:103FB000039900291CD0009501AD28463A465AF7CE
:103FC00075F80098A855204639462A46FFF754FD53
:103FD00005B0F0BD4848C82101804848082101804B
:103FE000FEE74548C8210180444808210180FEE7DA
:103FF0004148C8210180414808210180FEE7C046B0
:104000000031005002330050FEB514460E46FD202C
:1040100002F0CEFC054687880096768801942046FB
:1040200057F77BFF012801D1022726E0F01980B263
:1040300001F0EEFC00280BD002A9FFF749FE002892
:104040000DD02D48C82101802C4808210180FEE7B1
:104050002948C8210180294808210180FEE701275D
:104060000198394657F727FF0020287300980C382D
:10407000A86002986873FFF79BFD3846FEBDC046F6
:10408000FEB514460E46FD2002F092FC05468788D8
:10409000009676880194204657F73FFF012801D10A
:1040A000022726E0F01980B201F0B2FC00280BD004
:1040B00002A9FFF70DFE00280DD00F48C82101808E
:1040C0000E4808210180FEE70B48C82101800B48FB
:1040D00008210180FEE701270198394657F7EBFEDA
:1040E0000020287300980C38A86002986873FFF7C6
:1040F0005FFD3846FEBDC04600310050023300501F
:1041000010B50C46FD2002F053FC80886188081829
:1041100080B2A188A31D002422464BF78EFF2046C3
:1041200010BD000070B514460D46104657F7F5FE59
:1041300001282FD1287801020831AA791648002ACF
:104140000CD089B20623224657F732FD0646A878DE
:10415000FFF7B0FD80213171308014E0AA8889B268
:10416000921D93B2224657F723FD0646A878FFF723
:10417000A1FD002131713080A8887080701DAA884F
:10418000E91D59F793FF304657F72BFD00212046D4
:1041900057F791FE002070BD140C00007047704767
:1041A00080B559F771FF80BD80B559F776FF80BDA6
:1041B000FEB52527984EF25D082A00D929E1062090
:1041C000042152007A449288520097441501080055
:1041D0009E00A500D100D800050176001601FDF76C
:1041E000BDFF8E4C802565807D20000103F034FCEE
:1041F00025808D4803F030FCFDF77EFE12208B4CAD
:10420000A047FDF779FE7420A0475420884DA847A9
:104210007E20A0473B200190A84701263046A047BA
:104220002B200090A8473046A84700242046A847E6
:104230002046A84711207D4988473046A84744209A
:104240007A4988472046A8473120A8474520774922
:1042500088470098A8473046A8472046A8472046E8
:10426000A8473C20714988473046A8472C206F4E0C
:10427000B0475020A8470320B0471520A847042086
:10428000B0474120A847A820A84732263046A84773
:104290003A20664988473020A847019863498847F3
:1042A0000A20A847304661498847624D462C0BD00A
:1042B000285DFDF739FE641CF8E75848C08FC00739
:1042C00000D095E0082092E0FDF716FE4E20FDF7A5
:1042D0001BFE00242046564DA8472E464F20FDF7D2
:1042E00013FE2B252846B047012630465049884703
:1042F00030464F4EB0472846B0472046B047464E5E
:10430000F05D401CF055464804622420FDF7FCFD9A
:10431000F05D411CF155811C414C256A092D23DCBF
:104320006F016762FDF7C4FF012020751920860127
:1043300020780028314600D101463A4CFF22204621
:1043400059F7C6FE092D05D14B208000C11B6430F2
:104350004843C61000F00EFA002E38D02078FDF742
:10436000E3FD761E641CF7E7F155002020623FE074
:104370002620FDF7C9FDF05D411CF155801C284C3D
:10438000256A092D33DC6F016762FDF791FF01207B
:1043900020751920860120780028314600D1014679
:1043A000204CFF22204659F793FE092D05D14B20C2
:1043B0008000C11B64304843C61000F0DBF9002EBA
:1043C00005D02078FDF7B0FD761E641CF7E7F649AE
:1043D000086A401C08620BE02220FDF795FDC4200E
:1043E000FDF7A2FD2020FDF78FFDF05D401CF0558C
:1043F0000A201149FEF730FBFEBD1020FDF784FDB9
:104400000120FDF791FD02A8FF2141700170FFF727
:104410008FFA0020F055FEBD4425FD070230005004
:1044200020C0FC07011FFD0788130000091FFC07BF
:10443000291FFC07B88FFC07B141FC077047704784
:1044400070B505460469261D3068002805D0304641
:104450003EF768FB57F719FBF6E700202861204676
:1044600057F713FB70BD0000F0B58BB01E460792E6
:104470000F460446109806900088089000210120FD
:104480000246092913D00325854009902046344669
:10449000089ECE403B46012737407E421F462E40B5
:1044A0003243264604460998801C491CE9E70A92D3
:1044B000802030439E210140A08A03911D49029132
:1044C0000190002000901C490AAA132338464CF79B
:1044D00092F80546002829D1089720270121059147
:1044E000384657F757FA09960646394659F7F7FD01
:1044F000266130461E3011496160A060089800882E
:1045000030830598E0811420E082A08A70800998A9
:10451000C003079908433080069800887083301DD7
:104520003EF7F8FAA08A002157F7C5FC28460BB0E1
:10453000F0BDC046908AFC070A1800009C8BFC075F
:10454000FEB5019302920C46142002F031FA27784E
:10455000082F14D80546418B008B3A4600F0F2F83C
:1045600000280ED060788D26802839D8082F0AD0F0
:10457000072F0BD0062F0BD1082809D030E0812659
:104580002EE082262CE0072802D029E0062827D337
:104590002E1D35462D68002D0BD02979B942F9D151
:1045A0000022304629463EF72DFB284657F76DFA84
:1045B00060780830012157F7EDF905466178083138
:1045C00059F78DFD2078287160786871A81D627890
:1045D000A11C59F76BFD304629463EF7BFFA00266D
:1045E000064802230199029A57F7E2FA21780170EE
:1045F000467057F7F6FA0020FEBDC04601140000D1
:10460000F8B514460D46104657F787FC012835D1FA
:10461000142002F0CDF90646077F418B008B3A4605
:1046200000F090F80090707F010208312A78144859
:10463000974212D16A7889B2931D224657F7B8FA89
:104640000746002038710098388068787880781D97
:104650006A78A91C59F72AFD09E089B20623224687
:1046600057F7A6FA074680203871009838803846F8
:1046700057F7B7FA0021204657F71DFC0020F8BD78
:10468000140C0000F8B50878082812D80C460B2541
:104690001BA6C04678440079400087441C041104DE
:1046A000070714171A0007251A4E14E00F25184E95
:1046B00011E02248C8210180214808210180FEE73D
:1046C0000A2515A607E0082518A604E006250F4EC2
:1046D00001E0072513A6AF1C174819463B4657F7BC
:1046E00067FA0746207838707D70B81C31462A4634
:1046F00059F7DCFC384657F774FA0020F8BDC0467D
:104700004469616C6F672053656D6900B0BEFC073A
:1047100085BEFC0795BEFC07312E302E302E302D85
:104720004C45000001D2008005000100123456FF04
:10473000FE9ABCDE000000000314000000310050AF
:1047400002330050B0B58BB2411C00200446092C46
:104750000DD01D46E540ED0702D0A24202D0891CD3
:10476000641CF4E7092A01D0481C00E0002080B254
:10477000B0BD0000F8B56C4C214632310A200B4D1B
:1047800000260B4F2A463346B847214628313220AF
:10479000084A3346B847412080004634064B21463C
:1047A0002A46B847F8BDC04620C0FC076490FC0705
:1047B000411FFC07489CFC077CADFC07FEB5514837
:1047C0005149FEF749F94421504B58522420195CB5
:1047D0003C221A54986F401898674D4C21462C3152
:1047E00003F064F92F20265CA08D4A4942182E2040
:1047F000205C431CD9B299420CD10C290AD8002E56
:1048000008D01F2E06D890B2434C0519032D01D3B2
:10481000CB2D31D3002702970096434E30463230DD
:1048200042A1464CA0473020394C225C3120235C09
:104830003046283042A1414DA8473320205C8000FB
:10484000424908180090072047434149CB19029973
:10485000C9B241433F48421846363FA13046374C23
:10486000A0472520294A115C002900D0FEBD012166
:104870001154FFF79DFCFEBD01930292AC00284B42
:104880001C5942024F0117433743BC4201D9234A06
:1048900085182A04940B1D593246FDF768FD07461A
:1048A0001F222A40E802000DE905090FFDF75FFD10
:1048B000381A401C1B490B59D9030A0F01210C243B
:1048C000651C0FD20125A5401D40E540012D01D0FA
:1048D0001D2500E01E2587B2BD4204D2401B641E88
:1048E000491CEDE70E21CBB214469A42019B01D33D
:1048F0000D4600E04D1E029A002C00D10D46029597
:10490000C7B289E770170000BD47FC074425FD07C3
:10491000C025FD076C07000033F8FFFF32F80000E8
:104920000CBBFC07DCB7FC0720C0FC0725642D2569
:104930003032642D25303264000000007981FC079C
:10494000253032643A25303264000000BAB7FC07E3
:10495000E1B6FC0786B6FC07257325732020E69890
:104960009FE69C9F2573000070B50C78A51E052D51
:1049700038D81C0A7D442D796D00AF4402223336AD
:1049800042507A2060433C4A151888787821685450
:10499000C0070ED0284671300C216143E64A5618F4
:1049A00031463931062259F781FB3820305C7721B6
:1049B00068540C206043E04908183F21002242540B
:1049C0003EE07A2060432C490818782100224254A6
:1049D0000C206043D84908183F2142542046FDF777
:1049E000F5FF2DE003F03EFA2AE07A256543224CDC
:1049F00060193A30891C172259F758FB605D042171
:104A00001CE07A2565431C4E70196130891C102406
:104A1000224659F74BFB705D2043705510E08B1C0C
:104A2000488A00280ED07A256543134C60191E3041
:104A30001C22194659F73AFB605D0221014361557A
:104A4000002070BD7A2666430B4CA519A81C1C22B9
:104A5000194659F72BFBA05D01210143A15507A081
:104A6000FEF79EFB112608A4012EE9D0A95D204681
:104A7000FEF796FB761EF7E7461CFD07200D0A2081
:104A80004C544B3A2030780025303278000000003A
:104A9000F0B585B00878072840D81C0A800001A22C
:104AA00010588746C54AFC071D4BFC071D4BFC07E9
:104AB0001D4BFC072B4BFC07D14BFC07D14BFC07D4
:104AC000474BFC077A206043434900250D540C20D6
:104AD0006043BC4908183F2101274754A0003F49C3
:104AE0000E18346F7036002C13D10A200343F520C2
:104AF0008343404804221E241946234657F758F89A
:104B0000044607703060801C3B49072259F7CEFAF3
:104B10006770204657F765F8356059E0A748C82107
:104B20000180A74808210180FEE7487803284FD874
:104B300078440079400087444001014628480190AC
:104B400001A9042241E07A266643234885194F785B
:104B50002F772846143008210A46FEF73FF8A81C94
:104B60000090102239461746FEF738F83DF703FF4C
:104B7000194B995D01220A439A556882204601F03B
:104B80000FF8297F0177698A4182E98AAA8A6B8BAB
:104B90002D8B058343838282C182801C00993A4613
:104BA00059F784FA204600F0FBFF57F71AF8A000E7
:104BB0000A490818002141670AE00AA001A90A462B
:104BC000E8C8E8C200E0891C10222046FDF71AFF61
:104BD000002005B0F0BDC046461CFD074425FD077A
:104BE00040E20100000102030405060708090A0B60
:104BF0000C0D0E0F140E0000308EFC0710B50C7853
:104C0000092C0BD04C78002C06D0F948C821018023
:104C1000F84808210180FEE703F024F9002010BDC8
:104C2000FEB51E4610460C4657F777F902285FD1AD
:104C30000294340A0C2060433F490F1836203C543C
:104C40003D463635FF2C5AD0372001210191395489
:104C500004200090032157F72EF9029A507A382148
:104C600078541088B886393711460A3106223846FA
:104C700059F71CFA7A206043304908187821475CBC
:104C80000A200643F52086432D482C233146009AFE
:104C900056F78EFF28214754019F014628314F7057
:104CA00056F79FFF2878FF2829D0264EB47720207A
:104CB000305CFDF7FDFE02994888082809D32428B6
:104CC00007D888880A2804D14B208000C9888142EF
:104CD00004D0C8201C49FDF7BFFEF0771BA0FEF7EB
:104CE0005FFA37771C4804210A2257F7B3F908E026
:104CF0000F48C82101800F4808210180FEE703F01A
:104D000003F82878FF280ED0144D08350026F0B29D
:104D1000002802D0032803D107E0296820468847ED
:104D20000C35761CF3E702F0EFFF0020FEBDC04615
:104D30000031005002330050C025FD07461CFD071E
:104D4000020E00004425FD073D67FC07636F6E6E91
:104D5000656374696F6E0A0015040000C08CFC075F
:104D600010B51C46104657F7D8F803281ED1200A64
:104D70000C214143DF484018FF21C186DC4CE07F15
:104D8000002803D0FDF794FE0020E07701F03EFC00
:104D900002F0BAFF002020773421625C012A03D19F
:104DA000605409483DF71EFD002010BDEF48C821A2
:104DB0000180EF4808210180FEE7C0460031005025
:104DC00002330050C025FD0711111111180A7A2273
:104DD00042430348801809787822815400207047A4
:104DE000461CFD0700207047F0B589B01D461446EB
:104DF000087802281FD001282DD0002839D1202082
:104E00003F490E5C2031491C01AF3846324659F704
:104E10004DF933460A3318482946224656F7C8FE4C
:104E20000446468000202070201D3946324659F73E
:104E30003DF920461BE010480A232946224656F732
:104E4000B7FE7D2101810021C180102181800821D0
:104E5000418002210AE0422029490E5A06480A23CD
:104E60002946224656F7A4FE46800121017056F7D6
:104E7000B8FE002009B0F0BD0B0E00000020704706
:104E800010B51946E1200001062356F791FE0024D3
:104E9000848044800121017056F7A3FE204610BD96
:104EA000002070470020704770B51D460C460878FA
:104EB00001280CD0002810D162882020104B1A54F1
:104EC000211D2033581CD2B259F7F0F803E0608856
:104ED00042210B4A5052002600E048260A20054392
:104EE000F5208543074804220223294656F760FE31
:104EF00046702178017056F774FE002070BDC046E0
:104F00004026FD070D0E000000207047002070476E
:104F100070B50C78641E162C1CD8C0467C442479CD
:104F20006400A7440D171A17171717171717170B31
:104F3000240B0B170B0B0B1717170B00002070BD62
:104F40004878002817D08948C8210180884808215E
:104F50000180FEE702F086FFF0E7487800283BD0AA
:104F60008248C8210180824808210180FEE74878F4
:104F70004428E3D138E0204D2C68002C26D11F486E
:104F8000092104222C2356F713FE04462860012031
:104F9000400220841A4820800026668020460A307D
:104FA000112159F79CF86684E683A6832020E076D9
:104FB0007A211448415AFB2900D3FB21E1847C214A
:104FC000405A1149884200D308462085204656F7AA
:104FD00008FE00202860B1E70420012156F76BFF8E
:104FE000FDF788FC0028A9D002F08EFEA6E7C04697
:104FF0000031005002330050401CFD07040D00003A
:10500000030A00006479FD074808000010B5104647
:1050100056F783FF002806D05448C8210180544821
:1050200008210180FEE706480921042201242346C5
:1050300056F7BEFD047056F7D4FD002010BDC046E3
:10504000020D0000BCB5104656F767FF01282ED1AF
:10505000FDF750FC00282AD00420022156F72BFF30
:105060002020002801D0401EFBE712A0144CA047CE
:1050700002F04AFE13A0A04764201C49FDF7ECFC97
:1050800044211B4D685201F0E7FE1A4840300121CF
:1050900049040C2201AB01F0EDFE0246019916A075
:1050A000A04701F02DFF65206875FDF7B5FB0020D6
:1050B000BCBDC04663726333325F696E69740A00B7
:1050C000A131FC076D795F6170705F6F6E5F646224
:1050D0005F696E69745F636F6D706C6574655F6D39
:1050E0006F6469666965640A00000000BD47FC07DB
:1050F0004425FD07C025FD07696D67686561646526
:105100007220726561643A25642C737461747573DE
:105110003A2564000020704700207047F8B51D460E
:1051200016460C46104656F7F8FE002813D1FD200F
:1051300001F03EFC07460C48042132460B4656F768
:1051400037FD290A0170E90A07D1B9882288511A66
:10515000418056F746FD0020F8BD0448C821018073
:10516000034808210180FEE70DFD000000310050DA
:1051700002330050FEB51F4600920C4602A90026DD
:105180000E7001AA16702088FEF73CFA05460D48FD
:1051900006233946009A56F70BFD21880180002D21
:1051A0000AD101A90978CA1E534253415A004280CC
:1051B000032900D003263546057156F712FD00205D
:1051C000FEBDC046180C000080B50878FE210140E5
:1051D000122901D1FEF7ECFC002080BD80B50878D3
:1051E000122801D1FEF780F9002080BDF8B51D46D8
:1051F00014460E46104656F790FE012817D0002898
:1052000044D10095142001F0D3FB418B3288038BED
:105210005D1C0023092B2DD00F46DF40FF0704D073
:10522000AFB27F1C974204D0AD1C5B1CF2E7022496
:105230002DE0DFB2082F1DD8051D2D68002D28D0C8
:105240002979B942F9D16879831DC5480099224668
:1052500056F7AEFC07463088388000243C716879E8
:105260007880781D6A79A91D58F720FF384656F7CF
:10527000B8FC0CE0BA4806230099224656F798FC81
:10528000318801808021017156F7ABFC0024204653
:10529000F8BD0777009B190A41770088B14A0240A0
:1052A00000B2C10B1940FF2081431143064801257C
:1052B00022462B4656F77CFC077056F792FC204698
:1052C000294656F7F8FDE1E702140000FEB51E4638
:1052D00015460C46104656F720FE002807D02846F3
:1052E00056F71BFE401E414241414800FEBDFC20D6
:1052F00001F05EFB2388817902AA002717800197BD
:105300006A461780591AC9B2132907D00D2910D13E
:1053100002A902220A800A30019008E002A80221B4
:105320000180300A4CF709FC694608800191082089
:1053300007E002A901AA18464AF773FF0746029838
:10534000801D83B2864831462A4656F731FC054611
:10535000208828802F7102A802886A80002A03D042
:10536000681D019958F7A2FE284656F73AFC00201E
:10537000FEBDC046F0B585B0029316460F4604A99F
:1053800000240C7003AA14703888FEF73BF9054618
:10539000242001F00DFB0190002D10D0A31D7048BA
:1053A0000299324656F704FC398801804480057121
:1053B000002D0FD056F715FC002005B0F0BD03A856
:1053C00000780025022815D0042815D0032815D10F
:1053D0000224E3E7029F03A90978042911D00329D5
:1053E00023D00229E6D104A90978019A5118897EAF
:1053F0004171DFE70124D1E70724CFE780250024AE
:10540000CCE704A90978C900019A51180A7A4271B7
:105410004A7A82718A88C271120A02728A7A427248
:10542000C9888172090AC172C4E7390A019A511800
:10543000497F0022827104AA1278D14001220A40D9
:105440004271B7E7F0B587B01D4614460E461046C8
:1054500056F763FD002801D0022067E0FD2001F02F
:10546000A7FA029004A900270F703088FEF730FCDD
:10547000024603A80780002A16D0BB1D38482946DB
:105480001546224656F794FB0446308820806780F4
:105490002571002D04D1601D03A93A4658F706FE78
:1054A000204656F79EFB40E0029F280A019004A880
:1054B00003789D48D840C0071ED0142058439B490C
:1054C000085800882549884216D1019F082F2FD2FD
:1054D000029206AF05AA18463946FEF785FA3888C3
:1054E00000282CD00598002830D00199405C03A9F1
:1054F00008800227029AC0E7388800B28D4901402F
:10550000C00B0540FF2085430D4317481E4604236A
:105510002946224656F74CFB46800199017056F702
:1055200060FB0121204656F7C6FC002007B0F0BD05
:105530007B48C82101807B4808210180FEE778482C
:10554000C8210180774808210180FEE77448C821FE
:105550000180744808210180FEE7C046022900004E
:10556000140C0000FF7F000004FD000000207047C5
:10557000F0B595B0099315460C46FD2001F018FAD8
:1055800006460CA900270F702088FEF7A1FB0146F4
:105590006088002806D06248C8210180614808213F
:1055A0000180FEE70897079600292A46264676D10D
:1055B0000998000A05900CA803785B48D840C007FA
:1055C000049330D014205843584908580088584C48
:1055D0002146FF31884226D1029208980B900A900A
:1055E0000396368830464AF79FFC0246069091881B
:1055F000B0B2884261D3D18888425ED837460DAEBA
:1056000031464AF7B0FC002300930FA910AD304695
:105610002A464AF79BFD069A28887E1EA042E6D1BC
:10562000791C039E4BE01446002511951095308897
:1056300010A94AF798FC08201099085E294600280E
:1056400006D47288B1883088B31D4AF7F6FC01464B
:105650002246080623D10798008800B21446E94A7A
:105660000240C10B09980140FF2081431143B088DB
:10567000801D83B23048224656F79AFA0546801DAF
:10568000B288B11D58F712FD04986880B08805995A
:105690002970A880284656F7A4FA22460021DB4844
:1056A00004230C46099956F783FA847031880180E7
:1056B00056F797FA002015B0F0BD039E089908042C
:1056C00014D088B210A900240AAB22464AF7D1FEB2
:1056D000B088022811D1F28810A8407880070ED433
:1056E00002201043022818D100210FE00C48C821E5
:1056F00001800C4808210180FEE70D210EE0022AFE
:10570000214601D37E20C143012A07D805980C46C3
:105710000499FEF73DFC214600E08121029A98E7BA
:1057200000310050023300505A350000388EFC071B
:1057300003280000FF7F00000AFD0000F0B585B0DF
:105740001E4614460D46104656F7E7FB002807D0C4
:10575000204656F7E2FB401E414241414800E3E04B
:10576000AA48042331462246029356F721FA0746F7
:10577000FC2001F01DF904468020B87029880497A8
:105780003980A279891AC9B2891E0B2938D8370AFB
:105790007944097949008F4405333633333366330E
:1057A0008E3333BB6A88A98828880397AB1D4AF7D4
:1057B00044FC049FB87020889249014000B2C00B9D
:1057C0000640FF2086430E433F208002FC22082330
:1057D000314656F7EDF9044603984FF751FA002188
:1057E00061602080687A00066060297A09040818E0
:1057F0006060E979090208186060A97901222EE049
:10580000049FB8708CE06A88A98828880397AB1D2C
:105810004AF713FC049FB87020887A49014000B20F
:10582000C00B0640FF2086430E434248FC2208235B
:10583000314656F7BDF9044603984FF721FA002187
:1058400061602080687A00066060297A090408187F
:105850006060E979090208186060A9790222A270E3
:105860004018606050E06A88A98828880397AB1DBB
:105870004AF7E3FB049FB87020886249014000B2F8
:10588000C00B0640FF2086430E432848FC22062317
:10589000314656F78DF9044603984FF7F1F9002188
:1058A000A1802080E8790002A080A9790322A2705B
:1058B0004018A08028E06A88A9882888AB1D019339
:1058C00003974AF7BAFB049FB87020884D490140FE
:1058D00000B2C00B0640FF2086430E43A888001D7F
:1058E00083B21348FC22314656F762F90446039806
:1058F0004FF7C6F92080201DAA88019958F7D6FBDA
:105900002879E0700298A070204656F76AF907E0FF
:10591000A879E9790022049FBA7009020818608109
:10592000384656F75EF9002005B0F0BD02FC0000D5
:1059300003FC000001FC0000F0B587B01F461446D0
:105940000E4606A90020087005AA04901070308841
:10595000FDF758FE05463946002846D101A852C039
:10596000242001F025F8034605A8007880250328A7
:1059700017D13E0A03998879C9790902081880B2BB
:10598000002810D032460128029C039E01992CD198
:1059900006A800780121814016469818427F0A43E4
:1059A00008E0029C1FE006A80078012181409819B8
:1059B000427F8A434277188800B212490140C00BE7
:1059C0000740FF2087430F430F481D4602233946F7
:1059D000029C224656F7ECF80670A919497F4170DF
:1059E00056F7FFF8049D039E0199084804232246B8
:1059F00056F7DEF885703188018056F7F2F80020FE
:105A000007B0F0BDFF7F000004240000160C00006A
:105A1000F0B58BB004464AF787FA024602909188A7
:105A2000A0B20026884223D3D188884220D803948C
:105A300004AF39464AF797FA0026009606AD07AC40
:105A400038462946224633464AF780FB0A4B2878D7
:105A500021881A46FF32914201D1022807D099428B
:105A6000039C01D1022803D0641C029AD7E7039E4D
:105A7000B0B20BB0F0BDC0460328000070B51149AC
:105A80000A88088801242043088008881E23984338
:105A90000880A5020C4845800525058005886D070E
:105AA000FCD480880D8814262E430A25AE430E8030
:105AB0000D88A5430D801A400C889C43A2180A80CB
:105AC00070BDC046220000500016005010B51321D2
:105AD000C943074A002909D0531860241B5D891C5B
:105AE0008342F7D150185F21405C10BD042010BDE7
:105AF000C025FD07F8B5254FBC68204643F7CFF910
:105B0000324EF16D0022F2650D181549284658F7FE
:105B100053FA7861134941434919192000010029BA
:105B200002D0411AE13189B23961396808220A4349
:105B30003A60716E002911D08C420FD90A4A12784E
:105B4000002A0BD1327B002A00D11046611AB26DB7
:105B50008918891D814200D30146B165F8BDC04650
:105B6000710200008FFDFFFF1CC0FC0780B50648D6
:105B70000021016001F0D4F80120C00703490A6840
:105B800082430A6080BDC046AC76FD07300000400D
:105B900080B543F784F980BD80B543F771F980BDC6
:105BA00010B501468000094A1418606F002800D023
:105BB00010BD743409020A31054804221E2355F72A
:105BC000F7FFFF2108310180206010BD4425FD074B
:105BD000140E000000B59DB0FE49C8201B9008823D
:105BE000002019904882FC48082116910180FB484A
:105BF0000088C046C046FA4A01200E90D071F94D87
:105C0000288807211391884328800F200302052646
:105C10003407608DFF211791D23118912F311491E3
:105C200008420CD01846FF3029880140700308183C
:105C300028802888402101433820814329806088BA
:105C40000028159300D1E8489087618C0E9B19437A
:105C5000618419991C911C99142902DA1C99491C18
:105C6000F8E761890E9B19430223109399436181E0
:105C700061894906FCD5608019981C901920800123
:105C80001C99814202DA1C98401CF6E71A9660893A
:105C900003210F918843608160890006FCD5608CE8
:105CA0000E9988436084D14B199E1E60608A4025FE
:105CB00028436082608A1295A84360825E61CC4866
:105CC000986208041190D862208880273843208089
:105CD0001C961A9D1C98632803DC1C98401C1C9081
:105CE000F8E70E98C14B1860C2480088C249888402
:105CF000C24800680862C2480188D187408812996A
:105D00005052199A1A60608A08436082608A8843F8
:105D100060825A61B64898621198D86220883843E8
:105D200020801C921C98632803DC1C98401C1C904B
:105D3000F8E7AE490868139EB04308602088B8436E
:105D40002080B048B04958F7CAF96902AF4858F7FF
:105D5000C6F9FBF798FEAE48AE4930220D9258F7CF
:105D6000A5F9AD48199A0270AC48AD490160AD483B
:105D7000AD490160AD49AE480860AE480A210A91BC
:105D80000170AD480270AD4832210170AC48056029
:105D9000AC4829460E9D0560AB480160AB48062122
:105DA0000B910160AA480660AA48169E0660280268
:105DB0000C90801DA8490860A8490860A84891492E
:105DC000016000F0E5FC28463CF7DBFD20890D99D9
:105DD00088432081208938432081208928431099D5
:105DE00088432081208930432081208C38432084BF
:105DF000608AB04360822089129908432081208AFA
:105E0000042188432082A08A8007FCD5208C0E992B
:105E1000084320840803618DC9000140208C914A09
:105E2000024050182084208C2821099108435021D9
:105E300088432084208C0B9908432084608A16991B
:105E400008436082208CB8432084208912998843BB
:105E50002081608D1499084202D062481A994180CD
:105E60000E9A960730688049084030603F20400213
:105E70007E4D2968814350031390081828607C48A0
:105E8000401C296801432960754800683CF712FAF4
:105E900030680C9908431A9630607648199E06714E
:105EA000C6704C4A1088149089202081139828804D
:105EB00020883843208020880F99884320801088CC
:105EC00010990843108000F055FE3CF779FD3CF72F
:105ED0007DFD1CA806801CA80088902804D81C986A
:105EE000401C1CA90880F6E7634A10880890508877
:105EF0000790624B98880690D8880590D0880490C7
:105F0000508B03905E480088029018880190199980
:105F1000118051805B4898801898D880D180C32028
:105F20001880594A169810801CA801801CA8008867
:105F3000902804D81C98401C1CA90880F6E71CA8CF
