:0200000407FCF7
:10000000F8E0FC072505FC072D05FC074505FC0766
:1000100000000000000000000000000000000000E0
:100020000000000000000000000000005D05FC076B
:1000300000000000000000005F05FC073524FC07FD
:10004000911DFC07F96CFC071D27F0073924FC07FC
:100050003922FC076305FC07851DFC076305FC07C7
:100060006305FC076305FC074921FC075321FC07D6
:100070005D21FC076721FC077121FC076305FC0774
:10008000CD24FC076305FC076305FC076305FC073B
:100090006305FC076305FC076305FC076305FC07B4
:0200000407FCF7
:100510000348854601F012FC00480047D15BFC0708
:10052000F8E0FC070F4880470F4800470420714659
:10053000084203D0EFF309800C490847EFF3088025
:100540000A49084704207146084203D0EFF30980A6
:1005500007490847EFF3088005490847FEE7FEE72B
:10056000FEE7FEE7D586FC071105FC074922FC07DC
:100570002122FC0770B50E4604460022032151F7E4
:10058000EAF9054652F7B6FB6880284651F7F4F9B8
:1005900052F7B0FB7188884200D3084601462046D6
:1005A00051F7D1FA002070BD0246FF4B92009A58D5
:1005B0000120126900290ED0517F5E239B5C002B25
:1005C0000BD0052906D1517E090702D5917C090778
:1005D00000D400207047917DEFE70229F9D004296B
:1005E000F7D00529F6D10020EDE7024630B593009B
:1005F000ED4A0120D2581269137DD47E157F234025
:10060000547D2C40012901D0022909D1957C527ECC
:1006100015402A0704D41A462243D20700D10020ED
:10062000032901D0042904D1590702D4610700D459
:10063000002030BDF8B514460D4610465BF76DFC42
:10064000240A002830D0D949A2008B5801271E8BDC
:10065000BF023E431E83132826D0142824D0152819
:1006600011D088582D210A5C0123D10600290CDA0B
:100670000146A0318E7D002E07D08B753D2120468E
:1006800045F7B8FE10E00220F8BD110703D50021A0
:10069000A0308175F7E7A0308375204643F7A4FBAF
:1006A0002946204643F7E3FB0020F8BDFFB581B0A3
:1006B0001546170A10465BF730FC002838D013287F
:1006C00036D0142834D0290A8C00B84E152815D0FD
:1006D000FF20294603305BF707FD30592D21095CC7
:1006E000C90603D5A030C07D00280ED03D026D1C88
:1006F000A8B25BF712FC19280CD00FE03059012189
:10070000A030C175022005B0F0BD3D21384645F747
:1007100071FE0DE0A8B201215BF7CDFB305901223B
:10072000018B5202914301833846029943F79FFBA4
:100730000020E8E7F0B59D498700C95900268031BF
:100740004A8C8B8C1B2A00D21B228C8B944200D2A9
:1007500022468A849A4200D001260B8CCD8C1B2B1A
:1007600000D21B23CC8B9C4200D22346CB84AB42CD
:1007700000D001260B8ECD8D9C46FF2349339D4230
:1007800001D21C4600E02C460D8DA54200D3254623
:100790000D86654500D001264C8EA4468C8D9C426A
:1007A00000D21C464B8DA34200D21C464C866445A9
:1007B00000D00126EB080B3B9BB29A4200D21346B5
:1007C0008B86522379495843794BCA591C68803229
:1007D0000419D28C8034E285C9591A688031801896
:1007E000498E803001863046F0BD10B50446714810
:1007F000008D8007800F012800D000206071002844
:1008000007D057F7F3FE01460622A01D5DF74EFC08
:1008100010BD06226849A01DF8E770B50546002402
:1008200042F7A9F82855641C082CF9DB70BDF8B50F
:10083000022707700126044646700D4688795F49F5
:10084000C96988472A210855287900210007000F27
:10085000A07003005DF77EFC07050709100D100B63
:100860001000A1700AE0A67026E0032002E0A77045
:1008700004E00420A07001E001281DD0A888000A2F
:10088000801FC0B2A0721F2800D9A172284642F76B
:1008900027F9811D2046A27A0B305DF707FC284618
:1008A00042F71EF901460622201D5DF7FFFB28795D
:1008B0004006C00FE070F8BDA172F0E7F7B54468DC
:1008C0008CB02546243503950546074624354CF75C
:1008D0001BFA06464420405B5221484334490968CC
:1008E0004018C0304089694608840121384647F7DE
:1008F0004AF94CF77EF809900E9800698088000A42
:10090000C1002F480818298940182D495B315DF72F
:1009100053FB01466868039D4718403528890690B7
:100920000090A0680099381A400140095DF744FB27
:100930000A910098C019401A400140096946A06018
:10094000098C4900C919891C49014909884204D206
:100950000699401840014009A06001460998081A0C
:10096000400118494009884215D900202B89A26806
:10097000401CD21852015209A260EA89521CEA8135
:10098000A368099A9A1A520152098A42EED801B212
:100990000D9847F799F9A1680998081A4201607DF6
:1009A0005209824221D80FE02C7EFD071879FD07FD
:1009B0004C76FD074C7EFD07CF79FD07B47FFD0720
:1009C00016020000FFFFFF032A898918490149091F
:1009D000A1602A890A99511A814206D901210D98EC
:1009E00047F772F9E889401CE8812989A0685DF71A
:1009F000E3FAF1802889B080208A3081A88870814C
:100A00000020B081C807C00FB073A88852214843A6
:100A10008E30308230464CF782F903984663204688
:100A20000FB0F0BDFFB5002093B006460124FE498B
:100A300049680A7821460C2A0CD06A4611730022B4
:100A40001192002E09D015990291169D1F2D54D98F
:100A5000402052E000242246119413990291149DE3
:100A6000F4E7029989184978012905D0172903D09C
:100A7000182901D0192912D1631E04E003AFFF5CCD
:100A80008F4204D05B1E5BB2002BF7DA03E0002B31
:100A900001DB4A2003E003AB1955641CE4B20B00F0
:100AA0005DF758FB1D2610101010101010101026A6
:100AB000262626262626262626262626101010102E
:100AC00010102600119B03E00BAFFF5C8F4204D097
:100AD0005B1E5BB2002BF7DA03E0002B01DB4A2040
:100AE00006E0119F0BABD9551199491CC9B2119160
:100AF0000299895C521C89188AB2AA4201D2002844
:100B0000AFD0AA4200D04A20761CF6B2022E01D203
:100B1000002894D017B0F0BD10B50022134607E0AE
:100B200084186478012C07D0845C521CA21892B2FD
:100B30008A42F5D3184610BD80188378FAE7F0B5DD
:100B40000646A9B01546002084006318DA789F781D
:100B500012025B783A4352BA1B041A430B5D072416
:100B60001B061A43231A9F0020AB401CDA510828A9
:100B7000EAD300218A0090190746C37880781B02C7
:100B8000034378785BBA00040343B05C10AA000604
:100B90000343601A800013503846223043780078AF
:100BA0001B0203433846203047785BBA3F04007885
:100BB0003B43000603430F27781A8000491C13505B
:100BC0000829D7D35CF706F9014630465CF77FFD6C
:100BD00000282DD05CF7FEF8034620AA10A968462D
:100BE0005DF780F900226846A11A8B009600C75C69
:100BF0007119CF70C75A3F0A8F70C7583F0C4F709A
:100C0000C35820311B0EAB550F239B1A9B00C65CAB
:100C1000CE70C65A521C360A8E70C658360C4E70AC
:100C2000C3581B0E0B70082ADED3002029B0F0BD7C
:100C30000120FBE7F7B500251746064641232A4663
:100C400029460A205AF7B4FF0446002E10D0012E80
:100C500002D0022E0CD105E02022611C002041F7B9
:100C6000A3FE04E0621C3946019841F74DFE207056
:100C700020465AF7B6FF2846FEBDF8B56B480090EF
:100C800007680C46002F7BD005461C35287E0028BF
:100C900076D0012802D0022872D102E02078002804
:100CA00019D038896249002688423AD107204BF78B
:100CB00023FC002835D042233E2200215D485AF70C
:100CC00077FF082101702178002913D0032141709A
:100CD0002178817043E055480226611C14302E763D
:100CE000202204465DF7E2F922465349304641F797
:100CF00015FE45E0002146701F22531A1B194718A4
:100D00005B78491CBB702029F7DB00213F22531A76
:100D100047181B1920375B78491CBB702029F6DB6C
:100D20001DE043493889491C88421AD108204BF7F5
:100D3000E3FB002815D022233E2200213D485AF72C
:100D400037FF09210170217800291BD01221417041
:100D50000021FF224318491C9A702029FADB4DF725
:100D6000D7FE2E7640205BF7A6FB009841F7DAFE0F
:100D70005AF761FF00980068002801D041F7C9FDCB
:100D80000020F8BD002146701F22531A1B19471876
:100D90005B78491CBB702029F7DBE0E770B5087869
:100DA00000250C46012809D01D2810D02B2812D070
:100DB0004022194655F7BCFE284670BD5BF765FA20
:100DC0001948012504601D4857F745FAF4E71C4807
:100DD00041F708FDF0E71B4801680029ECD101212B
:100DE0000160194841F704FEE6E770B5104D174C55
:100DF000223DAB422ED10F4809232A460021C01EB6
:100E00005AF7D6FE044608221149401C5DF74EF9F8
:100E100020790821084320710025257020464DF7D0
:100E200077FE284670BD00004C7EFD07287AFD073E
:100E3000252000000408000089E7F107030C0000EA
:100E4000C3C3C3C35077FD07CC7DFD070DC3F007B7
:100E50005CE5F107A047E5E7F1B584B00498FF49E8
:100E600080000C5804980502A81D0290002C15D093
:100E70006068818804290CD34188861D0C38009154
:100E800001903146049857F7BCFFF549884206D1D6
:100E900060680C385AF7CFFE0020606033E4F178C8
:100EA000B2780F02019928431743C880384640386A
:100EB0003F2819D803223946049854F729F8060028
:100EC000E6D0B07B0128E3D13420B07329460A3143
:100ED0000423E448029A5AF76BFEB189418010213D
:100EE00001705AF77EFED3E7616834200870022152
:100EF00000985AF74FFD05463146009A5DF7D6F83F
:100F000068782978000208436168C880E878A97881
:100F1000000208436168062F08810BD0042F09D016
:100F20006068052F10D00C385AF785FE28465AF70E
:100F3000ACFDB1E760688188052913D329798172F6
:100F40006168287988720DE0818805290AD329799A
:100F5000817261682879887260688188062901D366
:100F60006979C17260685AF73CFEDFE7FFB587B068
:100F70000E4609985AF7D1FF0999090A03910028EA
:100F800076D08800B54905900D58B749B079096BFE
:100F90000A225043B478081841F7A2FD019068680E
:100FA000002808D0012C2DD00398FFF755FF686862
:100FB000002802D026E0022C5AD1B088012702284E
:100FC00005D30198417800780C02044302E051F700
:100FD00091FE044651F78EFEA04201D20224002762
:100FE00020464C3083B29E49A048099A5AF7E0FD4A
:100FF000241D68604480002F01D0002000E03420D0
:101000006968087068680028BAD0811D0091B288AC
:101010000199841C071D01928088238882189A42B6
:1010200009D8009A8018019A5DF740F8398801982C
:101030000818388009E01A1A009BC0185DF736F8C6
:1010400020883880696834200870388804280FD3D5
:10105000009841780278080210432188001D8842D8
:1010600007D280B220803988814207D9388002E0D7
:1010700068E0884202D9696834200870388821887D
:1010800088425FD1686800990C380190039857F73F
:10109000B8FE69680978002951D1714988424ED05B
:1010A00003990F0201993843C880208802210190DA
:1010B0005AF770FC0490228800995CF7F7FF0498B7
:1010C00000283FD0696800208880019802226B4682
:1010D000039907C36868049B821C011D801D41F7AA
:1010E000D9FB6968087004985AF7CFFC6868418892
:1010F000002902D00178002954D0018940393F29C4
:1011000044D8017830291ED00146544A05980C393C
:101110001058083041F722FD69680398891D41F78E
:10112000CAFB4628686801891FD00322039853F739
:10113000EFFE00282CD0808A00282CD028E00398CD
:10114000FFF78AFE42E04A49098D0906C90F07D018
:1011500048490C380968099A898D89B25AF75EFDA9
:1011600068680C385AF767FD12E00322039853F7BA
:10117000CFFE04000CD039460A3104233948099ABD
:101180005AF716FDA1894180102101705AF729FDF7
:10119000002068601AE0686800220189039841F71E
:1011A00085FBF5E70189084640383F280ED8032221
:1011B000039853F7ADFE002808D0808A002805D197
:1011C000686800220189039841F770FBB07941F704
:1011D0007AFC00200BB0F0BDFFB58BB00646169828
:1011E0000027022821D00D980188149881427DD3D0
:1011F0007188084640383F2802D8159853F7C9FE31
:101200000C98361D0088149A80190E995CF74EFFD1
:101210000C980188149808180C9908800D9801887A
:101220001498081A0D99088069E100200E9D079016
:1012300069782C78090221433180E978AC78090279
:10124000214371808C46403904242D1D02460346FB
:101250008E46402900D3287861460DE0AC7DFD071D
:10126000FFFF0000260E0000E078FD07010A0000E5
:101270004C7EFD075876FD0704291FD0052914D0A0
:10128000062918D070463F283ED8159853F781FE9E
:101290000006000E04D0FC48008D0006C00F31D0BF
:1012A00002230120F94A002712E0697800290FD0B3
:1012B000F74A17230CE0F74A0F2309E0522802D01F
:1012C000D22802D002E0142000E01520F24A1F23A9
:1012D000002A7DD098427BD28000105804900028CC
:1012E000F7D0002008900590708800E006E14038B3
:1012F000402803D32878052430716D1C701D0090A0
:101300000498AFE03027EDE03327EBE0522864D0BB
:101310000CDC4B283FD004DC41286AD042285AD14B
:1013200011E04C2820D0502855D140E0632830D01F
:1013300004DC572818D061284DD19BE06C2864D07C
:10134000772848D109E00098297801700098641C3A
:10135000401CA4B26D1C009081E00498401C0490D5
:101360000178089881427AD10098A41C401C410859
:101370004900881C009068782A7800021043088091
:101380000599AD1CA4B2002969D0089000200590F1
:1013900065E00120FBE71022294600985CF786FEF5
:1013A000009810341030A4B21035009057E0204659
:1013B00040301499039088420DD840222946009865
:1013C0005CF774FE009840300090039884B200E00F
:1013D00079E0403543E0342741E00822294600986F
:1013E0005CF764FE009808340830A4B20835009019
:1013F00035E00622294600985CF758FE0098A41DA7
:10140000801DA4B2AD1D009029E01498001B80B28D
:1014100003903088001B001D81B2012007900498C2
:10142000401C04900098401C400840000090049824
:10143000007857281CD04228CDD100980170090AA5
:10144000417000982946801C0090039A5CF72EFE9C
:1014500003980399201884B20098401800900498CB
:10146000401C04900078002820D0002F19D01DE0E7
:101470004908E2E71498001B80B203900098039A91
:10148000401C41084900012000910790294600981E
:101490005CF70CFE03980099201884B20398081892
:1014A000DCE70D990988A14200D32FE70D98008849
:1014B000A04208D304990978002904D1079900298A
:1014C00003D1A04201D034270CE00D99001B088005
:1014D0000C9801880098801B001F08180C99002F99
:1014E00008800CD07088042809D0062807D040381E
:1014F000402804D30E984079707100E034273846B4
:101500000FB0F0BDFFB581B01F4616460C46104621
:101510005AF703FD00253F2802D02189062908D06B
:101520003B4632462146019854F7BFF80546284607
:10153000B4E4000701D50225F9E720780028F6D1A8
:10154000300AA11D41F7C1F8F1E7F3B581B0019868
:10155000524C850060590F464068CE8801462431C0
:10156000009146F7E3FE00994D4A40310091C98948
:10157000701A80B2904214D2B14212D060593146F2
:10158000406845F78CFF60590522791C1F305CF7D5
:101590008DFD019805210002401C80B25AF78BFC9A
:1015A000FEBD60590522791C1F305CF77FFD009855
:1015B000808841F767FFFEBDF8B53A4C06468500C6
:1015C0000F4660594821095C24290ED10069102278
:1015D000791D2E305CF76AFD615925204031087273
:1015E00000221146304652F739FE60594821095C05
:1015F0000C291FD100691022791D2E305CF756FD91
:1016000060595F210069095C09072DD401462E311C
:1016100010221E305CF76EFD00280CD060590921A5
:1016200040300172304653F737FB01460022304606
:1016300052F79FF9F8BD0421684601706A460521FA
:10164000304652F741FB6846017860200143684606
:101650000170304653F720FB0146684602780123AB
:10166000304652F79BFAF8BD304653F715FB012878
:101670001AD06059072140300172002211463046CD
:1016800052F7ECFDF8BD00004C7EFD0714F3F107A6
:101690001CF3F10778F3F107B4F3F1071879FD07AC
:1016A000FF7F00002C7EFD07615900200969C031D1
:1016B000887160590421026930461E3252F704FBDA
:1016C000605901694031897F002907D01A214030D3
:1016D00001720021304652F74BFED3E71B21403008
:1016E0000172304652F799FECCE7F8B5E64C054654
:1016F0008600A0594822125C192AC3D140224930E1
:10170000491D5CF7D3FCA0594022E04949305CF701
:10171000F1FC002805D0DD492846203959F749FF5A
:10172000B0E70B21684601706A460521284652F74A
:10173000CBFA68460178602001436846017028466C
:1017400053F7AAFA0146684602780123284652F761
:1017500025FA97E7FFB581B003980C46060A0025E5
:101760005AF7DBFB002818D0132816D0142814D001
:10177000C748B700C0592030407BC00628D5039821
:101780005AF7CBFB15280CD0A07941F79CF93046CD
:1017900045F7B3FD032806D015E0A07941F793F98A
:1017A0001FE002251DE0BA48C0592030407B4007A9
:1017B00004D53D21304641F7BEFD04E03D22002125
:1017C000304641F7C6FD3D21304644F713FE08E0A0
:1017D00020460C38AF498180C68020464DF798F9E5
:1017E00001252846A4E6F1B58EB00E9841F778F9A8
:1017F00004460E98694600794006C00F0A9006908C
:101800000A208883628BA449101A88427ED2E08A1B
:1018100006287BD31921C901884277D8238BFF2161
:10182000F5318B4272D85B1C990059184143491C11
:101830000A2349105A43914268DC217F00290CD1C8
:10184000617F002909D1A17F002906D1E17F00290C
:1018500003D12021095DC90658D027462037797861
:10186000C906C90E491F0C2950D2A18A81424DD800
:10187000E17C00294AD0421E082A01D9082000E054
:10188000401E814242D805A844F79CFD00283DD166
:10189000824D0622E861214608A85CF707FCA8787B
:1018A0002E46803E00287ED06079800901280AD02B
:1018B00020460A994AF7C4FE00285ED03821095C08
:1018C000002954D059E020464AF727FFE861002854
:1018D00004D10BA920464AF736FFE861F16A887AFD
:1018E000012801D0042810D1E86900280ED0062272
:1018F000253010315CF7FEFB002807D1E869F16A5A
:101900002030C07AC97B884200D100E0A2E0E969BA
:10191000002932D0062208A825315CF7C7FBE86908
:101920002B21095C07AA253006914AF76BFD002898
:101930000FD0E8692030C07A002811D16846584994
:10194000808B49F711FD07AA012155484AF75AFD36
:1019500006E007AA01210BA84AF754FD00280CD085
:10196000E9696846808B323149F714FD05E0421879
:10197000527D002A08D010296CDBF06A407A0228D8
:1019800006D0032804D00EE0491C1029EFDBF4E751
:101990006846808B0A2806D307AA20460A994AF788
:1019A00031FD002856D0002205A920464AF7D4FD73
:1019B00000284FD1F06A407A02280BD0032809D0C2
:1019C00000236846828A08A806994AF7E6FD00289F
:1019D00002D02EE00123F4E7E18A68460180218BE2
:1019E0004180618B81807878062241096846817345
:1019F0007878C106C90E684641732146801D5CF7A0
:101A000055FB0E9800794006C10F68460173838A22
:101A10002146B26D45F783FC0146B065684641F743
:101A200029FB0020B065214668461C31808A44F7B6
:101A30001CFD47F7BAFC194C20342079002805D04A
:101A4000002109205AF750FB002020710021084690
:101A50005AF731FA54E510B57022124912485CF772
:101A600025FB10493822383910485CF71FFB0E4817
:101A70000F49A03001600B49703941600A490D4897
:101A80002039086010BD70472C7EFD07EC7DFD07F6
:101A90001879FD0706080000770C0000E479FD07BF
:101AA00004E5F1078487FC0720000840C000FC071C
:101AB0008CBFF107FF3F1000F8B53E4C6088C607A9
:101AC0006088F60FC005C50F608840084000608040
:101AD0006088FF270137B843608040F771FF40F707
:101AE00075FF00220821022040F764FF002800D083
:101AF00001206188A18861884908490031436180DB
:101B000061882A02B94311436180F8BD70B501258F
:101B100029492A020A60BFF34F8FBFF36F8F27490D
:101B20000A6027490B681C0A240240231C430C60EE
:101B3000214980390A601F494C880626B443241D78
:101B40004C804C882C434C804C8838252C434C804E
:101B50004C889C434C8001280FD14888330218439D
:101B6000488048881043488048882A0210434880AB
:101B70004888012292039043488070BD10B5114CF3
:101B8000E18A114ACBB21189248BC904890E6404FD
:101B9000640E001B093141430120C002401A80B28B
:101BA000584340031189000E090A090201431181BB
:101BB00010BD00002020005080E100E080E200E045
:101BC00008E400E000230050002C0050F8B50202A9
:101BD00005464123092134480A3259F7E9FF2721F4
:101BE0000170044600201F233049AA008F581E1A96
:101BF0004936BE5D2718401C7E702028F6DB002089
:101C00003F238E581F1A4937F65D27182037401C8E
:101C10007E702028F5DB5BF7DDF80146601C5BF782
:101C200056FD002812D10A2000906A460521284658
:101C300052F74AF8284653F72FF8009960221143CB
:101C4000CAB201460123284651F7A8FF204659F79A
:101C5000C8FFF8BD70B505460446008914490C3428
:101C600088B088421AD100201F216E460A1AA25C51
:101C70003254401C2028F9DB2022314620465CF7F4
:101C800015FA00203F210A1AA25C3254401C202879
:101C9000F9DB20226946A0185CF708FA284649F7C4
:101CA00024FB08B070BD0000270D00002C7EFD074E
:101CB00026200000421E5378521C002BFBD10B78CB
:101CC0001370491C521C002BF9D17047421C01783B
:101CD000401C0029FBD1801A7047F0B51FB406469E
:101CE000002082B005464024019100901BE001993C
:101CF00022460F46304600F033F8049A059B801ABE
:101D0000994110D31046194622465CF713FA361A49
:101D10008F410197224601200021009F5CF70AFABB
:101D200038184D4100902046641E0028DFDC019BDE
:101D300000982946324607B0F0BD0000064C012548
:101D4000064E05E0E36807CC2B430C3C9847103463
:101D5000B442F7D3FEF7E0FB14D9FC0744D9FC07E3
:101D600010B5202A04DB0846203AD040002110BDDF
:101D70000B46D340D0402024A21A91400843194674
:101D800010BD000001480121018070470815005076
:101D9000F8B505273C0760898007574E22D0A08AF6
:101DA000400701D504F046FD218C802001432184A9
:101DB000FF21718004213180218830220A43228052
:101DC000218803220A4322804C49F288B3881204F6
:101DD000D2188A42F9D337804949898F6180218C92
:101DE00081432184474801884907FCD42088302555
:101DF000A8432080228803208243228000220123DE
:101E00001A4041490A703A0654D07F1E0097328822
:101E1000022717439F433780042272803788174375
:101E2000378022882A4322802288024322803288F7
:101E3000520701D500BFFAE722882946AA4322802B
:101E40002288054682432280F288B7881204D2197C
:101E50002E481218042A14D94222002728488752F3
:101E6000077B002F02D0192217012548826D921C92
:101E7000BA4200D33A4682651A4628460D46009F6C
:101E8000BDE742231E48C25A521CC25292B2142AC3
:101E900028460FD300221A48C2520246007C00286E
:101EA00000D01320926D521E824200D80246144880
:101EB000826528466189890706D0618981436181ED
:101EC000608C012188436084208980210143218125
:101ED000208A042188432082A08A8007FCD540F70D
:101EE0004EFA0748006E0A4908600A48016801680E
:101EF0004907FCD5F8BDC04600160050E9030000B4
:101F00004425FD070833005064DAFC0761F8FFFF41
:101F10000802004010000040B0B5054D054C28886F
:101F2000C00703D0204605F0F7FDF8E7B0BDC04676
:101F300040300050A0860100B0B5A74C2021218080
:101F4000034902250D8004F073FFE587B0BDC0464C
:101F500044300050B0B59A4920220A80794C0225BD
:101F6000658004F065FF2580B0BDC046F0B589B03E
:101F7000069021200290C04303900025644A6648E1
:101F8000101801900878002800D1BAE0020611D498
:101F900005950491202809D340015D4940185D4909
:101FA0004618304620300199884221D9059D0C35CC
:101FB0000499A4E000221446052A00D19EE00346BD
:101FC00093401B0602D5521C641CF5E74E4A144090
:101FD000042C31D0032C43D0022C00D08EE04C785E
:101FE000002C00D18AE00595491CC006420D44E052
:101FF00005980A300890002188B20F28D6D8069894
:1020000007910D180024A0B20A2811D807272740ED
:102010003078B840000606D50898001980B2A9B2F9
:10202000FF2200F07DF9072F00D1761C641CEAE73F
:102030000799491C761CDFE74A78002A5ED08B7826
:10204000002B5BD0CC78002C58D00595C91C4007DC
:10205000C00A9206920B10189A06120D82180CE014
:102060004A78002A4AD08C78002C47D00595891CE4
:102070000007000C9206120D12183F20204010435A
:102080003BD0224A921D4326761E36D01346233378
:10209000039CA4182025655D2D04029FE45D2402A5
:1020A00064191278A21882421A46EDD1049103985D
:1020B0001E1805980A300890002188B20F281BD8F6
:1020C000069807910D180024A0B20F2811D80727F1
:1020D00027403078B840000606D50898001980B22D
:1020E000A9B2FF2200F01CF9072F00D1761C641C56
:1020F000EAE70799491CE0E70499059D1135491C59
:1021000040E709B0F0BDC046FF7F0000B0C7FC0744
:10211000CCBBFC0704FCFFFFE40B0000F8B5044651
:10212000AB4D084E002C0BD02020254908800227FB
:102130007780287804F07CFE3780641E6D1CF1E700
:10214000F8BDC0464230005080B50A2000F046F885
:1021500080BD80B50B2000F041F880BD80B50C201B
:1021600000F03CF880BD80B50D2000F037F880BD50
:1021700080B50E2000F032F880BD000070B5032855
:1021800000D1042040010E4C049D002D03D00125F8
:102190008D40055303E0251801268E406E801343C1
:1021A000490061180818838070BDC04601228A402A
:1021B000032800D104204001014942527047C04623
:1021C0000230005001228A40032800D1042040013F
:1021D000014942527047C0460430005070B5C0B249
:1021E00003460A3B01210A469A4093B20A4C1C1945
:1021F0005C406608094B1C880025360402D06D1C23
:10220000760CFAE79443AAB20D46954025431D800B
:1022100081401A48016070BDFFFF01000E1400509C
:102220000348FF210180034808210180FEE7C046E2
:102230000031005002330050024800880F4810213E
:10224000016070472C1300500B48018904220A4397
:102250000281018902220A430281018840220A4345
:102260000280064901220A604189054A1140891805
:10227000091D41817047C0460800005080E200E01F
:10228000FC7F0000F0B585B0039100210491027835
:10229000002A33D0114630390929019007D87D2111
:1022A000C9005143174808181749471802E03A2A4D
:1022B000134F1ED10024642C1BD00A2565430294C1
:1022C00050340026B0B2502810D20721B143C008C4
:1022D0002818385CC840C00706D00498301880B26F
:1022E000A1B2039A00F01CF8761CEBE7029C641C78
:1022F000E1E70198401C04995031C7E705B0F0BDF3
:10230000E4B7FC07D490FC078044FFFF2F4801216D
:1023100001770175017401760173017201717047D3
:10232000F8B5009129494C6A43239B001D1B01DB32
:10233000202500E020350F7A4B239B00002F01D091
:102340001F466437874216D30F7B002F1E4600D1ED
:102350003E46009FBE420ED316460F7C002F01D092
:102360001F466437874206D30F7D002F00D13B46BE
:10237000009A934200D2F8BD009A9442FBDC2B19DC
:10238000009A9342F7DD0B7F002BF4D0009A121BCA
:102390000B7E002B00D032235343C10859188A0901
:1023A000182AE8D807221040002E06D08022C2400A
:1023B0000748435C13434354F8BD054A535C8024EB
:1023C000E44304411C405454F8BDC04698DAFC076D
:1023D000011FFD077047FEB502920A4601900932BF
:1023E0000C2110465BF7E8FD0E460A2708463946E1
:1023F0005BF7E2FD0446992045006E43701D3946A7
:102400005BF7DAFD029908180199091B8CB2A20842
:1024100080183B354D434519642120465BF7CCFDC0
:102420002D1A1920010120465BF7C6FD2818401E11
:1024300080B2FEBD70470000F8B5224CD64E224F48
:10244000A1880F200840022806D004281ED00C289E
:102450001FD00128F4D133E0A44880694C22B15A3E
:102460004823F55AA9421BD2A388C0251D40C02D80
:1024700003D13B889B0703D4E2E7238A9B06DFD581
:102480004B1CB352415C221F1180E7E705F066FC4C
:10249000D6E705F063FC2088012188432080CFE740
:1024A0002088022188432080208880218843208042
:1024B0008E48C0690028C3D0F05A05F001FCBFE780
:1024C000F8BDC046041100507C11005005200007E3
:1024D00001883022914301800188032291430180C9
:1024E0000421415E002906D50E490A88520702D50B
:1024F0000A88D2070DD18088C00609D50A4801880C
:10250000090605D50121818001888022914301803F
:1025100070470888022202430A80088801229043FB
:1025200008807047000200500001005010B5046898
:10253000091BFF31994208D3194606E0137823702E
:1025400003685C1C0460491E521C0029F6D100205F
:10255000207010BD3748018802220A4302800549D5
:10256000491C02D202889207FAD4002101814089D5
:102570007047C0465F79FEFFFEB5054614480290DD
:1025800002AC204600F028F8142000F05FF8072085
:102590008601002D00D08036264F38880D4908402E
:1025A00080193880FFF7D6FF0190012000F04EF827
:1025B0000025A570204600F00FF83888054908402E
:1025C00080193880FFF7C6FF3D8001994018FEBD95
:1025D000010001013FFC00001649174A0A80002251
:1025E0004A80164A40231360BFF34F8FBFF36F8FAB
:1025F00000281ED00A88124B13400278D2021A43D8
:102600000A80104A40320B881340427892011A43E4
:102610000A800A880C4B1340827892021A430A807F
:1026200009224A804A8802239A43C0784000104316
:1026300048807047001500500140000080E100E034
:10264000FFF70000FFFBFFFFFFFB000000280CD09E
:1026500000BF00BF00BF00BF00BF00BF00BF00BF82
:1026600000BF00BF00BF401EF0E77047F8B523244D
:10267000CA4800571D4E354660351D4900282F4673
:1026800000DA0F4603F0C6FFC449085D0C467F21FF
:10269000014078182636062231465BF707FD2220D6
:1026A0002146205C009021268C5D124809210422DD
:1026B000412359F77DFA0746447010203870B81C42
:1026C000294622465BF7F2FC009ABA55384622307A
:1026D00007495BF7EBFC384659F783FA0648074988
:1026E00000F0EEF92021AD4A5054F8BDC025FD0799
:1026F0004026FD070E0D0000B80B00006D26FC07FC
:10270000B0B5A648817D012920D1C37D591E8B41DA
:10271000017E002900D007219B01C57E804C002D41
:1027200007D001258D40A11C0B431D800A230024E6
:1027300006E02343012425468D401D807D218B002A
:10274000C476764811461A4600F0F0FC0020B0BD71
:1027500070B59249087F01280BD101235C024E7F9E
:102760000F480E4D012E0DD16C8000234B770A23AC
:102770000CE001204002094908800948042159F76A
:10278000B3FC07E02C804B774B218B0011461A4697
:1027900059F760FC002070BD4425FD074230005011
:1027A0001504000070B59A48092104241C23224610
:1027B00059F7FEF905461B2028702426304603F001
:1027C00083F90121A9742C820021E981064AAA819A
:1027D000FF2202322A816C606E806870A9722846DE
:1027E00059F7FFF970BDC046AD270000B0B50446EB
:1027F000242040F724F801460920800204221346D1
:1028000059F7D6F9002545700470644C617D8170DC
:10281000C57059F7E6F901202076FF210231E182E7
:10282000617D002900D16575A076144804210A2233
:1028300059F710FCB0BDC0461FB5144606220292DF
:10284000044A0192069A00921A46234600F002FBBF
:1028500004B010BD4C8EFC0710B5144600F010F803
:102860004E48827E002A00D0034A0448214600F0E8
:102870005DFC002010BDC04670170000130400006E
:10288000B0B501F013F80446444D687D84420FD280
:1028900024203FF7D4FF01461F480422022359F7A2
:1028A00087F944700021017059F79BF96C75204637
:1028B000A97D01292ED1194C062814D8E97D184884
:1028C000002900D040302A7E0121002A01D10A4689
:1028D00000E080220280E9767D20820004212046EB
:1028E00059F7B8FB687D0D2814D3A87D01280BD1BA
:1028F000E97D0B48002900D04030297E002901D114
:10290000012100E0802101800421204659F7ECFBE1
:102910000020E876B0BDC046022400001404000088
:102920000230005070B53A48092104241823224689
:1029300059F73EF905461B202870FD26304603F066
:10294000C3F80021A982E96029616C606E8068701B
:10295000284659F746F970BD0120704780B50F48E9
:10296000C17C032907D1017D01290CD10021C1744B
:102970000175012080BD4A1CC2740C2048430849DF
:102980000818406806E04A1C02751C20484305A14F
:102990000818C0688047002080BDC0464425FD0758
:1029A000548DFC07FD000000CC8EFC070E000000DB
:1029B0002529FC07000000000000000000000000C6
:1029C000FF00000000000000000000000000000008
:1029D00000000000000000000000000070B50C487E
:1029E000092104240A23224659F7E2F805461B2050
:1029F00028701426304603F067F8FF2174312981CE
:102A00006C606E806870284659F7EBF870BDC04660
:102A10001B0D00001FB5144601220292044A0192C8
:102A2000069A00921A46234600F014FA04B010BD2C
:102A30007C8EFC0710B5044601020A3109480422C5
:102A4000022359F7B5F80C216143074A5118372280
:102A500000238B54132141700121017059F7C1F8F3
:102A600010BDC046040E0000C025FD07F8B5009259
:102A70000D468100104A56585418002E0AD1010202
:102A80000A310E4804271E233A4659F791F80646A4
:102A900007702060B71C102138465BF720FB3846D2
:102AA0002946009A5BF702FB01207070304659F707
:102AB00098F800202060F8BDD41EFD07140E000019
:102AC000B0B502461A484430002423460A2B0BD0E6
:102AD0000568002D02D0001D5B1CF7E701605C1C3F
:102AE000E0B2114600F072FFE0B2B0BDF8B50446A6
:102AF000401E09281AD8A0000D494718386C002834
:102B000014D00C4DA84211D040370B482018401C5F
:102B10000426314659F7E8FA3D6008230648314655
:102B2000324659F745F8047059F75BF8F8BDC046CE
:102B30004026FD07697BFC0702040000F0B585B064
:102B4000039302920E4607460020041D242C0ED04B
:102B500004A900910A490D5838463146029A039B50
:102B6000A84700282046F0D104A8007806E038469F
:102B70003146029A039B05F0D7F9002005B0F0BD5D
:102B8000A48EFC07FEB5064608050D0B002800D0F4
:102B90006D1C002D00D1012583480640FF20002434
:102BA0001A4F0195AC422CD004F0ACF9002828D182
:102BB00004F028FA002824D1022004F03DFA012074
:102BC00040070296304304F04BFA0026104D04F003
:102BD000E1F9C0070CD038880006F8D52868000451
:102BE000F5D40C4886420BD0761C59F7F6FBEEE77D
:102BF000029805490818461C641C0020019DD1E775
:102C0000FF2040B2FEBDC046FF0F0000080000508C
:102C10003000004080841E00F0B585B08A4206D2A4
:102C2000A648FF210180A64808210180FEE704464E
:102C3000101F02900492D01E01900091C81E0390B4
:102C400000252846C7B20398874215DAF84304994D
:102C500046183FF790FE010EA155A119491E020C1E
:102C60000A700199C91B020A62540299C91B605477
:102C7000381D291DCDB2E5E70098401B0106002351
:102C8000DE43002914D075430499091949194D1ED2
:102C9000C0B2C70003933FF76EFE039B18217A185A
:102CA000182A05D00246CA402A70AD190839F6E73D
:102CB00004980099411AC8B20919491E002803D086
:102CC0000B708919401EF9E705B0F0BDF0B587B06B
:102CD00015460E46049034480840884202D13046DA
:102CE000294608E0A9190A467240120B05D00122B4
:102CF00012038018091AFFF745FF0024204604F04C
:102D00009BF92A488068871BAF4200D32F460120D9
:102D10000390000206903018FF218843411E019461
:102D200025463C460297BD423AD2A01988420591F9
:102D300001D9881B441C04F0E5F8002831D104F0C7
:102D400061F900282DD1022004F076F904F094F8FE
:102D5000039840060643304604F06AF8002004F069
:102D60006BF9A0B206998842264600D3069E0498C5
:102D70004719300405D0387804F05AF8761E7F1CC5
:102D8000F7E704F071F804F029F9002809D1069852
:102D9000059908186519029F7C1B4E1C0146C2E765
:102DA000019807B0F0BDC04600F0FFFF58DAFC07FD
:102DB0001FB514460E220292044A0192069A00920E
:102DC0001A46234600F046F804B010BDA48DFC0757
:102DD00010B5014601200A4A914210D3121D9142BA
:102DE0000DD8029CF231C8B28100064A5058002822
:102DF00003D0511800220A6080470020207010BDC7
:102E00000E040000C01EFD071CB52823744CE35CB3
:102E1000132B03D101AB04F08DF81CBD0020C0437F
:102E20001CBDC0461FB5144607220292044A0192F7
:102E3000069A00921A46234600F00CF804B010BD22
:102E4000148EFC07E0B504F0AFF801A804F01EF8FA
:102E50008CBD0000F0B585B001250C9C002C20D065
:102E600001950291039304920B9B0A99E500ED18DA
:102E7000083D661C104B761E012E11DB2C462F8858
:102E8000874203D02546083D9F42F4D16468002C58
:102E90000AD00D4602AB0ECBA0472870002500E0FB
:102EA000019D284605B0F0BD9A48FF2101809A484F
:102EB00008210180FEE7C046FFFF000000310050FE
:102EC0000233005070B50B480424092122460B46FA
:102ED00058F76EFE05461B202870FC26304602F08F
:102EE000F3FD002129726C606E806870284658F7E7
:102EF00078FE70BD1B0D00001FB51446042202921F
:102F0000044A0192069A00921A462346FFF7A2FF4E
:102F100004B010BD848EFC07F8B504461C48406818
:102F20000F210140E171010F2171C1B20909A171A5
:102F30000101090F61710103090FE1700102090F1D
:102F4000A1700105090F61700004000F20700122BB
:102F500000920322150208230E4F2A46B847E17952
:102F6000A0790026009607232A46B847E178A07882
:102F7000009606232A46B8476179207900960523F2
:102F80003246B84720786178F94A51721072F8BD1C
:102F9000C025FD077D21FC07F8B52824F44D285DE8
:102FA000032817D1EFF31087012686F310880D4808
:102FB0000188B14301800C4801880C4A0A40028014
:102FC00003F052FF002F02D086F3108802E00020A9
:102FD00080F3108814202855002003F0EBFBF8BD87
:102FE0004425FD070012005004000050FFF70000C8
:102FF00070B50C460146049D4248814220D0424AA9
:1030000091422AD0414881423BD12078401E092874
:1030100054D88000414909184A6C434B9A4269D000
:103020003F4882426BD13848042108230A4658F7AA
:10303000BFFD217801706168416058F7D2FD5EE004
:103040006268002A48D0324882424CD220782E4909
:103050004018042158F7FEFF51E02078411ECAB203
:10306000092A32D889002D4A5218536C2C4EB3428B
:1030700045D144322B4B59581160616800F0A6FCD1
:103080003DE0531C012099423BD30A32914238D88B
:10309000C81EC0B2411E8A0020498B18596C0029F5
:1030A0002DD01F4CA1422AD01F4CA14227D044331F
:1030B0001C4C0026A6501E60884720E0FB48FF21DC
:1030C0000180FB4808210180FEE7F848FF210180CC
:1030D000F74808210180FEE7F448FF210180F44809
:1030E00008210180FEE7F148FF210180F048082116
:1030F0000180FEE744310B4A002313500B6000208F
:10310000287070BD010400000304000002040000E8
:10311000FDFF3F0000310050023300504026FD0704
:103120006B7BFC07D81EFD07697BFC0780B5002A76
:1031300000D1012258F78EFF80BD0000EFF310810F
:10314000012080F31088084A1288120603D4074A27
:10315000138803431380002902D080F3108870473E
:10316000002080F31088704708000050083300509A
:10317000FEB51C460D4606460027002801D43846F9
:1031800000E0012029460A394B424B41034001939C
:1031900000D07642002A01D0372000E0572002906C
:1031A00008980090304629465AF706FF29464143C1
:1031B000711A0A2901DB029A00E030228918E155D0
:1031C0007F1C00280646EDDC00998F4203D2302098
:1031D000E0557F1CF9E70198002804D02D20E05528
:1031E000E019421C00E0E21900201070101B410899
:1031F000521E002907D02378157825701370491EB8
:10320000521E641CF5E7FEBD83B0F0B5CAB0064699
:103210004F91509251934FAC029403A849900121D1
:103220000D1A31782A18FF2A73D825290ED17778FC
:10323000B21C302F11D1117800296AD03039CAB2AE
:103240000A2A00D30021F778321D07E0761C0170AE
:1032500000214170401C499057E0002104233B436A
:103260006C2B02D11778561C00E01646582F21D03F
:10327000632F3ED0642F25D0692F23D0732F3AD0EF
:10328000752F17D0782F15D0002F42D049A803A949
:1032900025232CA2FFF74AF949982918FF2904D8B9
:1032A000077000214170401C499049A803A90223DE
:1032B0002EA228E001CCC9B2752F0DD100910A21B0
:1032C00000220EE001CCC9B200910A21002243AFD6
:1032D0003B46FFF74DFF12E00091583F7A427A419A
:1032E000102143ABFFF744FF034649A803A943AAB3
:1032F00009E002CCABE780CC384600F06DF803461D
:1033000049A803A93A46FFF711F9317849980029ED
:1033100088D103A9441A012C0FDB2D4D2E78A0195A
:10332000FF2802DD00F026F82E782A48801903A92C
:1033300022465AF7BBFE301928704AB0F0BC01BCD7
:1033400003B00047464154414C3A20756E73757086
:10335000706F72746564207072696E746620636841
:10336000617261637465723A200000002E0A0000E9
:103370004425FD07F8B516480078401D032158F78D
:1033800009FB04460027054680C511480678114907
:10339000284632465AF78AFEAF550D4DEFF310819D
:1033A000012080F310882A6D002A06D01346126887
:1033B000002AFBD11C60276001E02C6568700029A1
:1033C00002D080F3108801E087F310882F70F8BDD9
:1033D0004425FD0748D9FC070021425C491C002A0E
:1033E000FBD1481E7047B0B50C460025202D04D0F7
:1033F0003FF7C1FA60556D1CF8E70020B0BD002012
:1034000070470000F8B51E4615460C46104658F7A2
:1034100084FD002801D0022625E0242003F02EFBA5
:1034200007462620395C2078884211D261786429C9
:103430000ED83818817601262846314658F73BFDCC
:103440002720002139540C3C7C6100F081F80AE00F
:103450000648012331462A4658F7AAFB812101700C
:1034600058F7BFFB00263046F8BDC04603240000D5
:1034700000207047082904D20069401800214177D4
:1034800070477848FF210180774808210180FEE7D6
:10349000082904D20069401800214177704771481B
:1034A000FF210180704808210180FEE700310050B3
:1034B00002330050B0B5054604696069002801D0A8
:1034C00058F7E3FA00202861204658F7DEFAB0BD2D
:1034D000F8B51E4615460C46104658F71EFD002846
:1034E00001D002262EE0242003F0C8FA07462078F7
:1034F000082815D851F7C4FB1349884210D001267B
:103500002846314658F7D7FC20783818617841773B
:103510002720002139540C3C7C6100F019F811E09F
:103520004F48022331462A4658F742FB2178017062
:10353000082902D87621C94300E04021417058F79C
:1035400050FB00263046F8BDFFFF0000002070470A
:10355000FEB5242003F092FA4369002B22D00646E0
:103560009F883E48874224D009208002874230D17C
:1035700000972720325C187B019037181D3734469E
:103580001A3418460E3002962736012A28D83D787C
:10359000D540ED0703D0A55C815CA9423DD1521C0A
:1035A0003270F2E72F48FF2101802F480821018067
:1035B000FEE72720305C34461D3435462735072882
:1035C00012D8215C1A7BD140C9071ED1401C28703B
:1035D000F5E72448FF210180234808210180FEE708
:1035E000029E009F019C00E0FF241C4887421DD0E2
:1035F00009208002874226D1DA88198918480223D7
:1036000058F7D6FA0470411C18E0C1B2304600F0F9
:1036100017F92878401C2870FEBDD2B20298019993
:1036200000F00EF93078401C3070FEBDDA88198940
:103630000B48801C012358F7BBFA014600220A7090
:1036400058F7CFFA7369184658F71FFA00217161CD
:1036500072889548104058F72EFCFEBD02240000E9
:10366000012400000031005002330050FEB50192E9
:1036700002910546242003F001FA02462532078B09
:103680002630002302990B70BEB28021AE421ED8B4
:103690000478A3421BD2B11CA94210D21678DE4096
:1036A000F60703D0491C8EB2AE420AD0022C03D3D7
:1036B000491C8CB2AC4206D05B1C4F1CE2E7E81BF5
:1036C00002E0032000E00420019908700021084670
:1036D000FEBD0000F0B591B00C910B90169F3878AC
:1036E000401E01287CD81D4607922824012120462F
:1036F000059158F74FF9064621465AF7F0FC3878FD
:10370000262170541E21069529407F22D243891814
:103710000A9625360D96002404253A4610AFC9B204
:10372000089123460992002B5CD1C0B2844259D241
:103730000E970FA80721017016197078A0400D9BF5
:10374000197801431970505B51194A8812041018F6
:103750008A88C9880A9B58510804801859194860FA
:103760007078012804D10FA80F2101701F2000E0FC
:1037700017200D994978022901D30FA908700C98D8
:1037800000880E9F38800B98808A0021009101905C
:1037900028480290089803900FAA05233846264926
:1037A0004CF729FF0346002814D171783888012985
:1037B00001D1014600E0411E491D0C9A118071782B
:1037C00001290E9F06D1801C80B21C491E464CF771
:1037D000D0FD3346BF1C0835099A1078641CA2E757
:1037E000812421E0002B04D00A981C4658F74DF99B
:1037F0001AE010980C9908800B9A0A9B13610C49E7
:10380000516018832420D0820598D08118461C303E
:1038100090600698C003079908431880908A5880E2
:103820000024214658F747FBE0B211B0F0BDC04676
:103830004C8DFC07D08CFC070F1800000102000023
:1038400070B5144605464088C94A0240C1200001AF
:1038500009020831092358F7ABF9064612203070E7
:10386000242003F00BF92621415CA1420FD9014627
:103870002531008B002294420BD00B78D340DB071C
:1038800001D0052300E004231818521CF3E70020A0
:1038900000E0801C0121F180B0802819807E307208
:1038A000304658F79EF970BDFF7F0000FEB5012538
:1038B000E802334C218801432180A8032188014379
:1038C00021802088284320801420FEF7BFFE680254
:1038D000A080E08028032188014321802088294995
:1038E00008402080AE02FEF735FE2188314321805A
:1038F000EF43784355210D010195B03540190290F1
:103900002148461CFEF726FEA1883140029A114349
:10391000A18078434019E18831400143E18020884B
:10392000184908402080208818490140218000243F
:103930002046FEF721FE80B201096E2901D96424D8
:103940001BE0019A1146E03188420AD9000411496E
:103950004018BF215AF746FB482141430C0C1C3448
:103960000BE0904209D9000409494018E0215AF7B8
:1039700039FB18214143080C041DE0B2FEBDC046CE
:1039800000150050FFFB0000FFFBFFFFFFEF0000F2
:103990000000B0FA0000D0F910B50446FD203EF753
:1039A0004EFF014608480422082358F701F9022176
:1039B0008180418001214170217862781202511882
:1039C000C18058F70EF910BD06FD000070B50C4619
:1039D00005461048008800060F4E0ED50F480068B7
:1039E00000040AD40E480088C00706D17019801C54
:1039F0000421224658F72EFB70BDFFF79FFB0421E0
:103A0000082330460A4658F7D3F84460057058F743
:103A1000E8F870BD080000500104000030000040CC
:103A20005877FD077047000070B514460D460646EE
:103A3000FD2003F023F8002C0CD0002D11D0103005
:103A40000068002814D00179B142F9D14179298068
:103A5000801D0FE0A348FF210180A34808210180B9
:103A6000FEE7A048FF2101809F4808210180FEE772
:103A700000202880206070BD70B515460C461046A9
:103A800058F74BFA002813D1FD2002F0F7FF064645
:103A90000848082106232A4658F78AF8A188418059
:103AA000A1790171B18862885118018058F799F89D
:103AB000002070BD180C0000FEB502920F460546AE
:103AC000FD2002F0DBFF06461036019734462468DD
:103AD000002C0DD02079A842F9D16079B84214D0D9
:103AE0000022304621463FF78DF8204657F7CDFF9C
:103AF00008370121384657F74DFF044639465AF733
:103B0000EEFA304621463FF729F8019A6271257195
:103B1000A01D02995AF7CAFAFEBD0000FEB5029137
:103B2000264D1435006901900127254E254C0E2F96
:103B30000FD03046F840C00708D028680088A0425F
:103B400004D1F9B20022029800F042FA14357F1C29
:103B5000EDE702200199085E65490140C20B029819
:103B6000000210400843002158F7A5F9FEBDC046E9
:103B7000FF7F0000F8B50091072916D80F4D1435C6
:103B800001260F4F0F4C0E2E16D03846F040C007BE
:103B900008D028680088A04204D1F1B20022009821
:103BA00000F016FA1435761CEDE74E48FF2101802F
:103BB0004D4808210180FEE7F8BDC046CC8EFC07C9
:103BC0005A3500000229000070B5054604692646F2
:103BD00010363068002805D030463EF7A3FF57F76F
:103BE00054FFF6E700202861204657F74EFF70BDCE
:103BF0007CB5FD2002F042FF8668002E2CD00446E2
:103C0000407B6D4601AA2946FFF70EFF2888082849
:103C100029D10C36227B0198072A2BD81146521C39
:103C20002273435C7578002D02D0DB07F4D001E0ED
:103C30009B07F1D5A068C288B388C12000010902A2
:103C4000083189B208339BB257F7B2FF0546707846
:103C500000281DD012201CE0F948FF210180F948FE
:103C600008210180FEE7F648FF210180F548082180
:103C70000180FEE7A068C288018973781B48002B89
:103C800018D0042357F794FF71880180811C19E034
:103C900013202870A08871880818A880B088E88050
:103CA00028460830B288B11D5AF700FA284657F75F
:103CB00098FF7CBD801C80B2062357F779FF71887E
:103CC0004180011D00250D7057F78BFFA06857F745
:103CD000DCFEA560618806480840294658F7EBF8E5
:103CE0007CBDC046003100500233005007FD00008B
:103CF000FF7F000010B50446FD2002F0BFFE817971
:103D0000A14202D98088001900E0002080B210BDD5
:103D1000B0B50C460546FD2002F0B0FE0146828893
:103D20008020AA4206D889798918A94202D9A81AFE
:103D300020700020B0BD0000F0B597B01E46029282
:103D40000B9105462824012120460E9157F722FEAB
:103D5000074621465AF7C3F9079504972F611E209D
:103D6000019630403F21C943411803915F21C94367
:103D7000411805917F21C9434018069000228F4FBA
:103D8000904E032A00D1DFE00798848A13A88A495D
:103D90000180511C8A480991415C0A92855C681C2B
:103DA000C2B20F929142129100D80146E84308181E
:103DB000C1B2182048431830032157F7EBFD0146E4
:103DC0000B980088088011914C8014242046089597
:103DD000684330180279022A069903D0042A05990B
:103DE00000D00399119A11710169901D10225AF7A0
:103DF0005DF90F9D6C433619002710963C46281933
:103E0000129988424DD23079102816D0042826D035
:103E1000022842D11198C519B0890D90B0680C9054
:103E20003068017840786876297628461A300E2165
:103E30005AF755F90C99080C2AE01198C51928462B
:103E40001830316810225AF731F9B0682885B189E5
:103E5000A9850E99C9040143080C68851CE01198D6
:103E6000C519B0890D90B0680C903068017842781F
:103E70008378C078E876AB766A76297628461C3057
:103E80000C215AF72CF90E9880040C990843000C69
:103E9000688529850D98A8850F9D14361837641CF0
:103EA000ADE7119844714BF7EEFF04460028434FED
:103EB00015D0119857F7E9FD0A98002803D10B98FF
:103EC00000880499888012980899401A0B9A1188E2
:103ED00040181080002C099A3A4E6AD151E7119887
:103EE00000880B99088000242646002CE1D1129806
:103EF0008542DED2761C0024022D20D0072D1ED054
:103F00003148E840C0071AD11098C1893846E840C6
:103F1000C00709D010980068027840780002801825
:103F200013AA128890420AD0F0B2119A128810187F
:103F300080B2109A136900224CF77FF8044610985B
:103F4000143010906D1CD0E70E20049A9071FD2063
:103F50000799C8820E9DCD811C484860888A508090
:103F60001046243088600198C003029908431080ED
:103F7000103210463EF7CEFD0024159414941436EA
:103F80000E2D11D03846E840C0070AD00A48FF304D
:103F900031680988814204D1E8B2082114AAFFF7E8
:103FA0008BFD14366D1CEBE70798808A214657F786
:103FB00082FFE0B217B0F0BD032800005A350000C0
:103FC00070D8FC07CC8EFC07CE1C0000908CFC0740
:103FD000F0B585B008281DD215460C46064604AF3C
:103FE00003AA08463946FFF71FFD3F88002F18D067
:103FF000039900291CD0009501AD28463A465AF78E
:1040000055F80098A855204639462A46FFF754FD32
:1040100005B0F0BDD748FF21018047480821018045
:10402000FEE7D448FF210180434808210180FEE7D4
:10403000D048FF210180404808210180FEE7C046AA
:104040000031005002330050FEB514460E46FD20EC
:1040500002F014FD05468788009676880194204674
:1040600057F75BFF012801D1022726E0F01980B243
:1040700001F0CCFC00280BD002A9FFF749FE002874
:104080000DD0BC48FF2101802B4808210180FEE7AC
:10409000B848FF210180284808210180FEE7012758
:1040A0000198394657F707FF0020287300980C380D
:1040B000A86002986873FFF79BFD3846FEBDC046B6
:1040C000FEB514460E46FD2002F0D8FC0546878852
:1040D000009676880194204657F71FFF012801D1EA
:1040E000022726E0F01980B201F090FC00280BD0E6
:1040F00002A9FFF70DFE00280DD09E48FF21018088
:104100000D4808210180FEE79A48FF2101800A48F6
:1041100008210180FEE701270198394657F7CBFEB9
:104120000020287300980C38A86002986873FFF785
:104130005FFD3846FEBDC0460233005010B50C4648
:10414000FD2002F09BFC80886188081880B2A1885D
:10415000A31D002422464BF770FF204610BD00002F
:1041600070B514460D46104657F7D7FE01282FD1DB
:10417000287801020831AA791648002A0CD089B2A1
:104180000623224657F714FD0646A878FFF7B2FD2E
:1041900080213171308014E0AA8889B2921D93B2D7
:1041A000224657F705FD0646A878FFF7A3FD002134
:1041B00031713080A8887080701DAA88E91D59F778
:1041C00075FF304657F70DFD0021204657F773FE67
:1041D000002070BD140C00007047704780B559F77F
:1041E00053FF80BD80B559F758FF80BDF8B5252530
:1041F0005D4E715D082900D9B3E004207944097946
:1042000049008F449C042E3559648F539D005748B4
:10421000802707805A485B4CA0475448478058483D
:10422000A047524807805648A0470620564988476D
:104230001724564F2046B8472046B8472046B8476F
:10424000042051498847FDF767FE002420464E4967
:1042500088470F20B847705D401C7055464804627F
:1042600069E01020FDF768FE705D411C7155801CEF
:10427000414C276A092F51DC7E016662FEF746F841
:104280001920850120790028294600D101463B48A4
:1042900059F725FF092F05D14B208000811B643081
:1042A0004843C50800F012FAA8B230E02F48C08F8A
:1042B000C00740D108203DE01320FDF73DFE705DB2
:1042C000401C7055F348FF210180FEF737FF2A4C50
:1042D000276A092F20DC7D016562FEF717F8192097
:1042E000860120790028314600D10146234859F73C
:1042F000F6FE204632300021FDF7C4FF092F05D11C
:104300004B208000411B64304843C608B0B2FDF723
:1043100005FF206A401C03E0705D401C70550020C2
:10432000206208E01220FDF707FE114803F0F4FBBD
:10433000705D401C70550A201549FEF7C1FBF8BDA1
:104340000220FDF7F9FDFDF7E7FD0720FDF7F4FD7D
:10435000A520FDF7FFFD6846FF2141700170FFF7C2
:104360001BFB00207055F8BD4425FD0702300050AE
:10437000A08601000031005098DAFC07011FFD07FC
:10438000400D0300197BFC07391FFC07551FFC0774
:10439000ED41FC077047704770B505460469261D5E
:1043A0003068002805D030463EF7BCFB57F76DFB60
:1043B000F6E700202861204657F767FB70BD000034
:1043C000F0B58BB01E4607920F4604461098069033
:1043D00000880890002101200246092913D00325F6
:1043E0008540099020463446089ECE403B46012732
:1043F00037407E421F462E403243264604460998E7
:10440000801C491CE9E70A92802030439E2101402C
:10441000A08A03911D4902910190002000901C493F
:104420000AAA132338464CF7E6F80546002829D196
:104430000897202701210591384657F7ABFA0996CE
:104440000646394659F74BFE266130461E30114963
:104450006160A0600898008830830598E08114208E
:10446000E082A08A70800998C003079908433080D1
:10447000069800887083301D3EF74CFBA08A00210F
:1044800057F719FD28460BB0F0BDC046248BFC073A
:104490000A180000308CFC07FEB5019302920C460E
:1044A000142002F0EBFA2778082F14D80546418B28
:1044B000008B3A4600F0F2F800280ED060788D2686
:1044C000802839D8082F0AD0072F0BD0062F0BD100
:1044D000082809D030E081262EE082262CE007282B
:1044E00002D029E0062827D32E1D35462D68002D41
:1044F0000BD02979B942F9D10022304629463EF73E
:1045000081FB284657F7C1FA60780830012157F738
:1045100041FA05466178083159F7E1FD20782871A4
:1045200060786871A81D6278A11C59F7BFFD3046FC
:1045300029463EF713FB0026064802230199029AFA
:1045400057F736FB21780170467057F74AFB002079
:10455000FEBDC04601140000F8B514460D461046D5
:1045600057F7DBFC012835D1142002F087FA064604
:10457000077F418B008B3A4600F090F80090707FE7
:10458000010208312A781448974212D16A7889B218
:10459000931D224657F70CFB074600203871009800
:1045A000388068787880781D6A78A91C59F77EFD74
:1045B00009E089B20623224657F7FAFA0746802017
:1045C000387100983880384657F70BFB0021204699
:1045D00057F771FC0020F8BD140C0000F8B50878FE
:1045E000082812D80C460B251BA6C0467844007933
:1045F000400087441C041104070714171A000725FC
:104600001A4E14E00F25184E11E02248FF210180B8
:10461000214808210180FEE70A2515A607E00825A4
:1046200018A604E006250F4E01E0072513A6AF1CCF
:10463000174819463B4657F7BBFA074620783870AB
:104640007D70B81C31462A4659F730FD384657F779
:10465000C8FA0020F8BDC0464469616C6F672053FA
:10466000656D6900F2D8FC0799D8FC07A9D8FC074A
:10467000312E302E302E302D4C45000001D20080DE
:1046800005000100123456FFFE9ABCDE0000000057
:10469000031400000031005002330050B0B58BB25B
:1046A000411C00200446092C0DD01D46E540ED07B5
:1046B00002D0A24202D0891C641CF4E7092A01D06E
:1046C000481C00E0002080B2B0BD000010B50A20F8
:1046D0009549FDF74BFC8C4C20462830FF21FDF717
:1046E000D1FD412080003C342146FDF73FFC10BD48
:1046F000F0B593B080488149FEF7E2F94421804C3F
:1047000060522420215C3C222254A06F4018A067F4
:1047100003F02CFA30257B4E725D3127F35D18468D
:10472000104304D078480078002803D0C6E07648CB
:1047300000210170059706952F24B08D7349451807
:104740002E20305C401CC1B20027039081423E46BF
:10475000079704944DD100260C29079649D869483B
:10476000025D0026002A43D01F2A079641D8A8B22E
:10477000674BC3180026032B07963AD30026CA2B93
:10478000079636D802959D00634C655946024C0148
:1047900034431443A54201D95E4BC3181B049D0B3F
:1047A0005D4B5E59FDF717FE04461F223240F002B2
:1047B000000DF105090FFDF70EFE201A401C5749A8
:1047C0004B59D9030A0F01210C24651C00D384E046
:1047D0000125A5401D40E540012D01D01D2500E02B
:1047E0001E2586B2B54279D2401B641E491CECE7F7
:1047F000079602960EAE37707D20C100284659F705
:10480000DBFB0A27394659F7D7FB8800444909588A
:10481000444C3046A0476421284659F7CDFB394621
:1048200059F7CAFB88003E4909583046A047284638
:10483000394659F7C1FB0446394659F7BDFB880094
:10484000374F39583046374A90470920C0436043B4
:104850004019800039583046324A90470BAD0398D2
:10486000294601F0EFFE274F0498385C08AC21463A
:1048700001F0E8FE00942C482CA132462B4603F0B0
:10488000C5FC3320385C80002C49081800900720B4
:10489000079A42432A498B180299C9B241432948D1
:1048A0004218194C20463C3027A103F0AFFC0120F0
:1048B000207005983B5C06983A5C114C12482830F1
:1048C00025A103F0A3FC2520215C002903D10121AF
:1048D0002154FFF78BFC13B0F0BD0E21CBB29A42EE
:1048E000029D01D30E4600E04E1E002A00D10E4666
:1048F000C0B207907DE7C04670170000F146FC0784
:104900004425FD07C025FD0798DAFC076C07000069
:1049100033F8FFFF32F8000040D5FC0710D2FC0747
:104920004C90FC07B51CFC0765DAFC072573E5B95C
:10493000B42573E69C882573E697A500EED1FC07A5
:1049400015D1FC07BAD0FC07257325732020E69803
:104950009FE69C9F25730000253032643A25303253
:104960006400000070B50C78A51E052D38D81C0A0F
:104970007D442D796D00AF440222333642507A20B7
:1049800060433C4A1518887878216854C0070ED0D7
:10499000284671300C216143E64A561831463931B8
:1049A000062259F783FB3820305C772168540C20AD
:1049B0006043E04908183F21002242543EE07A203B
:1049C00060432C4908187821002242540C2060438F
:1049D000D84908183F2142542046FEF72BF82DE015
:1049E00003F0A2FA2AE07A256543224C60193A3096
:1049F000891C172259F75AFB605D04211CE07A25B7
:104A000065431C4E70196130891C1024224659F7E9
:104A10004DFB705D2043705510E08B1C488A0028C8
:104A20000ED07A256543134C60191E301C2219469E
:104A300059F73CFB605D022101436155002070BDC8
:104A40007A2666430B4CA519A81C1C22194659F757
:104A50002DFBA05D01210143A15507A0FEF7D4FB6A
:104A6000112608A4012EE9D0A95D2046FEF7CCFB53
:104A7000761EF7E7461CFD07200D0A204C544B3AE2
:104A8000203078002530327800000000F0B585B085
:104A90000878072840D81C0A800001A210588746D1
:104AA000C14AFC07194BFC07194BFC07194BFC07C3
:104AB000274BFC07CD4BFC07CD4BFC07434BFC07BA
:104AC0007A206043434900250D540C206043BC49C3
:104AD00008183F2101274754A0003F490E18346FA2
:104AE0007036002C13D10A200343F520834340483D
:104AF00004221E241946234657F75AF80446077025
:104B00003060801C3B49072259F7D0FA6770204675
:104B100057F767F8356059E0A748FF210180A7489B
:104B200008210180FEE7487803284FD878440079AF
:104B300040008744400101462848019001A9042211
:104B400041E07A266643234885194F782F77284617
:104B5000143008210A46FEF75FF8A81C00901022C6
:104B600039461746FEF758F83DF705FF194B995D92
:104B700001220A439A556882204601F00FF8297FE6
:104B80000177698A4182E98AAA8A6B8B2D8B05831A
:104B900043838282C182801C00993A4659F786FA83
:104BA000204600F0FBFF57F71CF8A0000A49081840
:104BB000002141670AE00AA001A90A46E8C8E8C244
:104BC00000E0891C10222046FDF750FF002005B0B0
:104BD000F0BDC046461CFD074425FD0740E201002C
:104BE000000102030405060708090A0B0C0D0E0F4D
:104BF000140E0000C48EFC0710B50C78092C0BD0E5
:104C00004C78002C06D0F948FF210180F848082193
:104C10000180FEE703F088F9002010BDFEB51E46B6
:104C200010460C4657F779F902285FD10294340AEE
:104C30000C2060433F490F1836203C543D46363522
:104C4000FF2C5AD0372001210191395404200090C3
:104C5000032157F730F9029A507A38217854108896
:104C6000B886393711460A310622384659F71EFAF6
:104C70007A206043304908187821475C0A200643AF
:104C8000F52086432D482C233146009A56F790FF95
:104C900028214754019F014628314F7056F7A1FF44
:104CA0002878FF2829D0264EB4772020305CFDF7E5
:104CB0001DFF02994888082809D3242807D8888826
:104CC0000A2804D14B20C000C988814204D0C820E2
:104CD0001C49FDF7F5FEF0771BA0FEF795FA377734
:104CE0001C4804210A2257F7B5F908E00F48FF21B4
:104CF00001800F4808210180FEE703F069F8287859
:104D0000FF280ED0144D08350026F0B2002802D03E
:104D1000032803D107E02968204688470C35761C14
:104D2000F3E703F055F80020FEBDC0460031005007
:104D300002330050C025FD07461CFD07020E00008F
:104D40004425FD07E167FC07636F6E6E6563746958
:104D50006F6E0A0015040000548DFC0710B51C4648
:104D6000104657F7DAF803281ED1200A0C214143D8
:104D7000DF484018FF21C186DC4CE07F002803D0CB
:104D8000FDF7B4FE0020E07701F044FC03F020F8CA
:104D9000002020773421625C012A03D16054094845
:104DA0003DF720FD002010BDEF48FF210180EF48B6
:104DB00008210180FEE7C046003100500233005058
:104DC000C025FD0711111111180A7A224243034828
:104DD000801809787822815400207047461CFD070E
:104DE00000207047F0B589B01D46144608780228A7
:104DF0001FD001282DD0002839D120203F490E5C3A
:104E00002031491C01AF3846324659F74FF9334635
:104E10000A3318482946224656F7CAFE04464680F9
:104E200000202070201D3946324659F73FF92046B0
:104E30001BE010480A232946224656F7B9FE7D2179
:104E400001810021C180102181800821418002213F
:104E50000AE0422029490E5A06480A2329462246DA
:104E600056F7A6FE46800121017056F7BAFE0020D3
:104E700009B0F0BD0B0E00000020704710B51946B8
:104E8000E1200001062356F793FE0024848044802D
:104E90000121017056F7A5FE204610BD0020704785
:104EA0000020704770B51D460C46087801280CD0CC
:104EB000002810D162882020104B1A54211D203365
:104EC000581CD2B259F7F2F803E0608842210B4A2D
:104ED0005052002600E048260A200543F52085436D
:104EE000074804220223294656F762FE46702178BD
:104EF000017056F776FE002070BDC0464026FD07C3
:104F00000D0E0000002070470020704770B50C782F
:104F1000641E162C1CD8C0467C4424796400A74427
:104F20000D171A17171717171717170B240B0B172F
:104F30000B0B0B1717170B00002070BD48780028CB
:104F400017D08948FF210180884808210180FEE7A9
:104F500002F0EAFFF0E7487800283BD08248FF21C2
:104F60000180824808210180FEE748784428E3D187
:104F700038E0204D2C68002C26D11F48092104223E
:104F80002C2356F715FE0446286001204002208499
:104F90001A4820800026668020460A30112159F7E1
:104FA0009EF86684E683A6832020E0767A21144862
:104FB000415AFB2900D3FB21E1847C21405A11494D
:104FC000884200D308462085204656F70AFE002076
:104FD0002860B1E70420012156F76DFFFDF7BEFC04
:104FE0000028A9D002F0F4FEA6E7C0460031005028
:104FF00002330050401CFD07040D0000030A0000AE
:105000006479FD074808000010B5104656F785FF83
:10501000002806D05448FF2101805448082101800F
:10502000FEE70648092104220124234656F7C0FD65
:10503000047056F7D6FD002010BDC046020D0000DA
:10504000BCB5104656F769FF01282ED1FDF786FC46
:1050500000282AD00420022156F72DFF2020002806
:1050600001D0401EFBE712A0144CA04702F0B0FE96
:1050700013A0A04764201C49FDF722FD44211B4DCD
:10508000685201F049FF1A484030012149040C22BE
:1050900001AB01F04FFF0246019916A0A04701F0B5
:1050A0008FFF65206875FDF7EBFB0020BCBDC04697
:1050B00063726333325F696E69740A000932FC07F8
:1050C0006D795F6170705F6F6E5F64625F696E695A
:1050D000745F636F6D706C6574655F6D6F64696636
:1050E0006965640A00000000F146FC074425FD07DD
:1050F000C025FD07696D676865616465722072652A
:1051000061643A25642C7374617475733A25640084
:105110000020704700207047F8B51D4616460C4623
:10512000104656F7FAFE002813D1FD2001F0A6FC28
:1051300007460C48042132460B4656F739FD290A2A
:105140000170E90A07D1B9882288511A418056F7BF
:1051500048FD0020F8BD0448FF21018003480821D4
:105160000180FEE70DFD00000031005002330050C9
:10517000FEB51F4600920C4602A900260E7001AA39
:1051800016702088FEF772FA05460D480623394648
:10519000009A56F70DFD21880180002D0AD101A942
:1051A0000978CA1E534253415A004280032900D055
:1051B00003263546057156F714FD0020FEBDC04696
:1051C000180C000080B50878FE210140122901D199
:1051D000FEF70EFD002080BD80B50878122801D1B1
:1051E000FEF7B6F9002080BDF8B51D4614460E4600
:1051F000104656F792FE012817D0002844D100959A
:10520000142001F03BFC418B3288038B5D1C002392
:10521000092B2DD00F46DF40FF0704D0AFB27F1C13
:10522000974204D0AD1C5B1CF2E702242DE0DFB2F4
:10523000082F1DD8051D2D68002D28D02979B942C9
:10524000F9D16879831DC5480099224656F7B0FC0C
:1052500007463088388000243C7168797880781D52
:105260006A79A91D58F722FF384656F7BAFC0CE0B8
:10527000BA4806230099224656F79AFC31880180E5
:105280008021017156F7ADFC00242046F8BD077758
:10529000009B190A41770088B14A024000B2C10B55
:1052A0001940FF20814311430648012522462B4621
:1052B00056F77EFC077056F794FC2046294656F7B1
:1052C000FAFDE1E702140000FEB51E4615460C4645
:1052D000104656F722FE002807D0284656F71DFE36
:1052E000401E414241414800FEBDFC2001F0C6FB8A
:1052F0002388817902AA0027178001976A461780C0
:10530000591AC9B2132907D00D2910D102A90222B6
:105310000A800A30019008E002A802210180300AC8
:105320004CF70BFC694608800191082007E002A9B0
:1053300001AA18464AF775FF07460298801D83B2F6
:10534000864831462A4656F733FC05462088288091
:105350002F7102A802886A80002A03D0681D019973
:1053600058F7A4FE284656F73CFC0020FEBDC04678
:10537000F0B585B0029316460F4604A900240C70C0
:1053800003AA14703888FEF771F90546242001F04D
:1053900075FB0190002D10D0A31D70480299324674
:1053A00056F706FC3988018044800571002D0FD026
:1053B00056F717FC002005B0F0BD03A800780025C3
:1053C000022815D0042815D0032815D10224E3E7BC
:1053D000029F03A90978042911D0032923D00229A7
:1053E000E6D104A90978019A5118897E4171DFE755
:1053F0000124D1E70724CFE780250024CCE704A9C6
:105400000978C900019A51180A7A42714A7A827160
:105410008A88C271120A02728A7A4272C9888172BB
:10542000090AC172C4E7390A019A5118497F00225A
:10543000827104AA1278D14001220A404271B7E772
:10544000F0B587B01D4614460E46104656F765FD6A
:10545000002801D0022067E0FD2001F00FFB029040
:1054600004A900270F703088FEF752FC024603A8FB
:105470000780002A16D0BB1D38482946154622460B
:1054800056F796FB04463088208067802571002DF2
:1054900004D1601D03A93A4658F708FE204656F786
:1054A000A0FB40E0029F280A019004A803789D48D1
:1054B000D840C0071ED0142058439B490858008884
:1054C0002549884216D1019F082F2FD2029206AF9C
:1054D00005AA18463946FEF7A7FA388800282CD0C6
:1054E0000598002830D00199405C03A90880022764
:1054F000029AC0E7388800B28D490140C00B0540D0
:10550000FF2085430D4317481E46042329462246A3
:1055100056F74EFB46800199017056F762FB012158
:10552000204656F7C8FC002007B0F0BD7B48FF219D
:1055300001807B4808210180FEE77848FF21018037
:10554000774808210180FEE77448FF2101807448F4
:1055500008210180FEE7C04602290000140C00006B
:10556000FF7F000004FD000000207047F0B595B0FB
:10557000099315460C46FD2001F080FA06460CA959
:1055800000270F702088FEF7C3FB014660880028C3
:1055900006D06248FF210180614808210180FEE7B2
:1055A0000897079600292A46264676D10998000AC8
:1055B00005900CA803785B48D840C007049330D00E
:1055C00014205843584908580088584C2146FF3148
:1055D000884226D1029208980B900A90039636884A
:1055E00030464AF7A1FC024606909188B0B2884244
:1055F00061D3D18888425ED837460DAE31464AF72E
:10560000B2FC002300930FA910AD30462A464AF79A
:105610009DFD069A28887E1EA042E6D1791C039E35
:105620004BE01446002511951095308810A94AF7D3
:105630009AFC08201099085E2946002806D4728832
:10564000B1883088B31D4AF7F8FC014622460806A7
:1056500023D10798008800B21446E94A0240C10BE2
:1056600009980140FF2081431143B088801D83B217
:105670003048224656F79CFA0546801DB288B11D77
:1056800058F714FD04986880B08805992970A8809F
:10569000284656F7A6FA22460021DB4804230C468A
:1056A000099956F785FA84703188018056F799FA7E
:1056B000002015B0F0BD039E0899080414D088B2EC
:1056C00010A900240AAB22464AF7D3FEB08802286C
:1056D00011D1F28810A8407880070ED40220104320
:1056E000022818D100210FE00C48FF2101800C484E
:1056F00008210180FEE70D210EE0022A214601D398
:105700007E20C143012A07D805980C460499FEF76C
:105710005FFC214600E08121029A98E700310050A9
:10572000023300505A350000CC8EFC0703280000DD
:10573000FF7F00000AFD0000F0B585B01E4614464C
:105740000D46104656F7E9FB002807D0204656F7CD
:10575000E4FB401E414241414800E3E0AA480423E3
:1057600031462246029356F723FA0746FC2001F001
:1057700085F904468020B870298804973980A27979
:10578000891AC9B2891E0B2938D8370A7944097990
:1057900049008F4405333633333366338E3333BB9E
:1057A0006A88A98828880397AB1D4AF746FC049F9E
:1057B000B87020889249014000B2C00B0640FF201B
:1057C00086430E433F208002FC220823314656F7D1
:1057D000EFF9044603984FF753FA002161602080E7
:1057E000687A00066060297A090408186060E9791F
:1057F000090208186060A97901222EE0049FB870A0
:105800008CE06A88A98828880397AB1D4AF715FCA5
:10581000049FB87020887A49014000B2C00B06404E
:10582000FF2086430E434248FC220823314656F7A8
:10583000BFF9044603984FF723FA002161602080E6
:10584000687A00066060297A090408186060E979BE
:10585000090208186060A9790222A27040186060ED
:1058600050E06A88A98828880397AB1D4AF7E5FBB2
:10587000049FB87020886249014000B2C00B064006
:10588000FF2086430E432848FC220623314656F764
:105890008FF9044603984FF7F3F90021A180208087
:1058A000E8790002A080A9790322A2704018A080A4
:1058B00028E06A88A9882888AB1D019303974AF7D6
:1058C000BCFB049FB87020884D49014000B2C00B5A
:1058D0000640FF2086430E43A888001D83B213486C
:1058E000FC22314656F764F9044603984FF7C8F98D
:1058F0002080201DAA88019958F7D8FB2879E070EC
:105900000298A070204656F76CF907E0A879E9796B
:105910000022049FBA70090208186081384656F7C1
:1059200060F9002005B0F0BD02FC000003FC00009F
:1059300001FC0000F0B587B01F4614460E4606A9CC
:105940000020087005AA049010703088FDF78EFEC4
:1059500005463946002846D101A852C0242001F04E
:105960008DF8034605A800788025032817D13E0A44
:1059700003998879C9790902081880B2002810D0E3
:1059800032460128029C039E01992CD106A800787A
:105990000121814016469818427F0A4308E0029C84
:1059A0001FE006A80078012181409819427F8A43B0
:1059B0004277188800B212490140C00B0740FF200F
:1059C00087430F430F481D4602233946029C224657
:1059D00056F7EEF80670A919497F417056F701F99C
:1059E000049D039E019908480423224656F7E0F8D7
:1059F00085703188018056F7F4F8002007B0F0BDBB
:105A0000FF7F000004240000160C0000F0B58BB0EE
:105A100004464AF789FA024602909188A0B200260D
:105A2000884223D3D188884220D8039404AF3946D2
:105A30004AF799FA0026009606AD07AC3846294683
:105A4000224633464AF782FB0A4B287821881A46B9
:105A5000FF32914201D1022807D09942039C01D123
:105A6000022803D0641C029AD7E7039EB0B20BB0A1
:105A7000F0BDC0460328000070B511490A880888A7
:105A800001242043088008881E2398430880A5022B
:105A90000C4845800525058005886D07FCD4808865
:105AA0000D8814262E430A25AE430E800D88A5438B
:105AB0000D801A400C889C43A2180A8070BDC04615
:105AC000220000500016005010B51321C943074AA8
:105AD000002909D0531860241B5D891C8342F7D12B
:105AE00050185F21405C10BD042010BDC025FD078B
:105AF000F8B5254FBC68204643F7D1F9324EF16D19
:105B00000022F2650D181549284658F755FA7861B4
:105B100013494143491919200001002902D0411AB3
:105B2000E13189B23961396808220A433A60716EFD
:105B3000002911D08C420FD90A4A1278002A0BD1C1
:105B4000327B002A00D11046611AB26D8918891D76
:105B5000814200D30146B165F8BDC0467102000024
:105B60008FFDFFFF64DAFC0780B506480021016065
:105B700001F03CF90120C00703490A6882430A602A
:105B800080BDC046AC76FD073000004080B543F7CD
:105B900086F980BD80B543F773F980BD10B5014625
:105BA0008000094A1418606F002800D010BD7434BA
:105BB00009020A31054804221E2355F7F9FFFF2187
:105BC00008310180206010BD4425FD07140E00003F
:105BD00000B59DB0E74FFF243C82002019907882E9
:105BE000E548082117910180E4480088C046C04676
:105BF0002346E34901200E90C871E24A108807212C
:105C00001B91884310800F20050205263407608D04
:105C10001A93D23315932F33099318420CD0284688
:105C2000FF3011880140700308181080108840214F
:105C3000014338208143118060880028169500D1E7
:105C4000D148CF4B9887618C0E9D29436184199967
:105C50001C911C99142902DA1C99491CF8E76189E6
:105C60000E9D294302251095A9436181618949064A
:105C7000FCD5608019981C90192080011C998142E4
:105C800002DA1C98401CF6E71896608903210F91F0
:105C90008843608160890006FCD5608C0E9988433A
:105CA0006084BA4D199A2A60608A40263043608227
:105CB000608A1396B04360826A61B548A86208049E
:105CC0001290E862208880211491084320801C9261
:105CD0001C98632803DC1C98401C1C90F8E70E9865
:105CE000AA4D2860AB480088AB498884AB4800685F
:105CF0000862AB480188D987408813995852199A8D
:105D00002A60608A08436082608A884360826A6190
:105D10009F48A8621298E8622088149B184320804C
:105D20001C921C98632803DC1C98401C1C90F8E70C
:105D3000964908681B9A9043086020889843208001
:105D40009848994958F7CBF9189E7102974858F727
:105D5000C6F9FBF798FE9648964930220D9258F7FF
:105D6000A5F99548199A027094489549016095489B
:105D70009549016095499648086096480A210B911B
:105D80000170954802709548322101709448066070
:105D900094480E9D05609448066094480621119130
:105DA000016093481B9901609248179E0660280283
:105DB0000C90801D9049086090490860904879498E
:105DC000016000F037FD28463CF7DBFD149B20897D
:105DD0000D998843208120891843208120892843F8
:105DE000109988432081208930432081208C1843DA
:105DF0002084608AB04360822089139908432081FF
:105E0000208A042188432082A08A8007FCD5208C28
:105E10000E99084320840803618DC9000140208C3D
:105E2000784A024050182084208C28210A91084387
:105E3000502188432084208C119908432084608A53
:105E4000179908436082208C9843208420891399F5
:105E500088432081608D0999084202D049481899E9
:105E600041800E9A960730686749084030603F20AD
:105E70004002664D29688143500318900818286035
:105E80006348401C2968014329605D4800683CF76D
:105E900011FA30680C9908431B9630605D48199ED2
:105EA0000671C6703888099089202081189828804A
:105EB000208814990843208020880F9988432080E7
:105EC000388810990843388000F0BAFE3CF778FD16
:105ED0003CF77CFD1CA806801A9B1CA80088902813
:105EE00004D81C98401C1CA90880F6E74A4A108870
:105EF000089050880790494DA8880690E88805903A
:105F0000D0880490508B03904548008802902888E0
:105F100001901999118051804248A8801598E88015
:105F2000D180C3202880404A179810801CA8018087
:105F30001CA80088902804D81C98401C1CA9088024
