:0200000407FCF7
:10000000B8E0FC072505FC072D05FC074505FC07A6
:1000100000000000000000000000000000000000E0
:100020000000000000000000000000005D05FC076B
:1000300000000000000000005F05FC070524FC072D
:10004000911DFC07B96CFC071D27F0070924FC076C
:100050003522FC076305FC07851DFC076305FC07CB
:100060006305FC076305FC074521FC074F21FC07DE
:100070005921FC076321FC076D21FC076305FC0780
:100080009D24FC076305FC076305FC076305FC076B
:100090006305FC076305FC076305FC076305FC07B4
:0200000407FCF7
:100510000348854601F012FC00480047915BFC0748
:10052000B8E0FC070F4880470F4800470420714699
:10053000084203D0EFF309800C490847EFF3088025
:100540000A49084704207146084203D0EFF30980A6
:1005500007490847EFF3088005490847FEE7FEE72B
:10056000FEE7FEE79586FC071105FC074522FC0720
:100570001D22FC0770B50E4604460022032151F7E8
:10058000EAF9054652F7B6FB6880284651F7F4F9B8
:1005900052F7B0FB7188884200D3084601462046D6
:1005A00051F7D1FA002070BD0246FF4B92009A58D5
:1005B0000120126900290ED0517F5E239B5C002B25
:1005C0000BD0052906D1517E090702D5917C090778
:1005D00000D400207047917DEFE70229F9D004296B
:1005E000F7D00529F6D10020EDE7024630B593009B
:1005F000ED4A0120D2581269137DD47E157F234025
:10060000547D2C40012901D0022909D1957C527ECC
:1006100015402A0704D41A462243D20700D10020ED
:10062000032901D0042904D1590702D4610700D459
:10063000002030BDF8B514460D4610465BF76DFC42
:10064000240A002830D0D949A2008B5801271E8BDC
:10065000BF023E431E83132826D0142824D0152819
:1006600011D088582D210A5C0123D10600290CDA0B
:100670000146A0318E7D002E07D08B753D2120468E
:1006800045F7B8FE10E00220F8BD110703D50021A0
:10069000A0308175F7E7A0308375204643F7A4FBAF
:1006A0002946204643F7E3FB0020F8BDFFB581B0A3
:1006B0001546170A10465BF730FC002838D013287F
:1006C00036D0142834D0290A8C00B84E152815D0FD
:1006D000FF20294603305BF707FD30592D21095CC7
:1006E000C90603D5A030C07D00280ED03D026D1C88
:1006F000A8B25BF712FC19280CD00FE03059012189
:10070000A030C175022005B0F0BD3D21384645F747
:1007100071FE0DE0A8B201215BF7CDFB305901223B
:10072000018B5202914301833846029943F79FFBA4
:100730000020E8E7F0B59D498700C95900268031BF
:100740004A8C8B8C1B2A00D21B228C8B944200D2A9
:1007500022468A849A4200D001260B8CCD8C1B2B1A
:1007600000D21B23CC8B9C4200D22346CB84AB42CD
:1007700000D001260B8ECD8D9C46FF2349339D4230
:1007800001D21C4600E02C460D8DA54200D3254623
:100790000D86654500D001264C8EA4468C8D9C426A
:1007A00000D21C464B8DA34200D21C464C866445A9
:1007B00000D00126EB080B3B9BB29A4200D21346B5
:1007C0008B86522379495843794BCA591C68803229
:1007D0000419D28C8034E285C9591A688031801896
:1007E000498E803001863046F0BD10B50446714810
:1007F000008D8007800F012800D000206071002844
:1008000007D057F7F3FE01460622A01D5DF74EFC08
:1008100010BD06226849A01DF8E770B50546002402
:1008200042F7A9F82855641C082CF9DB70BDF8B50F
:10083000022707700126044646700D4688795F49F5
:10084000C96988472A210855287900210007000F27
:10085000A07003005DF77EFC07050709100D100B63
:100860001000A1700AE0A67026E0032002E0A77045
:1008700004E00420A07001E001281DD0A888000A2F
:10088000801FC0B2A0721F2800D9A172284642F76B
:1008900027F9811D2046A27A0B305DF707FC284618
:1008A00042F71EF901460622201D5DF7FFFB28795D
:1008B0004006C00FE070F8BDA172F0E7F7B54468DC
:1008C0008CB02546243503950546074624354CF75C
:1008D0001BFA06464420405B5221484334490968CC
:1008E0004018C0304089694608840121384647F7DE
:1008F0004AF94CF77EF809900E9800698088000A42
:10090000C1002F480818298940182D495B315DF72F
:1009100053FB01466868039D4718403528890690B7
:100920000090A0680099381A400140095DF744FB27
:100930000A910098C019401A400140096946A06018
:10094000098C4900C919891C49014909884204D206
:100950000699401840014009A06001460998081A0C
:10096000400118494009884215D900202B89A26806
:10097000401CD21852015209A260EA89521CEA8135
:10098000A368099A9A1A520152098A42EED801B212
:100990000D9847F799F9A1680998081A4201607DF6
:1009A0005209824221D80FE02C7EFD071879FD07FD
:1009B0004C76FD074C7EFD07CF79FD07B47FFD0720
:1009C00016020000FFFFFF032A898918490149091F
:1009D000A1602A890A99511A814206D901210D98EC
:1009E00047F772F9E889401CE8812989A0685DF71A
:1009F000E3FAF1802889B080208A3081A88870814C
:100A00000020B081C807C00FB073A88852214843A6
:100A10008E30308230464CF782F903984663204688
:100A20000FB0F0BDFFB5002093B006460124FE498B
:100A300049680A7821460C2A0CD06A4611730022B4
:100A40001192002E09D015990291169D1F2D54D98F
:100A5000402052E000242246119413990291149DE3
:100A6000F4E7029989184978012905D0172903D09C
:100A7000182901D0192912D1631E04E003AFFF5CCD
:100A80008F4204D05B1E5BB2002BF7DA03E0002B31
:100A900001DB4A2003E003AB1955641CE4B20B00F0
:100AA0005DF758FB1D2610101010101010101026A6
:100AB000262626262626262626262626101010102E
:100AC00010102600119B03E00BAFFF5C8F4204D097
:100AD0005B1E5BB2002BF7DA03E0002B01DB4A2040
:100AE00006E0119F0BABD9551199491CC9B2119160
:100AF0000299895C521C89188AB2AA4201D2002844
:100B0000AFD0AA4200D04A20761CF6B2022E01D203
:100B1000002894D017B0F0BD10B50022134607E0AE
:100B200084186478012C07D0845C521CA21892B2FD
:100B30008A42F5D3184610BD80188378FAE7F0B5DD
:100B40000646A9B01546002084006318DA789F781D
:100B500012025B783A4352BA1B041A430B5D072416
:100B60001B061A43231A9F0020AB401CDA510828A9
:100B7000EAD300218A0090190746C37880781B02C7
:100B8000034378785BBA00040343B05C10AA000604
:100B90000343601A800013503846223043780078AF
:100BA0001B0203433846203047785BBA3F04007885
:100BB0003B43000603430F27781A8000491C13505B
:100BC0000829D7D35CF706F9014630465CF77FFD6C
:100BD00000282DD05CF7FEF8034620AA10A968462D
:100BE0005DF780F900226846A11A8B009600C75C69
:100BF0007119CF70C75A3F0A8F70C7583F0C4F709A
:100C0000C35820311B0EAB550F239B1A9B00C65CAB
:100C1000CE70C65A521C360A8E70C658360C4E70AC
:100C2000C3581B0E0B70082ADED3002029B0F0BD7C
:100C30000120FBE7F7B500251746064641232A4663
:100C400029460A205AF7B4FF0446002E10D0012E80
:100C500002D0022E0CD105E02022611C002041F7B9
:100C6000A3FE04E0621C3946019841F74DFE207056
:100C700020465AF7B6FF2846FEBDF8B56B480090EF
:100C800007680C46002F7BD005461C35287E0028BF
:100C900076D0012802D0022872D102E02078002804
:100CA00019D038896249002688423AD107204BF78B
:100CB00023FC002835D042233E2200215D485AF70C
:100CC00077FF082101702178002913D0032141709A
:100CD0002178817043E055480226611C14302E763D
:100CE000202204465DF7E2F922465349304641F797
:100CF00015FE45E0002146701F22531A1B194718A4
:100D00005B78491CBB702029F7DB00213F22531A76
:100D100047181B1920375B78491CBB702029F6DB6C
:100D20001DE043493889491C88421AD108204BF7F5
:100D3000E3FB002815D022233E2200213D485AF72C
:100D400037FF09210170217800291BD01221417041
:100D50000021FF224318491C9A702029FADB4DF725
:100D6000D7FE2E7640205BF7A6FB009841F7DAFE0F
:100D70005AF761FF00980068002801D041F7C9FDCB
:100D80000020F8BD002146701F22531A1B19471876
:100D90005B78491CBB702029F7DBE0E770B5087869
:100DA00000250C46012809D01D2810D02B2812D070
:100DB0004022194655F7BCFE284670BD5BF765FA20
:100DC0001948012504601D4857F745FAF4E71C4807
:100DD00041F708FDF0E71B4801680029ECD101212B
:100DE0000160194841F704FEE6E770B5104D174C55
:100DF000223DAB422ED10F4809232A460021C01EB6
:100E00005AF7D6FE044608221149401C5DF74EF9F8
:100E100020790821084320710025257020464DF7D0
:100E200077FE284670BD00004C7EFD07287AFD073E
:100E3000252000000408000089E7F107030C0000EA
:100E4000C3C3C3C35077FD07CC7DFD070DC3F007B7
:100E50005CE5F107A047E5E7F1B584B00498FF49E8
:100E600080000C5804980502A81D0290002C15D093
:100E70006068818804290CD34188861D0C38009154
:100E800001903146049857F7BCFFF549884206D1D6
:100E900060680C385AF7CFFE0020606033E4F178C8
:100EA000B2780F02019928431743C880384640386A
:100EB0003F2819D803223946049854F729F8060028
:100EC000E6D0B07B0128E3D13420B07329460A3143
:100ED0000423E448029A5AF76BFEB189418010213D
:100EE00001705AF77EFED3E7616834200870022152
:100EF00000985AF74FFD05463146009A5DF7D6F83F
:100F000068782978000208436168C880E878A97881
:100F1000000208436168062F08810BD0042F09D016
:100F20006068052F10D00C385AF785FE28465AF70E
:100F3000ACFDB1E760688188052913D329798172F6
:100F40006168287988720DE0818805290AD329799A
:100F5000817261682879887260688188062901D366
:100F60006979C17260685AF73CFEDFE7FFB587B068
:100F70000E4609985AF7D1FF0999090A03910028EA
:100F800076D08800B54905900D58B749B079096BFE
:100F90000A225043B478081841F7A2FD019068680E
:100FA000002808D0012C2DD00398FFF755FF686862
:100FB000002802D026E0022C5AD1B088012702284E
:100FC00005D30198417800780C02044302E051F700
:100FD00091FE044651F78EFEA04201D20224002762
:100FE00020464C3083B29E49A048099A5AF7E0FD4A
:100FF000241D68604480002F01D0002000E03420D0
:101000006968087068680028BAD0811D0091B288AC
:101010000199841C071D01928088238882189A42B6
:1010200009D8009A8018019A5DF740F8398801982C
:101030000818388009E01A1A009BC0185DF736F8C6
:1010400020883880696834200870388804280FD3D5
:10105000009841780278080210432188001D8842D8
:1010600007D280B220803988814207D9388002E0D7
:1010700068E0884202D9696834200870388821887D
:1010800088425FD1686800990C380190039857F73F
:10109000B8FE69680978002951D1714988424ED05B
:1010A00003990F0201993843C880208802210190DA
:1010B0005AF770FC0490228800995CF7F7FF0498B7
:1010C00000283FD0696800208880019802226B4682
:1010D000039907C36868049B821C011D801D41F7AA
:1010E000D9FB6968087004985AF7CFFC6868418892
:1010F000002902D00178002954D0018940393F29C4
:1011000044D8017830291ED00146544A05980C393C
:101110001058083041F722FD69680398891D41F78E
:10112000CAFB4628686801891FD00322039853F739
:10113000EFFE00282CD0808A00282CD028E00398CD
:10114000FFF78AFE42E04A49098D0906C90F07D018
:1011500048490C380968099A898D89B25AF75EFDA9
:1011600068680C385AF767FD12E00322039853F7BA
:10117000CFFE04000CD039460A3104233948099ABD
:101180005AF716FDA1894180102101705AF729FDF7
:10119000002068601AE0686800220189039841F71E
:1011A00085FBF5E70189084640383F280ED8032221
:1011B000039853F7ADFE002808D0808A002805D197
:1011C000686800220189039841F770FBB07941F704
:1011D0007AFC00200BB0F0BDFFB58BB00646169828
:1011E0000027022821D00D980188149881427DD3D0
:1011F0007188084640383F2802D8159853F7C9FE31
:101200000C98361D0088149A80190E995CF74EFFD1
:101210000C980188149808180C9908800D9801887A
:101220001498081A0D99088069E100200E9D079016
:1012300069782C78090221433180E978AC78090279
:10124000214371808C46403904242D1D02460346FB
:101250008E46402900D3287861460DE0AC7DFD071D
:10126000FFFF0000260E0000E078FD07010A0000E5
:101270004C7EFD075876FD0704291FD0052914D0A0
:10128000062918D070463F283ED8159853F781FE9E
:101290000006000E04D0FC48008D0006C00F31D0BF
:1012A00002230120F94A002712E0697800290FD0B3
:1012B000F74A17230CE0F74A0F2309E0522802D01F
:1012C000D22802D002E0142000E01520F24A1F23A9
:1012D000002A7DD098427BD28000105804900028CC
:1012E000F7D0002008900590708800E006E14038B3
:1012F000402803D32878052430716D1C701D0090A0
:101300000498AFE03027EDE03327EBE0522864D0BB
:101310000CDC4B283FD004DC41286AD042285AD14B
:1013200011E04C2820D0502855D140E0632830D01F
:1013300004DC572818D061284DD19BE06C2864D07C
:10134000772848D109E00098297801700098641C3A
:10135000401CA4B26D1C009081E00498401C0490D5
:101360000178089881427AD10098A41C401C410859
:101370004900881C009068782A7800021043088091
:101380000599AD1CA4B2002969D0089000200590F1
:1013900065E00120FBE71022294600985CF786FEF5
:1013A000009810341030A4B21035009057E0204659
:1013B00040301499039088420DD840222946009865
:1013C0005CF774FE009840300090039884B200E00F
:1013D00079E0403543E0342741E00822294600986F
:1013E0005CF764FE009808340830A4B20835009019
:1013F00035E00622294600985CF758FE0098A41DA7
:10140000801DA4B2AD1D009029E01498001B80B28D
:1014100003903088001B001D81B2012007900498C2
:10142000401C04900098401C400840000090049824
:10143000007857281CD04228CDD100980170090AA5
:10144000417000982946801C0090039A5CF72EFE9C
:1014500003980399201884B20098401800900498CB
:10146000401C04900078002820D0002F19D01DE0E7
:101470004908E2E71498001B80B203900098039A91
:10148000401C41084900012000910790294600981E
:101490005CF70CFE03980099201884B20398081892
:1014A000DCE70D990988A14200D32FE70D98008849
:1014B000A04208D304990978002904D1079900298A
:1014C00003D1A04201D034270CE00D99001B088005
:1014D0000C9801880098801B001F08180C99002F99
:1014E00008800CD07088042809D0062807D040381E
:1014F000402804D30E984079707100E034273846B4
:101500000FB0F0BDFFB581B01F4616460C46104621
:101510005AF703FD00253F2802D02189062908D06B
:101520003B4632462146019854F7BFF80546284607
:10153000B4E4000701D50225F9E720780028F6D1A8
:10154000300AA11D41F7C1F8F1E7F3B581B0019868
:10155000524C850060590F464068CE8801462431C0
:10156000009146F7E3FE00994D4A40310091C98948
:10157000701A80B2904214D2B14212D060593146F2
:10158000406845F78CFF60590522791C1F305CF7D5
:101590008DFD019805210002401C80B25AF78BFC9A
:1015A000FEBD60590522791C1F305CF77FFD009855
:1015B000808841F767FFFEBDF8B53A4C06468500C6
:1015C0000F4660594821095C24290ED10069102278
:1015D000791D2E305CF76AFD615925204031087273
:1015E00000221146304652F739FE60594821095C05
:1015F0000C291FD100691022791D2E305CF756FD91
:1016000060595F210069095C09072DD401462E311C
:1016100010221E305CF76EFD00280CD060590921A5
:1016200040300172304653F737FB01460022304606
:1016300052F79FF9F8BD0421684601706A460521FA
:10164000304652F741FB6846017860200143684606
:101650000170304653F720FB0146684602780123AB
:10166000304652F79BFAF8BD304653F715FB012878
:101670001AD06059072140300172002211463046CD
:1016800052F7ECFDF8BD00004C7EFD0714F3F107A6
:101690001CF3F10778F3F107B4F3F1071879FD07AC
:1016A000FF7F00002C7EFD07615900200969C031D1
:1016B000887160590421026930461E3252F704FBDA
:1016C000605901694031897F002907D01A214030D3
:1016D00001720021304652F74BFED3E71B21403008
:1016E0000172304652F799FECCE7F8B5E64C054654
:1016F0008600A0594822125C192AC3D140224930E1
:10170000491D5CF7D3FCA0594022E04949305CF701
:10171000F1FC002805D0DD492846203959F749FF5A
:10172000B0E70B21684601706A460521284652F74A
:10173000CBFA68460178602001436846017028466C
:1017400053F7AAFA0146684602780123284652F761
:1017500025FA97E7FFB581B003980C46060A0025E5
:101760005AF7DBFB002818D0132816D0142814D001
:10177000C748B700C0592030407BC00628D5039821
:101780005AF7CBFB15280CD0A07941F79CF93046CD
:1017900045F7B3FD032806D015E0A07941F793F98A
:1017A0001FE002251DE0BA48C0592030407B4007A9
:1017B00004D53D21304641F7BEFD04E03D22002125
:1017C000304641F7C6FD3D21304644F713FE08E0A0
:1017D00020460C38AF498180C68020464DF798F9E5
:1017E00001252846A4E6F1B58EB00E9841F778F9A8
:1017F00004460E98694600794006C00F0A9006908C
:101800000A208883628BA449101A88427ED2E08A1B
:1018100006287BD31921C901884277D8238BFF2161
:10182000F5318B4272D85B1C990059184143491C11
:101830000A2349105A43914268DC217F00290CD1C8
:10184000617F002909D1A17F002906D1E17F00290C
:1018500003D12021095DC90658D027462037797861
:10186000C906C90E491F0C2950D2A18A81424DD800
:10187000E17C00294AD0421E082A01D9082000E054
:10188000401E814242D805A844F79CFD00283DD166
:10189000824D0622E861214608A85CF707FCA8787B
:1018A0002E46803E00287ED06079800901280AD02B
:1018B00020460A994AF7C4FE00285ED03821095C08
:1018C000002954D059E020464AF727FFE861002854
:1018D00004D10BA920464AF736FFE861F16A887AFD
:1018E000012801D0042810D1E86900280ED0062272
:1018F000253010315CF7FEFB002807D1E869F16A5A
:101900002030C07AC97B884200D100E0A2E0E969BA
:10191000002932D0062208A825315CF7C7FBE86908
:101920002B21095C07AA253006914AF76BFD002898
:101930000FD0E8692030C07A002811D16846584994
:10194000808B49F711FD07AA012155484AF75AFD36
:1019500006E007AA01210BA84AF754FD00280CD085
:10196000E9696846808B323149F714FD05E0421879
:10197000527D002A08D010296CDBF06A407A0228D8
:1019800006D0032804D00EE0491C1029EFDBF4E751
:101990006846808B0A2806D307AA20460A994AF788
:1019A00031FD002856D0002205A920464AF7D4FD73
:1019B00000284FD1F06A407A02280BD0032809D0C2
:1019C00000236846828A08A806994AF7E6FD00289F
:1019D00002D02EE00123F4E7E18A68460180218BE2
:1019E0004180618B81807878062241096846817345
:1019F0007878C106C90E684641732146801D5CF7A0
:101A000055FB0E9800794006C10F68460173838A22
:101A10002146B26D45F783FC0146B065684641F743
:101A200029FB0020B065214668461C31808A44F7B6
:101A30001CFD47F7BAFC194C20342079002805D04A
:101A4000002109205AF750FB002020710021084690
:101A50005AF731FA54E510B57022124912485CF772
:101A600025FB10493822383910485CF71FFB0E4817
:101A70000F49A03001600B49703941600A490D4897
:101A80002039086010BD70472C7EFD07EC7DFD07F6
:101A90001879FD0706080000770C0000E479FD07BF
:101AA00004E5F1074487FC0720000840C000FC075C
:101AB0008CBFF107FF3F1000F8B53E4C6088C607A9
:101AC0006088F60FC005C50F608840084000608040
:101AD0006088FF270137B843608040F771FF40F707
:101AE00075FF00220821022040F764FF002800D083
:101AF00001206188A18861884908490031436180DB
:101B000061882A02B94311436180F8BD70B501258F
:101B100029492A020A60BFF34F8FBFF36F8F27490D
:101B20000A6027490B681C0A240240231C430C60EE
:101B3000214980390A601F494C880626B443241D78
:101B40004C804C882C434C804C8838252C434C804E
:101B50004C889C434C8001280FD14888330218439D
:101B6000488048881043488048882A0210434880AB
:101B70004888012292039043488070BD10B5114CF3
:101B8000E18A114ACBB21189248BC904890E6404FD
:101B9000640E001B093141430120C002401A80B28B
:101BA000584340031189000E090A090201431181BB
:101BB00010BD00002020005080E100E080E200E045
:101BC00008E400E000230050002C0050F8B50202A9
:101BD00005464123092134480A3259F7E9FF2721F4
:101BE0000170044600201F233049AA008F581E1A96
:101BF0004936BE5D2718401C7E702028F6DB002089
:101C00003F238E581F1A4937F65D27182037401C8E
:101C10007E702028F5DB5BF7DDF80146601C5BF782
:101C200056FD002812D10A2000906A460521284658
:101C300052F74AF8284653F72FF8009960221143CB
:101C4000CAB201460123284651F7A8FF204659F79A
:101C5000C8FFF8BD70B505460446008914490C3428
:101C600088B088421AD100201F216E460A1AA25C51
:101C70003254401C2028F9DB2022314620465CF7F4
:101C800015FA00203F210A1AA25C3254401C202879
:101C9000F9DB20226946A0185CF708FA284649F7C4
:101CA00024FB08B070BD0000270D00002C7EFD074E
:101CB00026200000421E5378521C002BFBD10B78CB
:101CC0001370491C521C002BF9D17047421C01783B
:101CD000401C0029FBD1801A7047F0B51FB406469E
:101CE000002082B005464024019100901BE001993C
:101CF00022460F46304600F033F8049A059B801ABE
:101D0000994110D31046194622465CF713FA361A49
:101D10008F410197224601200021009F5CF70AFABB
:101D200038184D4100902046641E0028DFDC019BDE
:101D300000982946324607B0F0BD0000064C012548
:101D4000064E05E0E36807CC2B430C3C9847103463
:101D5000B442F7D3FEF7E0FBD4D8FC0704D9FC0764
:101D600010B5202A04DB0846203AD040002110BDDF
:101D70000B46D340D0402024A21A91400843194674
:101D800010BD000001480121018070470815005076
:101D9000F8B505273C0760898007574E22D0A08AF6
:101DA000400701D504F026FD218C802001432184C9
:101DB000FF21718004213180218830220A43228052
:101DC000218803220A4322804C49F288B3881204F6
:101DD000D2188A42F9D337804949898F6180218C92
:101DE00081432184474801884907FCD42088302555
:101DF000A8432080228803208243228000220123DE
:101E00001A4041490A703A0654D07F1E0097328822
:101E1000022717439F433780042272803788174375
:101E2000378022882A4322802288024322803288F7
:101E3000520701D500BFFAE722882946AA4322802B
:101E40002288054682432280F288B7881204D2197C
:101E50002E481218042A14D94222002728488752F3
:101E6000077B002F02D0192217012548826D921C92
:101E7000BA4200D33A4682651A4628460D46009F6C
:101E8000BDE742231E48C25A521CC25292B2142AC3
:101E900028460FD300221A48C2520246007C00286E
:101EA00000D01320926D521E824200D80246144880
:101EB000826528466189890706D0618981436181ED
:101EC000608C012188436084208980210143218125
:101ED000208A042188432082A08A8007FCD540F70D
:101EE0004EFA0748006E0A4908600A48016801680E
:101EF0004907FCD5F8BDC04600160050E9030000B4
:101F00004425FD070833005024DAFC0761F8FFFF81
:101F10000802004010000040B0B5054D054C28886F
:101F2000C00703D0204605F0D7FDF8E7B0BDC04696
:101F300040300050A0860100B0B5A64C2021218081
:101F4000034902250D8004F053FFE587B0BDC0466C
:101F500044300050B0B5994920220A80784C0225BF
:101F6000658004F045FF2580B0BDC046F0B589B05E
:101F7000069021200290C04303900025634A6548E3
:101F8000101801900878002800D1B8E0020611D49A
:101F900005950491202809D340015C4940185C490B
:101FA0004618304620300199884221D9059D0C35CC
:101FB0000499A2E000221446052A00D19CE00346C1
:101FC00093401B0602D5521C641CF5E74D4A144091
:101FD000042C30D0032C42D0022C00D08CE04C7862
:101FE000002C00D188E00595491CC006420D43E055
:101FF00005980A300890002188B20F28D6D8069894
:1020000007910D180024A0B20A2810D807272740EE
:102010003078B840000605D50898001980B2A9B2FA
:1020200000F078F9072F00D1761C641CEBE70799C4
:10203000491C761CE0E74A78002A5DD08B78002B9B
:102040005AD0CC78002C57D00595C91C4007C00A3F
:102050009206920B10189A06120D82180CE04A781C
:10206000002A49D08C78002C46D00595891C0007A1
:10207000000C9206120D12183F20204010433AD057
:10208000214A921D4326761E35D013462333039CE6
:10209000A4182025655D2D04029FE45D24026419C7
:1020A0001278A21882421A46EDD1049103981E18A4
:1020B00005980A300890002188B20F281AD806988F
:1020C00007910D180024A0B20F2810D80727274029
:1020D0003078B840000605D50898001980B2A9B23A
:1020E00000F018F9072F00D1761C641CEBE7079964
:1020F000491CE1E70499059D1135491C42E709B0E7
:10210000F0BDC046FF7F000070C7FC078CBBFC071A
:1021100004FCFFFFE40B0000F8B50446A04D084E98
:10212000002C0BD0202025490880022777802878B2
:1021300004F05EFE3780641E6D1CF1E7F8BDC046FA
:102140004230005080B50A2000F046F880BD80B5CE
:102150000B2000F041F880BD80B50C2000F03CF869
:1021600080BD80B50D2000F037F880BD80B50E2011
:1021700000F032F880BD000070B5032800D10420C3
:1021800040010E4C049D002D03D001258D400553C8
:1021900003E0251801268E406E8013434900611824
:1021A0000818838070BDC04601228A40032800D1F0
:1021B00004204001014942527047C046023000509D
:1021C00001228A40032800D10420400101494252E3
:1021D0007047C0460430005070B5C0B203460A3B99
:1021E00001210A469A4093B20A4C1C195C406608C9
:1021F000094B1C880025360402D06D1C760CFAE7CA
:102200009443AAB20D46954025431D8081401A484B
:10221000016070BDFFFF01000E1400500348FF2154
:102220000180034808210180FEE7C04600310050CC
:1022300002330050024800880F48102101607047A7
:102240002C1300500B48018904220A4302810189A2
:1022500002220A430281018840220A430280064981
:1022600001220A604189054A11408918091D4181EE
:102270007047C0460800005080E200E0FC7F00008C
:10228000FEB5002102910278002A32D01146303981
:102290000929009007D87D21C90051431648081824
:1022A0001649461802E03A2A124E1DD10027642F23
:1022B0001AD00A247C43019750370025A8B2502831
:1022C0000FD20721A943C0082018305CC840C007BE
:1022D00005D00298281880B2B9B200F01BF86D1C26
:1022E000ECE7019F7F1CE2E70098401C0299503107
:1022F000C8E7FEBDA4B7FC079490FC078044FFFF2D
:10230000264801210177017501740176017301727C
:1023100001717047F0B5214A536A4324A400E41ABE
:1023200001DB202400E02034167A4B25AD00002E7E
:1023300001D02E46643686422FD3167B002E2F46C0
:1023400000D137468F4228D3167C002E01D02E466E
:102350006436864221D3167D002E00D135468D424B
:102360001BD38B4219DCE4188C4216DD147F002C41
:1023700013D0C91A127E002A00D032224A43C10863
:1023800051188A09182A08D8054A535C07242040A6
:102390008024E44304411C405454F0BD58DAFC0747
:1023A000011FFD077047FEB502920A4601900932EF
:1023B0000C2110465BF700FE0E460A2708463946F8
:1023C0005BF7FAFD0446992045006E43701D3946BF
:1023D0005BF7F2FD029908180199091B8CB2A2085B
:1023E00080183B354D434519642120465BF7E4FDD9
:1023F0002D1A1920010120465BF7DEFD2818401E2A
:1024000080B2FEBD70470000F8B5224CD64E224F78
:10241000A1880F200840022806D004281ED00C28CE
:102420001FD00128F4D133E0A44880694C22B15A6E
:102430004823F55AA9421BD2A388C0251D40C02DB0
:1024400003D13B889B0703D4E2E7238A9B06DFD5B1
:102450004B1CB352415C221F1180E7E705F05EFC84
:10246000D6E705F05BFC2088012188432080CFE778
:102470002088022188432080208880218843208072
:102480008E48C0690028C3D0F05A05F0F9FBBFE7B9
:10249000F8BDC046041100507C1100500520000713
:1024A00001883022914301800188032291430180F9
:1024B0000421415E002906D50E490A88520702D53B
:1024C0000A88D2070DD18088C00609D50A4801883C
:1024D000090605D501218180018880229143018070
:1024E00070470888022202430A800888012290432C
:1024F00008807047000200500001005010B50468C9
:10250000091BFF31994208D3194606E0137823705E
:1025100003685C1C0460491E521C0029F6D100208F
:10252000207010BD3748018802220A430280054905
:10253000491C02D202889207FAD400210181408905
:102540007047C0465F79FEFFFEB50546144802900D
:1025500002AC204600F028F8142000F05FF80720B5
:102560008601002D00D08036264F38880D4908405E
:1025700080193880FFF7D6FF0190012000F04EF857
:102580000025A570204600F00FF83888054908405E
:1025900080193880FFF7C6FF3D8001994018FEBDC5
:1025A000010001013FFC00001649174A0A80002281
:1025B0004A80164A40231360BFF34F8FBFF36F8FDB
:1025C00000281ED00A88124B13400278D2021A4308
:1025D0000A80104A40320B881340427892011A4315
:1025E0000A800A880C4B1340827892021A430A80B0
:1025F00009224A804A8802239A43C0784000104347
:1026000048807047001500500140000080E100E064
:10261000FFF70000FFFBFFFFFFFB000000280CD0CE
:1026200000BF00BF00BF00BF00BF00BF00BF00BFB2
:1026300000BF00BF00BF401EF0E77047F8B523247D
:10264000CA4800571D4E354660351D4900282F46A3
:1026500000DA0F4603F0BEFFC449085D0C467F2137
:10266000014078182636062231465BF71FFD2220EE
:102670002146205C009021268C5D1248092104220D
:10268000412359F795FA0746447010203870B81C5A
:10269000294622465BF70AFD009ABA553846223091
:1026A00007495BF703FD384659F79BFA0648074987
:1026B00000F0EEF92021AD4A5054F8BDC025FD07C9
:1026C0004026FD070E0D0000B80B00003D26FC075C
:1026D000B0B5A648817D012920D1C37D591E8B410B
:1026E000017E002900D007219B01C57E804C002D72
:1026F00007D001258D40A11C0B431D800A23002417
:1027000006E02343012425468D401D807D218B005A
:10271000C476764811461A4600F0F0FC0020B0BDA1
:1027200070B59249087F01280BD101235C024E7FCE
:102730000F480E4D012E0DD16C8000234B770A23DC
:102740000CE001204002094908800948042159F79A
:10275000CBFC07E02C804B774B218B0011461A46AF
:1027600059F778FC002070BD4425FD074230005029
:102770001504000070B59A48092104241C23224640
:1027800059F716FA05461B2028702426304603F018
:102790007BF90121A9742C820021E981064AAA81D2
:1027A000FF2202322A816C606E806870A97228460E
:1027B00059F717FA70BDC046AD270000B0B5044602
:1027C000242040F73CF801460920800204221346E9
:1027D00059F7EEF9002545700470644C617D8170F5
:1027E000C57059F7FEF901202076FF210231E18200
:1027F000617D002900D16575A076144804210A2264
:1028000059F728FCB0BDC0461FB5144606220292F7
:10281000044A0192069A00921A46234600F002FBEF
:1028200004B010BD0C8EFC0710B5144600F010F873
:102830004E48827E002A00D0034A0448214600F018
:102840005DFC002010BDC04670170000130400009E
:10285000B0B501F013F80446444D687D84420FD2B0
:1028600024203FF7ECFF01461F480422022359F7BA
:102870009FF944700021017059F7B3F96C75204637
:10288000A97D01292ED1194C062814D8E97D1848B4
:10289000002900D040302A7E0121002A01D10A46B9
:1028A00000E080220280E9767D208200042120461B
:1028B00059F7D0FB687D0D2814D3A87D01280BD1D2
:1028C000E97D0B48002900D04030297E002901D144
:1028D000012100E0802101800421204659F704FCF9
:1028E0000020E876B0BDC0460224000014040000B9
:1028F0000230005070B53A480921042418232246BA
:1029000059F756F905461B202870FD26304603F07E
:10291000BBF80021A982E96029616C606E80687053
:10292000284659F75EF970BD0120704780B50F4801
:10293000C17C032907D1017D01290CD10021C1747B
:102940000175012080BD4A1CC2740C20484308490F
:102950000818406806E04A1C02751C20484305A17F
:102960000818C0688047002080BDC0464425FD0788
:10297000148DFC07FD0000008C8EFC070E0000008B
:10298000F528FC0700000000000000000000000027
:10299000FF00000000000000000000000000000038
:1029A00000000000000000000000000070B50C48AE
:1029B000092104240A23224659F7FAF805461B2068
:1029C00028701426304603F05FF8FF217431298106
:1029D0006C606E806870284659F703F970BDC04678
:1029E0001B0D00001FB5144601220292044A0192F9
:1029F000069A00921A46234600F014FA04B010BD5D
:102A00003C8EFC0710B5044601020A310948042235
:102A1000022359F7CDF80C216143074A5118372298
:102A200000238B54132141700121017059F7D9F80B
:102A300010BDC046040E0000C025FD07F8B5009289
:102A40000D468100104A56585418002E0AD1010232
:102A50000A310E4804271E233A4659F7A9F80646BC
:102A600007702060B71C102138465BF738FB3846EA
:102A70002946009A5BF71AFB01207070304659F71F
:102A8000B0F800202060F8BDD41EFD07140E000031
:102A9000B0B502461A484430002423460A2B0BD016
:102AA0000568002D02D0001D5B1CF7E701605C1C6F
:102AB000E0B2114600F072FFE0B2B0BDF8B50446D6
:102AC000401E09281AD8A0000D494718386C002864
:102AD00014D00C4DA84211D040370B482018401C90
:102AE0000426314659F700FB3D600823064831466D
:102AF000324659F75DF8047059F773F8F8BDC046CF
:102B00004026FD07297BFC0702040000F0B585B0D4
:102B1000039302920E4607460020041D242C0ED07B
:102B200004A900910A490D5838463146029A039B80
:102B3000A84700282046F0D104A8007806E03846CF
:102B40003146029A039B05F0CFF9002005B0F0BD95
:102B5000648EFC07FEB5064608050D0B002800D064
:102B60006D1C002D00D1012583480640FF20002464
:102B70001A4F0195AC422CD004F0A4F9002828D1BA
:102B800004F020FA002824D1022004F035FA0120B4
:102B900040070296304304F043FA0026104D04F03B
:102BA000D9F9C0070CD038880006F8D52868000489
:102BB000F5D40C4886420BD0761C59F70EFCEEE794
:102BC000029805490818461C641C0020019DD1E7A5
:102BD000FF2040B2FEBDC046FF0F000008000050BD
:102BE0003000004080841E00F0B585B08A4206D2D5
:102BF000A648FF210180A64808210180FEE704467F
:102C0000101F02900492D01E01900091C81E0390E4
:102C100000252846C7B20398874215DAF84304997D
:102C200046183FF7A8FE010EA155A119491E020C36
:102C30000A700199C91B020A62540299C91B6054A7
:102C4000381D291DCDB2E5E70098401B0106002381
:102C5000DE43002914D075430499091949194D1E02
:102C6000C0B2C70003933FF786FE039B18217A1872
:102C7000182A05D00246CA402A70AD190839F6E76D
:102C800004980099411AC8B20919491E002803D0B6
:102C90000B708919401EF9E705B0F0BDF0B587B09B
:102CA00015460E46049034480840884202D130460A
:102CB000294608E0A9190A467240120B05D00122E4
:102CC00012038018091AFFF745FF0024204604F07C
:102CD00093F92A488068871BAF4200D32F46012012
:102CE0000390000206903018FF218843411E019492
:102CF00025463C460297BD423AD2A019884205912A
:102D000001D9881B441C04F0DDF8002831D104F0FF
:102D100059F900282DD1022004F06EF904F08CF846
:102D2000039840060643304604F062F8002004F0A1
:102D300063F9A0B206998842264600D3069E0498FD
:102D40004719300405D0387804F052F8761E7F1CFD
:102D5000F7E704F069F804F021F9002809D1069892
:102D6000059908186519029F7C1B4E1C0146C2E795
:102D7000019807B0F0BDC04600F0FFFF18DAFC076D
:102D80001FB514460E220292044A0192069A00923E
:102D90001A46234600F046F804B010BD648DFC07C7
:102DA00010B5014601200A4A914210D3121D9142EA
:102DB0000DD8029CF231C8B28100064A5058002852
:102DC00003D0511800220A6080470020207010BDF7
:102DD0000E040000C01EFD071CB52823744CE35CE4
:102DE000132B03D101AB04F085F81CBD0020C043B8
:102DF0001CBDC0461FB5144607220292044A019228
:102E0000069A00921A46234600F00CF804B010BD52
:102E1000D48DFC07E0B504F0A7F801A804F016F87B
:102E20008CBD0000F0B585B001250C9C002C20D095
:102E300001950291039304920B9B0A99E500ED180A
:102E4000083D661C104B761E012E11DB2C462F8888
:102E5000874203D02546083D9F42F4D16468002C88
:102E60000AD00D4602AB0ECBA0472870002500E02B
:102E7000019D284605B0F0BD9A48FF2101809A487F
:102E800008210180FEE7C046FFFF0000003100502E
:102E90000233005070B50B480424092122460B462A
:102EA00058F786FE05461B202870FC26304602F0A7
:102EB000EBFD002129726C606E806870284658F71F
:102EC00090FE70BD1B0D00001FB514460422029237
:102ED000044A0192069A00921A462346FFF7A2FF7F
:102EE00004B010BD448EFC07F8B504461C48406889
:102EF0000F210140E171010F2171C1B20909A171D6
:102F00000101090F61710103090FE1700102090F4D
:102F1000A1700105090F61700004000F20700122EB
:102F200000920322150208230E4F2A46B847E17982
:102F3000A0790026009607232A46B847E178A078B2
:102F4000009606232A46B847617920790096052322
:102F50003246B84720786178F94A51721072F8BD4C
:102F6000C025FD077921FC07F8B52824F44D285D1C
:102F7000032817D1EFF31087012686F310880D4838
:102F80000188B14301800C4801880C4A0A40028044
:102F900003F04AFF002F02D086F3108802E00020E1
:102FA00080F3108814202855002003F0E3FBF8BDBF
:102FB0004425FD070012005004000050FFF70000F8
:102FC00070B50C460146049D4248814220D0424AD9
:102FD00091422AD0414881423BD12078401E0928A5
:102FE00054D88000414909184A6C434B9A4269D031
:102FF0003F4882426BD13848042108230A4658F7DB
:10300000D7FD217801706168416058F7EAFD5EE004
:103010006268002A48D0324882424CD220782E4939
:103020004018042159F716F851E02078411ECAB221
:10303000092A32D889002D4A5218536C2C4EB342BB
:1030400045D144322B4B59581160616800F0A6FC01
:103050003DE0531C012099423BD30A32914238D8BB
:10306000C81EC0B2411E8A0020498B18596C002925
:103070002DD01F4CA1422AD01F4CA14227D044334F
:103080001C4C0026A6501E60884720E0FB48FF210C
:103090000180FB4808210180FEE7F848FF210180FC
:1030A000F74808210180FEE7F448FF210180F44839
:1030B00008210180FEE7F148FF210180F048082146
:1030C0000180FEE744310B4A002313500B600020BF
:1030D000287070BD01040000030400000204000019
:1030E000FDFF3F0000310050023300504026FD0735
:1030F0002B7BFC07D81EFD07297BFC0780B5002A27
:1031000000D1012258F7A6FF80BD0000EFF3108127
:10311000012080F31088084A1288120603D4074A57
:10312000138803431380002902D080F3108870476E
:10313000002080F3108870470800005008330050CA
:10314000FEB51C460D4606460027002801D4384629
:1031500000E0012029460A394B424B4103400193CC
:1031600000D07642002A01D0372000E0572002909C
:1031700008980090304629465AF71EFF29464143D9
:10318000711A0A2901DB029A00E030228918E15500
:103190007F1C00280646EDDC00998F4203D23020C8
:1031A000E0557F1CF9E70198002804D02D20E05558
:1031B000E019421C00E0E21900201070101B4108C9
:1031C000521E002907D02378157825701370491EE8
:1031D000521E641CF5E7FEBD83B0F0B5CAB00646CA
:1031E0004F91509251934FAC029403A84990012102
:1031F0000D1A31782A18FF2A73D825290ED177782D
:10320000B21C302F11D1117800296AD03039CAB2DE
:103210000A2A00D30021F778321D07E0761C0170DE
:1032200000214170401C499057E0002104233B439A
:103230006C2B02D11778561C00E01646582F21D06F
:10324000632F3ED0642F25D0692F23D0732F3AD01F
:10325000752F17D0782F15D0002F42D049A803A979
:1032600025232CA2FFF74AF949982918FF2904D8E9
:10327000077000214170401C499049A803A902230E
:103280002EA228E001CCC9B2752F0DD100910A21E0
:1032900000220EE001CCC9B200910A21002243AF06
:1032A0003B46FFF74DFF12E00091583F7A427A41CA
:1032B000102143ABFFF744FF034649A803A943AAE3
:1032C00009E002CCABE780CC384600F06DF803464D
:1032D00049A803A93A46FFF711F93178499800291E
:1032E00088D103A9441A012C0FDB2D4D2E78A0198B
:1032F000FF2802DD00F026F82E782A48801903A95D
:1033000022465AF7D3FE301928704AB0F0BC01BCEF
:1033100003B00047464154414C3A20756E737570B6
:10332000706F72746564207072696E746620636871
:10333000617261637465723A200000002E0A000019
:103340004425FD07F8B516480078401D032158F7BD
:1033500021FB04460027054680C51148067811491F
:10336000284632465AF7A2FEAF550D4DEFF31081B5
:10337000012080F310882A6D002A06D013461268B7
:10338000002AFBD11C60276001E02C6568700029D1
:1033900002D080F3108801E087F310882F70F8BD09
:1033A0004425FD0708D9FC070021425C491C002A7E
:1033B000FBD1481E7047B0B50C460025202D04D027
:1033C0003FF7D9FA60556D1CF8E70020B0BD00202A
:1033D00070470000F8B51E4615460C46104658F7D3
:1033E0009CFD002801D0022625E0242003F026FBC6
:1033F00007462620395C2078884211D261786429FA
:103400000ED83818817601262846314658F753FDE4
:103410002720002139540C3C7C6100F081F80AE03F
:103420000648012331462A4658F7C2FB8121017024
:1034300058F7D7FB00263046F8BDC04603240000ED
:1034400000207047082904D2006940180021417704
:1034500070477848FF210180774808210180FEE706
:10346000082904D20069401800214177704771484B
:10347000FF210180704808210180FEE700310050E3
:1034800002330050B0B5054604696069002801D0D8
:1034900058F7FBFA00202861204658F7F6FAB0BD2D
:1034A000F8B51E4615460C46104658F736FD00285E
:1034B00001D002262EE0242003F0C0FA074620782F
:1034C000082815D851F7DCFB1349884210D0012693
:1034D0002846314658F7EFFC207838186178417754
:1034E0002720002139540C3C7C6100F019F811E0D0
:1034F0004F48022331462A4658F75AFB217801707B
:10350000082902D87621C94300E04021417058F7CC
:1035100068FB00263046F8BDFFFF00000020704722
:10352000FEB5242003F08AFA4369002B22D0064618
:103530009F883E48874224D009208002874230D1AC
:1035400000972720325C187B019037181D373446CE
:103550001A3418460E3002962736012A28D83D78AC
:10356000D540ED0703D0A55C815CA9423DD1521C3A
:103570003270F2E72F48FF2101802F480821018097
:10358000FEE72720305C34461D34354627350728B2
:1035900012D8215C1A7BD140C9071ED1401C28706B
:1035A000F5E72448FF210180234808210180FEE738
:1035B000029E009F019C00E0FF241C4887421DD012
:1035C00009208002874226D1DA8819891848022307
:1035D00058F7EEFA0470411C18E0C1B2304600F012
:1035E00017F92878401C2870FEBDD2B202980199C4
:1035F00000F00EF93078401C3070FEBDDA88198971
:103600000B48801C012358F7D3FA014600220A70A8
:1036100058F7E7FA7369184658F737FA00217161CD
:1036200072889548104058F746FCFEBD0224000001
:10363000012400000031005002330050FEB5019219
:1036400002910546242003F0F9F902462532078B42
:103650002630002302990B70BEB28021AE421ED8E4
:103660000478A3421BD2B11CA94210D21678DE40C6
:10367000F60703D0491C8EB2AE420AD0022C03D307
:10368000491C8CB2AC4206D05B1C4F1CE2E7E81B25
:1036900002E0032000E004200199087000210846A0
:1036A000FEBD0000F0B591B00C910B90169F3878DC
:1036B000401E01287CD81D4607922824012120465F
:1036C000059158F767F9064621465AF708FD3878FC
:1036D000262170541E21069529407F22D243891845
:1036E0000A9625360D96002404253A4610AFC9B235
:1036F000089123460992002B5CD1C0B2844259D272
:103700000E970FA80721017016197078A0400D9B25
:10371000197801431970505B51194A881204101826
:103720008A88C9880A9B585108048018591948602A
:103730007078012804D10FA80F2101701F2000E02C
:1037400017200D994978022901D30FA908700C9808
:1037500000880E9F38800B98808A0021009101908C
:1037600028480290089803900FAA05233846264956
:103770004CF741FF0346002814D17178388801299D
:1037800001D1014600E0411E491D0C9A118071785B
:1037900001290E9F06D1801C80B21C491E464CF7A1
:1037A000E8FD3346BF1C0835099A1078641CA2E76F
:1037B000812421E0002B04D00A981C4658F765F9B3
:1037C0001AE010980C9908800B9A0A9B13610C4917
:1037D000516018832420D0820598D08118461C306F
:1037E00090600698C003079908431880908A588013
:1037F0000024214658F75FFBE0B211B0F0BDC0468F
:103800000C8DFC07908CFC070F18000001020000D3
:1038100070B5144605464088C94A0240C1200001DF
:1038200009020831092358F7C3F9064612203070FF
:10383000242003F003F92621415CA1420FD901465F
:103840002531008B002294420BD00B78D340DB074C
:1038500001D0052300E004231818521CF3E70020D0
:1038600000E0801C0121F180B0802819807E307238
:10387000304658F7B6F970BDFF7F0000FEB5012550
:10388000E802334C218801432180A80321880143A9
:1038900021802088284320801420FEF7BFFE680284
:1038A000A080E080280321880143218020882949C5
:1038B00008402080AE02FEF735FE2188314321808A
:1038C000EF43784355210D010195B0354019029021
:1038D0002148461CFEF726FEA1883140029A11437A
:1038E000A18078434019E18831400143E18020887C
:1038F0001849084020802088184901402180002470
:103900002046FEF721FE80B201096E2901D9642408
:103910001BE0019A1146E03188420AD9000411499E
:103920004018BF215AF75EFB482141430C0C1C3460
:103930000BE0904209D9000409494018E0215AF7E8
:1039400051FB18214143080C041DE0B2FEBDC046E6
:1039500000150050FFFB0000FFFBFFFFFFEF000022
:103960000000B0FA0000D0F910B50446FD203EF783
:1039700066FF014608480422082358F719F9022176
:1039800081804180012141702178627812025118B2
:10399000C18058F726F910BD06FD000070B50C4631
:1039A00005461048008800060F4E0ED50F480068E7
:1039B00000040AD40E480088C00706D17019801C84
:1039C0000421224658F746FB70BDFFF79FFB0421F8
:1039D000082330460A4658F7EBF84460057058F75C
:1039E00000F970BD080000500104000030000040E4
:1039F0005877FD077047000070B514460D4606461F
:103A0000FD2003F01BF8002C0CD0002D11D010303D
:103A10000068002814D00179B142F9D14179298098
:103A2000801D0FE0A348FF210180A34808210180E9
:103A3000FEE7A048FF2101809F4808210180FEE7A2
:103A400000202880206070BD70B515460C461046D9
:103A500058F763FA002813D1FD2002F0EFFF064665
:103A60000848082106232A4658F7A2F8A188418071
:103A7000A1790171B18862885118018058F7B1F8B5
:103A8000002070BD180C0000FEB502920F460546DE
:103A9000FD2002F0D3FF0646103601973446246815
:103AA000002C0DD02079A842F9D16079B84214D009
:103AB0000022304621463FF7A5F8204657F7E5FF9C
:103AC00008370121384657F765FF044639465AF74B
:103AD00006FB304621463FF741F8019A6271257195
:103AE000A01D02995AF7E2FAFEBD0000FEB5029150
:103AF000264D1435006901900127254E254C0E2FC7
:103B00000FD03046F840C00708D028680088A0428F
:103B100004D1F9B20022029800F042FA14357F1C59
:103B2000EDE702200199085E65490140C20B029849
:103B3000000210400843002158F7BDF9FEBDC04601
:103B4000FF7F0000F8B50091072916D80F4D1435F6
:103B500001260F4F0F4C0E2E16D03846F040C007EE
:103B600008D028680088A04204D1F1B20022009851
:103B700000F016FA1435761CEDE74E48FF2101805F
:103B80004D4808210180FEE7F8BDC0468C8EFC0739
:103B90005A3500000229000070B505460469264622
:103BA00010363068002805D030463EF7BBFF57F787
:103BB0006CFFF6E700202861204657F766FF70BDCE
:103BC0007CB5FD2002F03AFF8668002E2CD004461A
:103BD000407B6D4601AA2946FFF70EFF288808287A
:103BE00029D10C36227B0198072A2BD81146521C6A
:103BF0002273435C7578002D02D0DB07F4D001E01E
:103C00009B07F1D5A068C288B388C12000010902D2
:103C1000083189B208339BB257F7CAFF054670785E
:103C200000281DD012201CE0F948FF210180F9482E
:103C300008210180FEE7F648FF210180F5480821B0
:103C40000180FEE7A068C288018973781B48002BB9
:103C500018D0042357F7ACFF71880180811C19E04C
:103C600013202870A08871880818A880B088E88080
:103C700028460830B288B11D5AF718FA284657F777
:103C8000B0FF7CBD801C80B2062357F791FF71887E
:103C90004180011D00250D7057F7A3FFA06857F75D
:103CA000F4FEA560618806480840294658F703F9E4
:103CB0007CBDC046003100500233005007FD0000BB
:103CC000FF7F000010B50446FD2002F0B7FE8179A9
:103CD000A14202D98088001900E0002080B210BD06
:103CE000B0B50C460546FD2002F0A8FE01468288CC
:103CF0008020AA4206D889798918A94202D9A81A2F
:103D000020700020B0BD0000F0B597B01E460292B2
:103D10000B9105462824012120460E9157F73AFEC3
:103D2000074621465AF7DBF9079504972F611E20B5
:103D3000019630403F21C943411803915F21C94397
:103D4000411805917F21C9434018069000228F4FEA
:103D5000904E032A00D1DFE00798848A13A88A498D
:103D60000180511C8A480991415C0A92855C681C5B
:103D7000C2B20F929142129100D80146E84308184E
:103D8000C1B2182048431830032157F703FE0146FB
:103D90000B980088088011914C80142420460895C7
:103DA000684330180279022A069903D0042A05993B
:103DB00000D00399119A11710169901D10225AF7D0
:103DC00075F90F9D6C433619002710963C4628194B
:103DD000129988424DD23079102816D0042826D066
:103DE000022842D11198C519B0890D90B0680C9085
:103DF0003068017840786876297628461A300E2196
:103E00005AF76DF90C99080C2AE01198C519284643
:103E10001830316810225AF749F9B0682885B189FD
:103E2000A9850E99C9040143080C68851CE0119806
:103E3000C519B0890D90B0680C903068017842784F
:103E40008378C078E876AB766A76297628461C3087
:103E50000C215AF744F90E9880040C990843000C81
:103E6000688529850D98A8850F9D14361837641C20
:103E7000ADE7119844714CF706F804460028434F0B
:103E800015D0119857F701FE0A98002803D10B9816
:103E900000880499888012980899401A0B9A118812
:103EA00040181080002C099A3A4E6AD151E71198B7
:103EB00000880B99088000242646002CE1D1129836
:103EC0008542DED2761C0024022D20D0072D1ED084
:103ED0003148E840C0071AD11098C1893846E840F7
:103EE000C00709D010980068027840780002801856
:103EF00013AA128890420AD0F0B2119A12881018B0
:103F000080B2109A136900224CF797F80446109873
:103F1000143010906D1CD0E70E20049A9071FD2093
:103F20000799C8820E9DCD811C484860888A5080C0
:103F30001046243088600198C0030299084310801D
:103F4000103210463EF7E6FD002415941494143602
:103F50000E2D11D03846E840C0070AD00A48FF307D
:103F600031680988814204D1E8B2082114AAFFF718
:103F70008BFD14366D1CEBE70798808A214657F7B6
:103F80009AFFE0B217B0F0BD032800005A350000D8
:103F900030D8FC078C8EFC07CE1C0000508CFC0730
:103FA000F0B585B008281DD215460C46064604AF6C
:103FB00003AA08463946FFF71FFD3F88002F18D097
:103FC000039900291CD0009501AD28463A465AF7BE
:103FD0006DF80098A855204639462A46FFF754FD4B
:103FE00005B0F0BDD448FF21018047480821018079
:103FF000FEE7D148FF210180434808210180FEE708
:10400000CD48FF210180404808210180FEE7C046DD
:104010000031005002330050FEB514460E46FD201C
:1040200002F00CFD054687880096768801942046AC
:1040300057F773FF012801D1022726E0F01980B25B
:1040400001F0C4FC00280BD002A9FFF749FE0028AC
:104050000DD0B948FF2101802B4808210180FEE7DF
:10406000B548FF210180284808210180FEE701278B
:104070000198394657F71FFF0020287300980C3825
:10408000A86002986873FFF79BFD3846FEBDC046E6
:10409000FEB514460E46FD2002F0D0FC054687888A
:1040A000009676880194204657F737FF012801D102
:1040B000022726E0F01980B201F088FC00280BD01E
:1040C00002A9FFF70DFE00280DD09B48FF210180BB
:1040D0000D4808210180FEE79748FF2101800A482A
:1040E00008210180FEE701270198394657F7E3FED2
:1040F0000020287300980C38A86002986873FFF7B6
:104100005FFD3846FEBDC0460233005010B50C4678
:10411000FD2002F093FC80886188081880B2A18895
:10412000A31D002422464BF788FF204610BD000047
:1041300070B514460D46104657F7EFFE01282FD1F3
:10414000287801020831AA791648002A0CD089B2D1
:104150000623224657F72CFD0646A878FFF7B2FD46
:1041600080213171308014E0AA8889B2921D93B207
:10417000224657F71DFD0646A878FFF7A3FD00214C
:1041800031713080A8887080701DAA88E91D59F7A8
:104190008DFF304657F725FD0021204657F78BFE4F
:1041A000002070BD140C00007047704780B559F7AF
:1041B0006BFF80BD80B559F770FF80BDF8B5252530
:1041C0005A4E715D082900D9ADE00420794409797F
:1041D00049008F449604282F545F894E9700544815
:1041E000802707805748584CA0475148478055487A
:1041F000A0474F4807805348A0470420534FB84773
:10420000FDF78AFE00242046B8471F20FDF7A2FED6
:104210005020B8479720FDF79DFE705D401C7055FB
:104220004648046269E01020FDF786FE705D411C7F
:104230007155801C414C276A092F51DC7E01666252
:10424000FEF75EF81920850120790028294600D163
:1042500001463B48FF2259F73BFF092F05D14B2070
:104260008000811B64304843C50800F00FFAA8B2F3
:104270002FE02F48C08FC0073FD108203CE013201B
:10428000FDF75AFE705D401C7055F248FF21018019
:10429000FEF73CFF294C276A092F1FDC7D01656270
:1042A000FEF72EF81920860120790028314600D12A
:1042B0000146234859F713FF20463230FDF7E0FF4F
:1042C000092F05D14B208000411B64304843C608AC
:1042D000B0B2FDF721FF206A401C03E0705D401C76
:1042E00070550020206208E01220FDF725FE1148DD
:1042F00003F0F2FB705D401C70550A201449FEF774
:10430000C7FBF8BD0220FDF717FEFDF705FE0720ED
:10431000FDF712FEA520FDF71DFE6846FF21417046
:104320000170FFF721FB00207055F8BD4425FD0703
:1043300002300050A08601000031005058DAFC071E
:10434000011FFD07400D0300D97AFC07391FFC0748
:10435000BD41FC077047704770B505460469261DCE
:104360003068002805D030463EF7DCFB57F78DFB60
:10437000F6E700202861204657F787FB70BD000054
:10438000F0B58BB01E4607920F4604461098069073
:1043900000880890002101200246092913D0032536
:1043A0008540099020463446089ECE403B46012772
:1043B00037407E421F462E40324326460446099827
:1043C000801C491CE9E70A92802030439E2101406D
:1043D000A08A03911D4902910190002000901C4980
:1043E0000AAA132338464CF706F90546002829D1B6
:1043F0000897202701210591384657F7CBFA0996EF
:104400000646394659F76BFE266130461E30114983
:104410006160A0600898008830830598E0811420CE
:10442000E082A08A70800998C00307990843308011
:10443000069800887083301D3EF76CFBA08A00212F
:1044400057F739FD28460BB0F0BDC046E48AFC079B
:104450000A180000F08BFC07FEB5019302920C468F
:10446000142002F0EBFA2778082F14D80546418B68
:10447000008B3A4600F0F2F800280ED060788D26C6
:10448000802839D8082F0AD0072F0BD0062F0BD140
:10449000082809D030E081262EE082262CE007286B
:1044A00002D029E0062827D32E1D35462D68002D81
:1044B0000BD02979B942F9D10022304629463EF77E
:1044C000A1FB284657F7E1FA60780830012157F739
:1044D00061FA05466178083159F701FE20782871A4
:1044E00060786871A81D6278A11C59F7DFFD30461D
:1044F00029463EF733FB0026064802230199029A1B
:1045000057F756FB21780170467057F76AFB002079
:10451000FEBDC04601140000F8B514460D46104615
:1045200057F7FBFC012835D1142002F087FA064624
:10453000077F418B008B3A4600F090F80090707F27
:10454000010208312A781448974212D16A7889B258
:10455000931D224657F72CFB074600203871009820
:10456000388068787880781D6A78A91C59F79EFD94
:1045700009E089B20623224657F71AFB0746802036
:10458000387100983880384657F72BFB00212046B9
:1045900057F791FC0020F8BD140C0000F8B508781E
:1045A000082812D80C460B251BA6C0467844007973
:1045B000400087441C041104070714171A0007253C
:1045C0001A4E14E00F25184E11E02248FF210180F9
:1045D000214808210180FEE70A2515A607E00825E5
:1045E00018A604E006250F4E01E0072513A6AF1C10
:1045F000174819463B4657F7DBFA074620783870CC
:104600007D70B81C31462A4659F750FD384657F799
:10461000E8FA0020F8BDC0464469616C6F6720531A
:10462000656D6900B2D8FC0759D8FC0769D8FC074A
:10463000312E302E302E302D4C45000001D200801E
:1046400005000100123456FFFE9ABCDE0000000097
:10465000031400000031005002330050B0B58BB29B
:10466000411C00200446092C0DD01D46E540ED07F5
:1046700002D0A24202D0891C641CF4E7092A01D0AE
:10468000481C00E0002080B2B0BD000010B50A2038
:104690009549FDF76BFC8C4C20462830FDF7F0FD6A
:1046A000412080003C342146FDF760FC10BDC0462F
:1046B000F0B593B080488149FEF7EAF94421804C77
:1046C00060522420215C3C222254A06F4018A06735
:1046D00003F02CFA30257B4E725D3127F35D1846CE
:1046E000104304D078480078002803D0C6E076480C
:1046F00000210170059706952F24B08D7349451848
:104700002E20305C401CC1B20027039081423E46FF
:10471000079704944DD100260C29079649D869487B
:10472000025D0026002A43D01F2A079641D8A8B26E
:10473000674BC3180026032B07963AD30026CA2BD3
:10474000079636D802959D00634C655946024C0188
:1047500034431443A54201D95E4BC3181B049D0B7F
:104760005D4B5E59FDF71FFE04461F223240F002EA
:10477000000DF105090FFDF716FE201A401C5749E0
:104780004B59D9030A0F01210C24651C00D384E086
:104790000125A5401D40E540012D01D01D2500E06B
:1047A0001E2586B2B54279D2401B641E491CECE737
:1047B000079602960EAE37707D20C100284659F745
:1047C000FBFB0A27394659F7F7FB8800444909588B
:1047D000444C3046A0476421284659F7EDFB394642
:1047E00059F7EAFB88003E4909583046A047284659
:1047F000394659F7E1FB0446394659F7DDFB880095
:10480000374F39583046374A90470920C0436043F4
:104810004019800039583046324A90470BAD039812
:10482000294601F0EFFE274F0498385C08AC21467A
:1048300001F0E8FE00942C482CA132462B4603F0F0
:10484000C5FC3320385C80002C49081800900720F4
:10485000079A42432A498B180299C9B24143294811
:104860004218194C20463C3027A103F0AFFC012030
:10487000207005983B5C06983A5C114C1248283031
:1048800025A103F0A3FC2520215C002903D10121EF
:104890002154FFF793FC13B0F0BD0E21CBB29A4226
:1048A000029D01D30E4600E04E1E002A00D10E46A6
:1048B000C0B207907DE7C04670170000B146FC0704
:1048C0004425FD07C025FD0758DAFC076C070000EA
:1048D00033F8FFFF32F8000000D5FC07D0D1FC0709
:1048E0000C90FC07B51CFC0725DAFC072573E5B91D
:1048F000B42573E69C882573E697A500AED1FC0726
:10490000D5D0FC077AD0FC07257325732020E698C4
:104910009FE69C9F25730000253032643A25303293
:104920006400000070B50C78A51E052D38D81C0A4F
:104930007D442D796D00AF440222333642507A20F7
:1049400060433C4A1518887878216854C0070ED017
:10495000284671300C216143E64A561831463931F8
:10496000062259F7A3FB3820305C772168540C20CD
:104970006043E04908183F21002242543EE07A207B
:1049800060432C4908187821002242540C206043CF
:10499000D84908183F2142542046FEF733F82DE04D
:1049A00003F0A2FA2AE07A256543224C60193A30D6
:1049B000891C172259F77AFB605D04211CE07A25D7
:1049C00065431C4E70196130891C1024224659F72A
:1049D0006DFB705D2043705510E08B1C488A0028E9
:1049E0000ED07A256543134C60191E301C221946DF
:1049F00059F75CFB605D022101436155002070BDE9
:104A00007A2666430B4CA519A81C1C22194659F797
:104A10004DFBA05D01210143A15507A0FEF7DCFB82
:104A2000112608A4012EE9D0A95D2046FEF7D4FB8B
:104A3000761EF7E7461CFD07200D0A204C544B3A22
:104A4000203078002530327800000000F0B585B0C5
:104A50000878072840D81C0A800001A21058874611
:104A6000814AFC07D94AFC07D94AFC07D94AFC0706
:104A7000E74AFC078D4BFC078D4BFC07034BFC07FB
:104A80007A206043434900250D540C206043BC4903
:104A900008183F2101274754A0003F490E18346FE2
:104AA0007036002C13D10A200343F520834340487D
:104AB00004221E241946234657F77AF80446077045
:104AC0003060801C3B49072259F7F0FA6770204696
:104AD00057F787F8356059E0A748FF210180A748BC
:104AE00008210180FEE7487803284FD878440079F0
:104AF00040008744400101462848019001A9042252
:104B000041E07A266643234885194F782F77284657
:104B1000143008210A46FEF767F8A81C00901022FE
:104B200039461746FEF760F83DF725FF194B995DAA
:104B300001220A439A556882204601F00FF8297F26
:104B40000177698A4182E98AAA8A6B8B2D8B05835A
:104B500043838282C182801C00993A4659F7A6FAA3
:104B6000204600F0FBFF57F73CF8A0000A49081860
:104B7000002141670AE00AA001A90A46E8C8E8C284
:104B800000E0891C10222046FDF758FF002005B0E8
:104B9000F0BDC046461CFD074425FD0740E201006C
:104BA000000102030405060708090A0B0C0D0E0F8D
:104BB000140E0000848EFC0710B50C78092C0BD065
:104BC0004C78002C06D0F948FF210180F8480821D4
:104BD0000180FEE703F088F9002010BDFEB51E46F7
:104BE00010460C4657F799F902285FD10294340A0F
:104BF0000C2060433F490F1836203C543D46363563
:104C0000FF2C5AD037200121019139540420009003
:104C1000032157F750F9029A507A382178541088B6
:104C2000B886393711460A310622384659F73EFA16
:104C30007A206043304908187821475C0A200643EF
:104C4000F52086432D482C233146009A56F7B0FFB5
:104C500028214754019F014628314F7056F7C1FF64
:104C60002878FF2829D0264EB4772020305CFDF725
:104C700025FF02994888082809D3242807D888885E
:104C80000A2804D14B20C000C988814204D0C82022
:104C90001C49FDF7FDFEF0771BA0FEF79DFA377764
:104CA0001C4804210A2257F7D5F908E00F48FF21D4
:104CB00001800F4808210180FEE703F069F8287899
:104CC000FF280ED0144D08350026F0B2002802D07F
:104CD000032803D107E02968204688470C35761C55
:104CE000F3E703F055F80020FEBDC0460031005048
:104CF00002330050C025FD07461CFD07020E0000D0
:104D00004425FD07A167FC07636F6E6E65637469D8
:104D10006F6E0A0015040000148DFC0710B51C46C8
:104D2000104657F7FAF803281ED1200A0C214143F8
:104D3000DF484018FF21C186DC4CE07F002803D00B
:104D4000FDF7BCFE0020E07701F044FC03F020F802
:104D5000002020773421625C012A03D16054094885
:104D60003DF740FD002010BDEF48FF210180EF48D6
:104D700008210180FEE7C046003100500233005098
:104D8000C025FD0711111111180A7A224243034868
:104D9000801809787822815400207047461CFD074E
:104DA00000207047F0B589B01D46144608780228E7
:104DB0001FD001282DD0002839D120203F490E5C7A
:104DC0002031491C01AF3846324659F76FF9334656
:104DD0000A3318482946224656F7EAFE044646801A
:104DE00000202070201D3946324659F75FF92046D1
:104DF0001BE010480A232946224656F7D9FE7D219A
:104E000001810021C180102181800821418002217F
:104E10000AE0422029490E5A06480A23294622461A
:104E200056F7C6FE46800121017056F7DAFE0020D3
:104E300009B0F0BD0B0E00000020704710B51946F8
:104E4000E1200001062356F7B3FE0024848044804D
:104E50000121017056F7C5FE204610BD00207047A5
:104E60000020704770B51D460C46087801280CD00C
:104E7000002810D162882020104B1A54211D2033A5
:104E8000581CD2B259F712F903E0608842210B4A4C
:104E90005052002600E048260A200543F5208543AD
:104EA000074804220223294656F782FE46702178DD
:104EB000017056F796FE002070BDC0464026FD07E3
:104EC0000D0E0000002070470020704770B50C7870
:104ED000641E162C1CD8C0467C4424796400A74468
:104EE0000D171A17171717171717170B240B0B1770
:104EF0000B0B0B1717170B00002070BD487800280C
:104F000017D08948FF210180884808210180FEE7E9
:104F100002F0EAFFF0E7487800283BD08248FF2102
:104F20000180824808210180FEE748784428E3D1C7
:104F300038E0204D2C68002C26D11F48092104227E
:104F40002C2356F735FE04462860012040022084B9
:104F50001A4820800026668020460A30112159F721
:104F6000BEF86684E683A6832020E0767A21144882
:104F7000415AFB2900D3FB21E1847C21405A11498D
:104F8000884200D308462085204656F72AFE002096
:104F90002860B1E70420012156F78DFFFDF7C6FC1C
:104FA0000028A9D002F0F4FEA6E7C0460031005068
:104FB00002330050401CFD07040D0000030A0000EE
:104FC0006479FD074808000010B5104656F7A5FFA4
:104FD000002806D05448FF21018054480821018050
:104FE000FEE70648092104220124234656F7E0FD86
:104FF000047056F7F6FD002010BDC046020D0000FB
:10500000BCB5104656F789FF01282ED1FDF78EFC5E
:1050100000282AD00420022156F74DFF2020002826
:1050200001D0401EFBE712A0144CA04702F0B0FED6
:1050300013A0A04764201C49FDF72AFD44211B4D05
:10504000685201F049FF1A484030012149040C22FE
:1050500001AB01F04FFF0246019916A0A04701F0F5
:105060008FFF65206875FDF7F3FB0020BCBDC046CF
:1050700063726333325F696E69740A00D931FC0769
:105080006D795F6170705F6F6E5F64625F696E699A
:10509000745F636F6D706C6574655F6D6F64696676
:1050A0006965640A00000000B146FC074425FD075D
:1050B000C025FD07696D676865616465722072656A
:1050C00061643A25642C7374617475733A256400C5
:1050D0000020704700207047F8B51D4616460C4664
:1050E000104656F71AFF002813D1FD2001F0A6FC48
:1050F00007460C48042132460B4656F759FD290A4B
:105100000170E90A07D1B9882288511A418056F7FF
:1051100068FD0020F8BD0448FF21018003480821F4
:105120000180FEE70DFD0000003100500233005009
:10513000FEB51F4600920C4602A900260E7001AA79
:1051400016702088FEF77AFA05460D480623394680
:10515000009A56F72DFD21880180002D0AD101A962
:105160000978CA1E534253415A004280032900D095
:1051700003263546057156F734FD0020FEBDC046B6
:10518000180C000080B50878FE210140122901D1D9
:10519000FEF716FD002080BD80B50878122801D1E9
:1051A000FEF7BEF9002080BDF8B51D4614460E4638
:1051B000104656F7B2FE012817D0002844D10095BA
:1051C000142001F03BFC418B3288038B5D1C0023D3
:1051D000092B2DD00F46DF40FF0704D0AFB27F1C54
:1051E000974204D0AD1C5B1CF2E702242DE0DFB235
:1051F000082F1DD8051D2D68002D28D02979B9420A
:10520000F9D16879831DC5480099224656F7D0FC2C
:1052100007463088388000243C7168797880781D92
:105220006A79A91D58F742FF384656F7DAFC0CE0B8
:10523000BA4806230099224656F7BAFC3188018005
:105240008021017156F7CDFC00242046F8BD077778
:10525000009B190A41770088B14A024000B2C10B95
:105260001940FF20814311430648012522462B4661
:1052700056F79EFC077056F7B4FC2046294656F7B1
:105280001AFEE1E702140000FEB51E4615460C4664
:10529000104656F742FE002807D0284656F73DFE36
:1052A000401E414241414800FEBDFC2001F0C6FBCA
:1052B0002388817902AA0027178001976A46178000
:1052C000591AC9B2132907D00D2910D102A90222F7
:1052D0000A800A30019008E002A802210180300A09
:1052E0004CF72BFC694608800191082007E002A9D1
:1052F00001AA18464AF795FF07460298801D83B217
:10530000864831462A4656F753FC054620882880B1
:105310002F7102A802886A80002A03D0681D0199B3
:1053200058F7C4FE284656F75CFC0020FEBDC04678
:10533000F0B585B0029316460F4604A900240C7000
:1053400003AA14703888FEF779F90546242001F085
:1053500075FB0190002D10D0A31D704802993246B4
:1053600056F726FC3988018044800571002D0FD046
:1053700056F737FC002005B0F0BD03A800780025E3
:10538000022815D0042815D0032815D10224E3E7FC
:10539000029F03A90978042911D0032923D00229E7
:1053A000E6D104A90978019A5118897E4171DFE795
:1053B0000124D1E70724CFE780250024CCE704A906
:1053C0000978C900019A51180A7A42714A7A8271A1
:1053D0008A88C271120A02728A7A4272C9888172FC
:1053E000090AC172C4E7390A019A5118497F00229B
:1053F000827104AA1278D14001220A404271B7E7B3
:10540000F0B587B01D4614460E46104656F785FD8A
:10541000002801D0022067E0FD2001F00FFB029080
:1054200004A900270F703088FEF75AFC024603A833
:105430000780002A16D0BB1D38482946154622464B
:1054400056F7B6FB04463088208067802571002D12
:1054500004D1601D03A93A4658F728FE204656F7A6
:10546000C0FB40E0029F280A019004A803789D48F1
:10547000D840C0071ED0142058439B4908580088C4
:105480002549884216D1019F082F2FD2029206AFDC
:1054900005AA18463946FEF7AFFA388800282CD0FE
:1054A0000598002830D00199405C03A908800227A4
:1054B000029AC0E7388800B28D490140C00B054010
:1054C000FF2085430D4317481E46042329462246E4
:1054D00056F76EFB46800199017056F782FB012159
:1054E000204656F7E8FC002007B0F0BD7B48FF21BE
:1054F00001807B4808210180FEE77848FF21018078
:10550000774808210180FEE77448FF210180744834
:1055100008210180FEE7C04602290000140C0000AB
:10552000FF7F000004FD000000207047F0B595B03B
:10553000099315460C46FD2001F080FA06460CA999
:1055400000270F702088FEF7CBFB014660880028FB
:1055500006D06248FF210180614808210180FEE7F2
:105560000897079600292A46264676D10998000A08
:1055700005900CA803785B48D840C007049330D04E
:1055800014205843584908580088584C2146FF3188
:10559000884226D1029208980B900A90039636888A
:1055A00030464AF7C1FC024606909188B0B2884264
:1055B00061D3D18888425ED837460DAE31464AF76E
:1055C000D2FC002300930FA910AD30462A464AF7BB
:1055D000BDFD069A28887E1EA042E6D1791C039E56
:1055E0004BE01446002511951095308810A94AF714
:1055F000BAFC08201099085E2946002806D4728853
:10560000B1883088B31D4AF718FD014622460806C6
:1056100023D10798008800B21446E94A0240C10B22
:1056200009980140FF2081431143B088801D83B257
:105630003048224656F7BCFA0546801DB288B11D97
:1056400058F734FD04986880B08805992970A880BF
:10565000284656F7C6FA22460021DB4804230C46AA
:10566000099956F7A5FA84703188018056F7B9FA7E
:10567000002015B0F0BD039E0899080414D088B22C
:1056800010A900240AAB22464AF7F3FEB08802288C
:1056900011D1F28810A8407880070ED40220104360
:1056A000022818D100210FE00C48FF2101800C488E
:1056B00008210180FEE70D210EE0022A214601D3D8
:1056C0007E20C143012A07D805980C460499FEF7AD
:1056D00067FC214600E08121029A98E700310050E2
:1056E000023300505A3500008C8EFC07032800005E
:1056F000FF7F00000AFD0000F0B585B01E4614468D
:105700000D46104656F709FC002807D0204656F7EC
:1057100004FC401E414241414800E3E0AA48042302
:1057200031462246029356F743FA0746FC2001F021
:1057300085F904468020B870298804973980A279B9
:10574000891AC9B2891E0B2938D8370A79440979D0
:1057500049008F4405333633333366338E3333BBDE
:105760006A88A98828880397AB1D4AF766FC049FBE
:10577000B87020889249014000B2C00B0640FF205B
:1057800086430E433F208002FC220823314656F711
:105790000FFA044603984FF773FA002161602080E6
:1057A000687A00066060297A090408186060E9795F
:1057B000090208186060A97901222EE0049FB870E0
:1057C0008CE06A88A98828880397AB1D4AF735FCC6
:1057D000049FB87020887A49014000B2C00B06408F
:1057E000FF2086430E434248FC220823314656F7E9
:1057F000DFF9044603984FF743FA002161602080E7
:10580000687A00066060297A090408186060E979FE
:10581000090208186060A9790222A270401860602D
:1058200050E06A88A98828880397AB1D4AF705FCD1
:10583000049FB87020886249014000B2C00B064046
:10584000FF2086430E432848FC220623314656F7A4
:10585000AFF9044603984FF713FA0021A180208086
:10586000E8790002A080A9790322A2704018A080E4
:1058700028E06A88A9882888AB1D019303974AF716
:10588000DCFB049FB87020884D49014000B2C00B7A
:105890000640FF2086430E43A888001D83B21348AC
:1058A000FC22314656F784F9044603984FF7E8F98D
:1058B0002080201DAA88019958F7F8FB2879E0700C
:1058C0000298A070204656F78CF907E0A879E9798C
:1058D0000022049FBA70090208186081384656F702
:1058E00080F9002005B0F0BD02FC000003FC0000C0
:1058F00001FC0000F0B587B01F4614460E4606A90D
:105900000020087005AA049010703088FDF796FEFC
:1059100005463946002846D101A852C0242001F08E
:105920008DF8034605A800788025032817D13E0A84
:1059300003998879C9790902081880B2002810D023
:1059400032460128029C039E01992CD106A80078BA
:105950000121814016469818427F0A4308E0029CC4
:105960001FE006A80078012181409819427F8A43F0
:105970004277188800B212490140C00B0740FF204F
:1059800087430F430F481D4602233946029C224697
:1059900056F70EF90670A919497F417056F721F99B
:1059A000049D039E019908480423224656F700F9F6
:1059B00085703188018056F714F9002007B0F0BDDA
:1059C000FF7F000004240000160C0000F0B58BB02F
:1059D00004464AF7A9FA024602909188A0B200262E
:1059E000884223D3D188884220D8039404AF394613
:1059F0004AF7B9FA0026009606AD07AC38462946A4
:105A0000224633464AF7A2FB0A4B287821881A46D9
:105A1000FF32914201D1022807D09942039C01D163
:105A2000022803D0641C029AD7E7039EB0B20BB0E1
:105A3000F0BDC0460328000070B511490A880888E7
:105A400001242043088008881E2398430880A5026B
:105A50000C4845800525058005886D07FCD48088A5
:105A60000D8814262E430A25AE430E800D88A543CB
:105A70000D801A400C889C43A2180A8070BDC04655
:105A8000220000500016005010B51321C943074AE8
:105A9000002909D0531860241B5D891C8342F7D16B
:105AA00050185F21405C10BD042010BDC025FD07CB
:105AB000F8B5254FBC68204643F7F1F9324EF16D39
:105AC0000022F2650D181549284658F775FA7861D5
:105AD00013494143491919200001002902D0411AF4
:105AE000E13189B23961396808220A433A60716E3E
:105AF000002911D08C420FD90A4A1278002A0BD102
:105B0000327B002A00D11046611AB26D8918891DB6
:105B1000814200D30146B165F8BDC0467102000064
:105B20008FFDFFFF24DAFC0780B5064800210160E5
:105B300001F03CF90120C00703490A6882430A606A
:105B400080BDC046AC76FD073000004080B543F70D
:105B5000A6F980BD80B543F793F980BD10B5014625
:105B60008000094A1418606F002800D010BD7434FA
:105B700009020A31054804221E2356F719F8FF21AD
:105B800008310180206010BD4425FD07140E00007F
:105B900000B59DB0E74FFF243C8200201990788229
:105BA000E548082117910180E4480088C046C046B6
:105BB0002346E34901200E90C871E24A108807216C
:105BC0001B91884310800F20050205263407608D45
:105BD0001A93D23315932F33099318420CD02846C9
:105BE000FF30118801407003081810801088402190
:105BF000014338208143118060880028169500D128
:105C0000D148CF4B9887618C0E9D294361841999A7
:105C10001C911C99142902DA1C99491CF8E7618926
:105C20000E9D294302251095A9436181618949068A
:105C3000FCD5608019981C90192080011C99814224
:105C400002DA1C98401CF6E71896608903210F9130
:105C50008843608160890006FCD5608C0E9988437A
:105C60006084BA4D199A2A60608A40263043608267
:105C7000608A1396B04360826A61B548A8620804DE
:105C80001290E862208880211491084320801C92A1
:105C90001C98632803DC1C98401C1C90F8E70E98A5
:105CA000AA4D2860AB480088AB498884AB4800689F
:105CB0000862AB480188D987408813995852199ACD
:105CC0002A60608A08436082608A884360826A61D1
:105CD0009F48A8621298E8622088149B184320808D
:105CE0001C921C98632803DC1C98401C1C90F8E74D
:105CF000964908681B9A9043086020889843208042
:105D00009848994958F7EBF9189E7102974858F747
:105D1000E6F9FBF7B8FE9648964930220D9258F7FF
:105D2000C5F99548199A02709448954901609548BB
:105D30009549016095499648086096480A210B915B
:105D400001709548027095483221017094480660B0
:105D500094480E9D05609448066094480621119170
:105D6000016093481B9901609248179E06602802C3
:105D70000C90801D904908609049086090487949CE
:105D8000016000F037FD28463CF7FBFD149B20899D
:105D90000D99884320812089184320812089284338
:105DA000109988432081208930432081208C18431A
:105DB0002084608AB043608220891399084320813F
:105DC000208A042188432082A08A8007FCD5208C69
:105DD0000E99084320840803618DC9000140208C7E
:105DE000784A024050182084208C28210A910843C8
:105DF000502188432084208C119908432084608A94
:105E0000179908436082208C984320842089139935
:105E100088432081608D0999084202D04948189929
:105E200041800E9A960730686749084030603F20ED
:105E30004002664D29688143500318900818286075
:105E40006348401C2968014329605D4800683CF7AD
:105E500031FA30680C9908431B9630605D48199EF2
:105E60000671C6703888099089202081189828808A
:105E7000208814990843208020880F998843208027
:105E8000388810990843388000F0BAFE3CF798FD36
:105E90003CF79CFD1CA806801A9B1CA80088902833
:105EA00004D81C98401C1CA90880F6E74A4A1088B0
:105EB000089050880790494DA8880690E88805907A
:105EC000D0880490508B0390454800880290288821
:105ED00001901999118051804248A8801598E88056
:105EE000D180C3202880404A179810801CA80180C8
:105EF0001CA80088902804D81C98401C1CA9088065
:105F0000F6E71CA8199901801CA80088902804D8DD
:105F10001C98401C1CA90880F6E71CA81999018050
:105F20001CA80088902861D81C98401C1CA90880D7
:105F3000F6E7C046F03000500233005042000050F7
