:0200000407FCF7
:10000000007BFD07B500FC07BD00FC07BF00FC0737
:1000100000000000000000000000000000000000E0
:10002000000000000000000000000000C100FC070C
:100030000000000000000000C300FC07C500FC0732
:10004000C700FC07C700FC07C700FC07C700FC0788
:10005000C700FC07C700FC07C700FC07C700FC0778
:10006000C700FC07C700FC07C700FC07C700FC0768
:10007000C700FC07C700FC07C700FC07E361FD07DA
:10008000C700FC07C700FC07C700FC07C700FC0748
:10009000C700FC07C700FC07C700FC07C700FC0738
:1000A0000348854600F042F800480047BB69FD0759
:1000B000007BFD070448804704480047FEE7FEE751
:1000C000FEE7FEE7FEE7FEE7D100FC07A100FC0724
:1000D00012490620088001201149C003086005204C
:1000E00000074189090609D4818A0906FCD541899E
:1000F00089088900418141890906FCD500210180D8
:10010000018A0F2212021143018207490548086043
:1001100070470549034808607047000000340050EC
:1001200080E100E00024F400E476FD07064C0125A0
:10013000064E05E0E36807CC2B430C3C984710348F
:10014000B442F7D3FFF7B0FF7001FC07A001FC0732
:1001500002E008C8121F08C1002AFAD17047704790
:10016000002001E001C1121F002AFBD170470000EE
:10017000A001FC070060FD07E41600005001FC0729
:100180008418FC07E476FD07240000005001FC07FA
:10019000A818FC070877FD07F80300006001FC07BA
:1001A000F0B5002099B01490044613901690159065
:1001B0000746064605461790072168460C22C903E4
:1001C00000F0B5F868460078702878D16846407825
:1001D000522874D1019811900298109068464022DC
:1001E0001290119900F0A3F868468078AA2811D1DE
:1001F0006846007870280DD168464078512809D1AA
:10020000019814906846C07816900298179008A834
:100210000678012440221099129800F088F8684668
:100220008078AA2810D16846007870280CD16846DA
:100230004078512808D16846C078159001981390ED
:1002400008A80578029FA41C032C04D0012C0ED012
:10025000022C35D05FE016991598FF2901D10028AE
:100260002ED0FF2801D1002901D0814228D3119935
:1002700000204031149A00F05AF8002E02D0149851
:1002800000F050FF00210846149A00F00BFD17996A
:10029000884240D0032C3ED1109900204031139A5F
:1002A00000F045F8002D02D0139800F03BFF00212C
:1002B0000846139A00F0F6FCB84228D12BE026E05D
:1002C000109900204031139A00F031F8002D02D02F
:1002D000139800F027FF00210846139A00F0E2FC73
:1002E000B84218D0032C16D1119900204031149A2D
:1002F00000F01DF8002E02D0149800F013FF00212A
:100300000846149A00F0CEFC1799884203D00020CA
:10031000C04319B0F0BD0020FBE710B500F03EFC73
:1003200000F029FA00F06FFCFFF73AFF10BD10B59E
:1003300000F010F9002010BD052109078A88082364
:100340001A438A80164A02215180164900220A6007
:1003500015490A807D2212028A80CA80134A1060E1
:100360000720088012491803086070470E490620CC
:10037000088001200F49C00308600D4980310860E2
:1003800070470A480168002903D00168491E0160CE
:10039000704704490120086003490620088070471F
:1003A000003300500077FD0700340050FC76FD0755
:1003B00000E100E080E200E0FC4AD160906070471C
:1003C00010B5012000F0DDFA0520000200F01AFB54
:1003D000C0B210BD70B50024F54DFFF7F1FFC007A6
:1003E00004D0641CAC42F8D30020C04370BD70B58B
:1003F000FFF7F0FF002817D100F0C3FA00F06EFA03
:100400009F2000F0E8FA002000F0E5FA0504002043
:1004100000F0E1FA04022C43002000F0DCFA204353
:10042000054600F062FA284670BD70B5FFF7DFFFA1
:100430000025DE4A00281BD0411C19D0DD4B0021CD
:1004400014244C431E59E418646826400440A64214
:1004500012D1142408B24C431080E418A5689560AA
:10046000E468D46014246043C018506048B270BD82
:100470000120C043556070BD491C89B20629DFD3F5
:100480000020C043556070BD70B5FFF7A3FF002882
:1004900015D100F076FAC64E0025062000F0B2FA1B
:1004A0000024FFF78DFFC10703D1800701D500208D
:1004B00070BD641CB442F4D36D1C322DEDD300200A
:1004C000C04370BD70B5FFF785FF002815D100F05F
:1004D00058FAB74E0025502000F094FA0024FFF798
:1004E0006FFFC10703D1800701D5002070BD641CD8
:1004F000B442F4D36D1C322DEDD30020C04370BD47
:1005000070B5FFF767FF002811D100F03AFAA84E46
:100510000025042000F076FA0024FFF751FF800741
:1005200007D0641CB442F8D36D1C322DF1D30020E7
:10053000C04370BD10B50446FFF74CFF002808D13A
:10054000012000F01EFAE01DF93000F05BFAFFF721
:1005500041FF10BD70B5064694480D46806851199C
:10056000814201D9441B00E01446FFF733FF002805
:100570001AD1022000F005FA00F0B0F90321284654
:100580000906084300F027FA002000F0FAF90025D8
:1005900005E0002000F01FFA30706D1C761CA542AB
:1005A000F7D300F0A2F9204670BD70B505467F482C
:1005B0000E46C0681446824200D984B2FFF70AFF93
:1005C00000281ED1FFF760FF00281AD1022000F09A
:1005D000D8F900F083F9012130464906084300F0BC
:1005E000FAF9002000F0CDF905E028786D1C00F044
:1005F000F2F9641EA4B2002CF7D100F076F9FFF7EF
:10060000E9FE70BD70B50D460446FFF73DFF0028BA
:1006100002D00020C04370BD022000F0B2F92806CD
:10062000204300F0EFF9FFF7D5FE70BD70B50D4621
:100630000446FFF729FF002802D00020C04370BD08
:10064000022000F09EF92806204300F0DBF900208C
:1006500070BD10B5FFF718FF002802D00020C0437E
:1006600010BD002000F08DF9C72000F0CBF9FFF796
:10067000B1FE40B210BD10B50024FFF7ABFE00285C
:1006800011D1012000F07DF900F028F909200003C4
:1006900000F0A1F9002000F09EF9002000F09BF985
:1006A00084B200F022F920B210BD70B500252C46AE
:1006B000FFF790FE002818D100F063F900F00EF962
:1006C0004B2000F088F9022000F05BF9002000F0D8
:1006D00082F9002000F07FF900260446304600F041
:1006E0007AF93043054600F000F92846214670BDEE
:1006F000F7B582B02D4F0E460091F96814460D46AD
:10070000304600F027FD401C6843451E002000F0E5
:1007100038F9B868801BA04200D20446264600275C
:1007200019E000988019A84202D900982E1A761C68
:100730000298B2B2C0190099FFF737FF002803D022
:100740000020C04305B0F0BD681C00901748BF19D9
:10075000C0682D18E61BA742E3D33846F2E710B570
:10076000FFF738FE002805D100F00BF9B92000F0A2
:1007700049F9002010BD10B500F0B0F800F0B5F850
:10078000002000F0FEF8AB2000F03CF9002010BD86
:1007900070B5064C0546606800280DD0FFF774FE62
:1007A00000280CD00020C04370BD0000E876FD0793
:1007B00080841E002C70FD070520C043F4E7FFF77E
:1007C000FFFD6168097C884329400843FFF7B2FEBA
:1007D000EAE710B540484068407CFFF7D9FF0028A1
:1007E00001D040B210BDFFF734FF10BD70B5054613
:1007F00039480E46C0681446824200D984B2FFF7D9
:10080000E9FD0028D0D1FFF73FFE0028CCD102201F
:1008100000F0B7F800F062F80121304649060843BD
:1008200000F0D9F8002000F0ACF804E0284600F011
:10083000D2F8641EA4B2002CF8D100F056F8FFF7ED
:10084000C9FDB1E7F7B582B0234F0E460091F968B4
:1008500014460D46304600F07DFC401C6843451EA2
:10086000002000F08EF8B868801BA04200D2044639
:100870002646002717E000988019A84202D9009860
:100880002E1A761CB2B200990298FFF7AFFF00282B
:1008900002D00020C04355E7681C00900E48BF19E5
:1008A000C0682D18E61BA742E5D338464AE71FB5B6
:1008B0006A4651731073002000900190034602466F
:1008C0000146029003A800F017F8FFF754FFFFF766
:1008D000ACFD04B010BD0000E876FD0710B54F4830
:1008E0004178007800F0ABF810BD10B54B48417866
:1008F000007800F0AEF810BDF8B50E461546474931
:100900000278079F0A7040781C464870FFF7EDFF99
:100910000520000781880122D202114381804048CE
:1009200001884908490001800188FF2281329143F2
:10093000F20111430180018840229143AA01114331
:100940000180018804229143A200114301800188A3
:1009500002229143069A520011430180018801222C
:1009600092039143BA0311430180018818229143F5
:10097000089AD200114301800188012211430180AD
:10098000F8BD27490A88520852000A800A88FF23C6
:1009900081339A43C00102430A8008880122104330
:1009A0000880704710B51E48018849084900018039
:1009B0000520000781880122D202914381801748D7
:1009C0004178007800F045F810BD154801884908C5
:1009D00049000180704710B5114900230A88D205EB
:1009E000920F012A01D9040C8C8048800888800469
:1009F000FCD50120C880012A01D9888803044888D1
:100A0000C01810BD10B50446FFF768FF2046FFF779
:100A1000E2FF0446FFF769FF204610BDF876FD07A8
:100A200000120050704710B5032800D10420294C53
:100A300040010019490008181A43C28010BD03285C
:100A400000D10420234A4001801801228A4082807C
:100A50007047032800D104201E4A4001801801225B
:100A60008A404280704770B50646049814460028B4
:100A70000D46304602D0FFF7ECFF01E0FFF7DFFF45
:100A8000224629463046FFF7CEFF70BD10B500283C
:100A900007D0431E0F4C5B0070341B19012802D095
:100AA00002E00023F6E70831188801248C40A043B7
:100AB0008A4002431A8010BD032800D10420054A51
:100AC00040018018008801228A40104000D0012097
:100AD000704700000030005038B5FFF763FF012079
:100AE00000230202009003211846FFF7BCFF0024F8
:100AF00001256D0223462A46214620460094FFF731
:100B0000B2FF00232A46062118460094FFF7ABFFE8
:100B100000232A46052118460094FFF7A4FF1A482F
:100B200000681B494001C20D18480DD0438A6A462F
:100B30001380128893089B006A469B1C13801388BD
:100B40000B43138012884282438A6A4613801388BB
:100B50000B4313801188418238BD0E4D08242C8030
:100B60000A48018A022291430182818A0907FCD541
:100B7000C826094FFFF7D1FB0028FBD13E806C80CF
:100B8000FFF7AAFFF6E700000000FC070000005096
:100B90000080000000330050003100503EB50120BD
:100BA00003252D02009008232A4603210020FFF789
:100BB0005AFF002407232A46214620460094FFF7C7
:100BC00052FF06232A46194600200094FFF74BFFE8
:100BD00005230022194610460094FFF744FF2B48D6
:100BE00003214170FF21047001318802FFF7E4FB0B
:100BF00002200023029000941A46194601942348CB
:100C0000FFF77AFE3EBD10B5FFF735FD204980B2F3
:100C100042182048204903D0204BDA4200D140102E
:100C2000FFF7CAFB10BD1E49488008888004FCD528
:100C30000120C8804888704770B515460C460646A6
:100C4000FFF74CFE0320FFF7EEFF2002000EFFF738
:100C5000EAFF2004000EFFF7E6FFE0B2FFF7E3FF34
:100C60000F4A0020508000BF00BF002109E05080E3
:100C700000BF00BF00BF00BF00BF00BF5388735458
:100C8000491CA942F3D3FFF730FE70BD0477FD077E
:100C9000EE3DFFFF000004000001000002D3FFFF53
:100CA0000012005010B5C043064B07E00C784440DA
:100CB0002406A40D1C59000A6040491C521EF5D29E
:100CC000C04310BDA470FD07FFB583B0002B4AD010
:100CD000012B7DD10E200825039A108003984580B2
:100CE000039F00203F1D002D27DD0B7884001A464E
:100CF0004B78801C1B021A438B781B041A43CB7859
:100D00001B061A4312BA120ACB7812021A433A513E
:100D10000B791A464B791B021A438B791B041A4331
:100D2000CB791B061A4312BA120ACB7912021A4364
:100D3000E31908315A60A842D7DBF44800900398C1
:100D40002E4600888000001D0190854247DAB000E1
:100D50000290C0198038C46F2946304600F010FA5E
:100D60000B0003D01AE00A200425B5E7E848E1B2F9
:100D7000415C0A022104090E415C0904114322026C
:100D8000120E825C12060A43210E405C0099104349
:100D900009780C0644400098401C0090082D12D1A0
:100DA000042B10D1DA48E1B2425C2104090E415C07
:100DB000090211432202120E825C12040A43210E20
:100DC000405C04061443701B80003858604000E00B
:100DD0000CE00299761C785001988642B7DB0398A4
:100DE0001022FF30E530059900F0DEF907B0F0BDC4
:100DF000F0B40446008814348500281F002833DD31
:100E00002D1F2068C349C44B02460A40C609DF4370
:100E10003E40921BC14E4100194032405140FA0100
:100E20000E461640F709F61BBC4F4A001A403E40DA
:100E30007240B84E570016401F40F309F31AB74EE0
:100E400033405F400B4678405340414018267B407A
:100E5000F141594042401023DA414A400821C8413B
:100E6000424004C46D1ECCD1F0BC7047F0B597B0C1
:100E70000288079212011018143084460846103078
:100E80000023022408909D00674602467D1B803A9D
:100E9000803DD66FEF6F08387E40D667966FAD6F96
:100EA0009B1C6E409667641EEDD16046103813900F
:100EB00000200490079800287EDD401E119010A8A5
:100EC00014900422941CA407240F0C59944B240260
:100ED000240E1D5D541CD01CA4078007240F000F96
:100EE0000C5B085896072404360F000E240E8E5D06
:100EF000185C1C5D9B5D119F049EBE4279DA06461C
:100F00006E400396370603D576001B277E4000E02F
:100F10007600F6B2654009962F462E0603D57D0071
:100F20001B26754000E07D00EDB2059525465D402D
:100F30002E0603D56D001B26754000E06D00EDB256
:100F40000A951D4645402E0603D56D001B267540AB
:100F500000E06D00EDB21595059E099D75402E06C9
:100F600003D56D001B26754000E06D00EDB2AC4668
:100F70000A9E059D75402E0603D56D001B26754003
:100F800000E06D00EDB26646AE466E40350603D514
:100F900075001B26754000E07500EEB23D465D40D1
:100FA00067467D40099F75407D40604058407746C8
:100FB00078407040059F00E04CE07840039F0004BB
:100FC0005F4063465F400A9B77405F40039B6340FE
:100FD00074466340159C734063402C0604433802FA
:100FE00004431C4393000CA818188038C4670BE016
:100FF000FFE700062D0428432402204318439400F1
:101000000CABE318803BD867521E00D05AE700248F
:10101000149B089A022518468038C66F1398A700BB
:10102000C01B8038C76F083B7E401746803FFE6775
:101030001E68806F083A4640A41C16606D1EEAD1F7
:101040001398079A103813900498401C049090420B
:1010500000DA36E717B0F0BDFFB59BB01B98FF3044
:1010600081300090446E826EC16E006F25BA00BA66
:101070001C4616BA0FBA0390103C3BD4102212A89B
:101080001C9900F091F81C9810301C90129800BA2E
:1010900016900A90139801BA149802910B9101BA14
:1010A0001598189100BA0C9104900D900AA91B98FC
:1010B000FFF7DCFE0A980D99684000BA0E900B9875
:1010C000169D704000BA0F900C98029E784000BAAE
:1010D00010900398189F41400498039008BA11900B
:1010E00010220EA91D9800F05FF81D9810301D9079
:1010F000103CC3D5039A009C3BBA12BAE36631BADE
:10110000226728BAA16660661FB0F0BDA476FD070D
:10111000A474FD0780808080FEFEFEFE1B1B1B1B4F
:10112000A475FD0710B5094A04461146002310397D
:101130000748FFF7C9FD0648FFF75AFE002223467D
:1011400011460348FFF788FF10BD0000D276FD0767
:101150000877FD0730B50B46014600202022012408
:1011600009E00D46D5409D4205D31D469540491BDB
:101170002546954040191546521E002DF1DC30BD24
:1011800070B500242546002801DA012440420029D8
:1011900001DA01254942FFF7DDFFAC4200D04042B1
:1011A000002C00D0494270BD03460B439B0703D07F
:1011B00009E008C9121F08C0042AFAD203E00B781C
:1011C0000370401C491C521EF9D270471130EF00C9
:1011D000FFFFFF0000000200000100002C000000E3
:1011E0001230EF00FFFFFF000000040000010000CC
:1011F0002C00000000421F0000FFFF000000020062
:1012000000010000040000001120C200FFFFFF00E9
:1012100000000200000100000C0000001128C200C4
:10122000FFFFFF0000000200000100003C00000082
:101230001228C200FFFFFF000000040000010000B0
:101240003C00000000000000963007772C610EEE95
:10125000BA51099919C46D078FF46A7035A563E90D
:10126000A395649E3288DB0EA4B8DC791EE9D5E034
:1012700088D9D2972B4CB609BD7CB17E072DB8E733
:10128000911DBF906410B71DF220B06A4871B9F388
:10129000DE41BE847DD4DA1AEBE4DD6D51B5D4F4C1
:1012A000C785D38356986C13C0A86B647AF962FD26
:1012B000ECC9658A4F5C0114D96C0663633D0FFA73
:1012C000F50D088DC8206E3B5E10694CE44160D579
:1012D000727167A2D1E4033C47D4044BFD850DD263
:1012E0006BB50AA5FAA8B5356C98B242D6C9BBDB76
:1012F00040F9BCACE36CD832755CDF45CF0DD6DC71
:10130000593DD1ABAC30D9263A00DE518051D7C817
:101310001661D0BFB5F4B42123C4B3569995BACFA2
:101320000FA5BDB89EB802280888055FB2D90CC6C3
:1013300024E90BB1877C6F2F114C6858AB1D61C13C
:101340003D2D66B69041DC760671DB01BC20D2985B
:101350002A10D5EF8985B1711FB5B606A5E4BF9FE8
:1013600033D4B8E8A2C9077834F9000F8EA80996DB
:1013700018980EE1BB0D6A7F2D3D6D08976C649146
:10138000015C63E6F4516B6B62616C1CD83065855F
:101390004E0062F2ED95066C7BA5011BC1F408823C
:1013A00057C40FF5C6D9B06550E9B712EAB8BE8B7D
:1013B0007C88B9FCDF1DDD62492DDA15F37CD38C06
:1013C000654CD4FB5861B24DCE51B53A7400BCA304
:1013D000E230BBD441A5DF4AD795D83D6DC4D1A436
:1013E000FBF4D6D36AE96943FCD96E34468867AD0D
:1013F000D0B860DA732D0444E51D03335F4C0AAAAC
:10140000C97C0DDD3C710550AA41022710100BBEAE
:1014100086200CC925B56857B3856F2009D466B9F5
:101420009FE461CE0EF9DE5E98C9D9292298D0B02A
:10143000B4A8D7C7173DB359810DB42E3B5CBDB7D7
:10144000AD6CBAC02083B8EDB6B3BF9A0CE2B60358
:101450009AD2B1743947D5EAAF77D29D1526DB040D
:101460008316DC73120B63E3843B64943E6A6D0D58
:10147000A85A6A7A0BCF0EE49DFF099327AE000AA3
:10148000B19E077D44930FF0D2A3088768F2011E36
:10149000FEC206695D5762F7CB67658071366C19CD
:1014A000E7066B6E761BD4FEE02BD3895A7ADA10EE
:1014B000CC4ADD676FDFB9F9F9EFBE8E43BEB717CF
:1014C000D58EB060E8A3D6D67E93D1A1C4C2D83859
:1014D00052F2DF4FF167BBD16757BCA6DD06B53FBF
:1014E0004B36B248DA2B0DD84C1B0AAFF64A0336FE
:1014F000607A0441C3EF60DF55DF67A8EF8E6E317D
:1015000079BE69468CB361CB1A8366BCA0D26F25C5
:1015100036E2685295770CCC03470BBBB916022212
:101520002F260555BE3BBAC5280BBDB2925AB42B27
:10153000046AB35CA7FFD7C231CFD0B58B9ED92C3C
:101540001DAEDE5BB0C2649B26F263EC9CA36A75A1
:101550000A936D02A906099C3F360EEB8567077258
:1015600013570005824ABF95147AB8E2AE2BB17BBF
:10157000381BB60C9B8ED2920DBED5E5B7EFDC7C46
:1015800021DFDB0BD4D2D38642E2D4F1F8B3DD689D
:101590006E83DA1FCD16BE815B26B9F6E177B06F98
:1015A0007747B718E65A0888706A0FFFCA3B066685
:1015B0005C0B0111FF9E658F69AE62F8D3FF6B6112
:1015C00045CF6C1678E20AA0EED20DD75483044EB4
:1015D000C2B30339612667A7F71660D04D47694942
:1015E000DB776E3E4A6AD1AEDC5AD6D9660BDF4055
:1015F000F03BD83753AEBCA9C59EBBDE7FCFB24708
:10160000E9FFB5301CF2BDBD8AC2BACA3093B353EC
:10161000A6A3B4240536D0BA9306D7CD2957DE54F5
:10162000BF67D9232E7A66B3B84A61C4021B685DCE
:10163000942B6F2A37BE0BB4A18E0CC31BDF055A47
:101640008DEF022D637C777BF26B6FC53001672BCA
:10165000FED7AB76CA82C97DFA5947F0ADD4A2AFA6
:101660009CA472C0B7FD9326363FF7CC34A5E5F1B4
:1016700071D8311504C723C31896059A071280E262
:10168000EB27B27509832C1A1B6E5AA0523BD6B3B6
:1016900029E32F8453D100ED20FCB15B6ACBBE3926
:1016A0004A4C58CFD0EFAAFB434D338545F9027F12
:1016B000503C9FA851A3408F929D38F5BCB6DA21CB
:1016C00010FFF3D2CD0C13EC5F974417C4A77E3DF7
:1016D000645D197360814FDC222A908846EEB8144D
:1016E000DE5E0BDBE0323A0A4906245CC2D3AC6210
:1016F0009195E479E7C8376D8DD54EA96C56F4EA1B
:10170000657AAE08BA78252E1CA6B4C6E8DD741F2B
:101710004BBD8B8A703EB5664803F60E613557B9EE
:1017200086C11D9EE1F8981169D98E949B1E87E9A8
:10173000CE5528DF8CA1890DBFE6426841992D0F57
:10174000B054BB1652096AD53036A538BF40A39EA7
:1017500081F3D7FB7CE339829B2FFF87348E434490
:10176000C4DEE9CB547B9432A6C2233DEE4C950BEC
:1017700042FAC34E082EA16628D924B2765BA2494C
:101780006D8BD12572F8F66486689816D4A45CCC6B
:101790005D65B6926C704850FDEDB9DA5E1546573E
:1017A000A78D9D8490D8AB008CBCD30AF7E4580574
:1017B000B8B34506D02C1E8FCA3F0F02C1AFBD0380
:1017C00001138A6B3A9111414F67DCEA97F2CFCE51
:1017D000F0B4E67396AC7422E7AD3585E2F937E8EC
:1017E0001C75DF6E47F11A711D29C5896FB7620E2E
:1017F000AA18BE1BFC563E4BC6D279209ADBC0FE0F
:1018000078CD5AF41FDDA8338807C731B1121059BB
:101810002780EC5F60517FA919B54A0D2DE57A9FAD
:1018200093C99CEFA0E03B4DAE2AF5B0C8EBBB3CA2
:1018300083539961172B047EBA77D626E169146326
:1018400055210C7D01020408102040801B366CD805
:10185000AB4D9A2F5EBC63C697356AD4B37DFAEF61
:10186000C59106A9214036B8A15B512E03D534128B
:1018700000063DAFBA429D9EB430B422DA802C9F60
:10188000AC4100000024F400000000000000000053
:101890000000000000000000000000000000000048
:0818A000000000000000000040
:0400000507FC00A153
:00000001FF
